{
  "contractName": "JaJankenColiseum",
  "abi": [
    {
      "inputs": [
        {
          "internalType": "uint256",
          "name": "_ticketCost",
          "type": "uint256"
        }
      ],
      "stateMutability": "nonpayable",
      "type": "constructor"
    },
    {
      "anonymous": false,
      "inputs": [
        {
          "indexed": true,
          "internalType": "address",
          "name": "p1",
          "type": "address"
        },
        {
          "indexed": true,
          "internalType": "address",
          "name": "p2",
          "type": "address"
        },
        {
          "indexed": false,
          "internalType": "enum JaJanken.Technique",
          "name": "p1Played",
          "type": "uint8"
        },
        {
          "indexed": false,
          "internalType": "enum JaJanken.Technique",
          "name": "p2Played",
          "type": "uint8"
        },
        {
          "indexed": false,
          "internalType": "address",
          "name": "winner",
          "type": "address"
        }
      ],
      "name": "MatchEnd",
      "type": "event"
    },
    {
      "anonymous": false,
      "inputs": [
        {
          "indexed": true,
          "internalType": "address",
          "name": "matchId",
          "type": "address"
        }
      ],
      "name": "MatchPlayed",
      "type": "event"
    },
    {
      "anonymous": false,
      "inputs": [
        {
          "indexed": false,
          "internalType": "address",
          "name": "matchId",
          "type": "address"
        },
        {
          "indexed": true,
          "internalType": "address",
          "name": "p1",
          "type": "address"
        },
        {
          "indexed": true,
          "internalType": "address",
          "name": "p2",
          "type": "address"
        }
      ],
      "name": "MatchStart",
      "type": "event"
    },
    {
      "anonymous": false,
      "inputs": [
        {
          "indexed": true,
          "internalType": "address",
          "name": "p",
          "type": "address"
        }
      ],
      "name": "PlayerJoin",
      "type": "event"
    },
    {
      "anonymous": false,
      "inputs": [
        {
          "indexed": true,
          "internalType": "address",
          "name": "player",
          "type": "address"
        },
        {
          "indexed": false,
          "internalType": "uint256",
          "name": "amount",
          "type": "uint256"
        }
      ],
      "name": "WithdrawRewards",
      "type": "event"
    },
    {
      "inputs": [],
      "name": "alivePlayers",
      "outputs": [
        {
          "internalType": "uint256",
          "name": "",
          "type": "uint256"
        }
      ],
      "stateMutability": "view",
      "type": "function"
    },
    {
      "inputs": [],
      "name": "balance",
      "outputs": [
        {
          "internalType": "uint256",
          "name": "",
          "type": "uint256"
        }
      ],
      "stateMutability": "view",
      "type": "function"
    },
    {
      "inputs": [],
      "name": "cleanupSink",
      "outputs": [],
      "stateMutability": "nonpayable",
      "type": "function"
    },
    {
      "inputs": [
        {
          "internalType": "address",
          "name": "_yourAddress",
          "type": "address"
        },
        {
          "internalType": "enum JaJanken.Technique",
          "name": "_action",
          "type": "uint8"
        },
        {
          "internalType": "bytes32",
          "name": "_revealKey",
          "type": "bytes32"
        }
      ],
      "name": "encodeAction",
      "outputs": [
        {
          "internalType": "bytes32",
          "name": "",
          "type": "bytes32"
        }
      ],
      "stateMutability": "pure",
      "type": "function"
    },
    {
      "inputs": [],
      "name": "entranceTicketFee",
      "outputs": [
        {
          "internalType": "uint256",
          "name": "",
          "type": "uint256"
        }
      ],
      "stateMutability": "view",
      "type": "function"
    },
    {
      "inputs": [],
      "name": "fees",
      "outputs": [
        {
          "internalType": "uint256",
          "name": "",
          "type": "uint256"
        }
      ],
      "stateMutability": "view",
      "type": "function"
    },
    {
      "inputs": [
        {
          "internalType": "address",
          "name": "_player",
          "type": "address"
        }
      ],
      "name": "getPlayer",
      "outputs": [
        {
          "components": [
            {
              "internalType": "uint32",
              "name": "nen",
              "type": "uint32"
            },
            {
              "internalType": "uint8",
              "name": "techniques",
              "type": "uint8"
            }
          ],
          "internalType": "struct JaJanken.Opponent",
          "name": "",
          "type": "tuple"
        }
      ],
      "stateMutability": "view",
      "type": "function"
    },
    {
      "inputs": [],
      "name": "getProfile",
      "outputs": [
        {
          "components": [
            {
              "internalType": "uint8",
              "name": "guu",
              "type": "uint8"
            },
            {
              "internalType": "uint8",
              "name": "paa",
              "type": "uint8"
            },
            {
              "internalType": "uint8",
              "name": "chi",
              "type": "uint8"
            },
            {
              "internalType": "uint32",
              "name": "nen",
              "type": "uint32"
            },
            {
              "internalType": "address",
              "name": "inMatch",
              "type": "address"
            }
          ],
          "internalType": "struct JaJanken.Player",
          "name": "",
          "type": "tuple"
        }
      ],
      "stateMutability": "view",
      "type": "function"
    },
    {
      "inputs": [],
      "name": "getTotalChi",
      "outputs": [
        {
          "internalType": "uint256",
          "name": "",
          "type": "uint256"
        }
      ],
      "stateMutability": "view",
      "type": "function"
    },
    {
      "inputs": [],
      "name": "getTotalGuu",
      "outputs": [
        {
          "internalType": "uint256",
          "name": "",
          "type": "uint256"
        }
      ],
      "stateMutability": "view",
      "type": "function"
    },
    {
      "inputs": [],
      "name": "getTotalPaa",
      "outputs": [
        {
          "internalType": "uint256",
          "name": "",
          "type": "uint256"
        }
      ],
      "stateMutability": "view",
      "type": "function"
    },
    {
      "inputs": [],
      "name": "getTotalPlayers",
      "outputs": [
        {
          "internalType": "uint256",
          "name": "",
          "type": "uint256"
        }
      ],
      "stateMutability": "view",
      "type": "function"
    },
    {
      "inputs": [
        {
          "internalType": "address",
          "name": "",
          "type": "address"
        }
      ],
      "name": "matches",
      "outputs": [
        {
          "internalType": "address",
          "name": "p2",
          "type": "address"
        },
        {
          "internalType": "bytes32",
          "name": "p1Hidden",
          "type": "bytes32"
        },
        {
          "internalType": "bytes32",
          "name": "p2Hidden",
          "type": "bytes32"
        },
        {
          "internalType": "enum JaJanken.Technique",
          "name": "p1Revealed",
          "type": "uint8"
        },
        {
          "internalType": "enum JaJanken.Technique",
          "name": "p2Revealed",
          "type": "uint8"
        },
        {
          "internalType": "uint256",
          "name": "playTime",
          "type": "uint256"
        },
        {
          "internalType": "uint256",
          "name": "revealTime",
          "type": "uint256"
        }
      ],
      "stateMutability": "view",
      "type": "function"
    },
    {
      "inputs": [],
      "name": "name",
      "outputs": [
        {
          "internalType": "string",
          "name": "",
          "type": "string"
        }
      ],
      "stateMutability": "view",
      "type": "function"
    },
    {
      "inputs": [],
      "name": "owner",
      "outputs": [
        {
          "internalType": "address",
          "name": "",
          "type": "address"
        }
      ],
      "stateMutability": "view",
      "type": "function"
    },
    {
      "inputs": [],
      "name": "queued",
      "outputs": [
        {
          "internalType": "address",
          "name": "",
          "type": "address"
        }
      ],
      "stateMutability": "view",
      "type": "function"
    },
    {
      "inputs": [],
      "name": "sink",
      "outputs": [
        {
          "internalType": "uint256",
          "name": "",
          "type": "uint256"
        }
      ],
      "stateMutability": "view",
      "type": "function"
    },
    {
      "inputs": [],
      "name": "totalChi",
      "outputs": [
        {
          "internalType": "uint256",
          "name": "",
          "type": "uint256"
        }
      ],
      "stateMutability": "view",
      "type": "function"
    },
    {
      "inputs": [],
      "name": "totalGuu",
      "outputs": [
        {
          "internalType": "uint256",
          "name": "",
          "type": "uint256"
        }
      ],
      "stateMutability": "view",
      "type": "function"
    },
    {
      "inputs": [],
      "name": "totalPaa",
      "outputs": [
        {
          "internalType": "uint256",
          "name": "",
          "type": "uint256"
        }
      ],
      "stateMutability": "view",
      "type": "function"
    },
    {
      "inputs": [],
      "name": "withdrawFees",
      "outputs": [],
      "stateMutability": "nonpayable",
      "type": "function"
    },
    {
      "stateMutability": "payable",
      "type": "receive"
    },
    {
      "inputs": [],
      "name": "joinGame",
      "outputs": [],
      "stateMutability": "payable",
      "type": "function"
    },
    {
      "inputs": [],
      "name": "joinMatch",
      "outputs": [],
      "stateMutability": "nonpayable",
      "type": "function"
    },
    {
      "inputs": [
        {
          "internalType": "bytes32",
          "name": "_commitment",
          "type": "bytes32"
        },
        {
          "internalType": "address",
          "name": "_matchId",
          "type": "address"
        }
      ],
      "name": "playMatch",
      "outputs": [],
      "stateMutability": "nonpayable",
      "type": "function"
    },
    {
      "inputs": [
        {
          "internalType": "address",
          "name": "_matchId",
          "type": "address"
        }
      ],
      "name": "forfeitMatch",
      "outputs": [],
      "stateMutability": "nonpayable",
      "type": "function"
    },
    {
      "inputs": [
        {
          "internalType": "enum JaJanken.Technique",
          "name": "_action",
          "type": "uint8"
        },
        {
          "internalType": "bytes32",
          "name": "_revealKey",
          "type": "bytes32"
        },
        {
          "internalType": "address",
          "name": "_matchId",
          "type": "address"
        }
      ],
      "name": "revealMatch",
      "outputs": [],
      "stateMutability": "nonpayable",
      "type": "function"
    },
    {
      "inputs": [
        {
          "internalType": "address",
          "name": "_matchId",
          "type": "address"
        }
      ],
      "name": "waitingForOpponentToPlay",
      "outputs": [
        {
          "internalType": "bool",
          "name": "",
          "type": "bool"
        }
      ],
      "stateMutability": "view",
      "type": "function"
    },
    {
      "inputs": [
        {
          "internalType": "address",
          "name": "_matchId",
          "type": "address"
        }
      ],
      "name": "waitingForOpponentToReveal",
      "outputs": [
        {
          "internalType": "bool",
          "name": "",
          "type": "bool"
        }
      ],
      "stateMutability": "view",
      "type": "function"
    },
    {
      "inputs": [
        {
          "internalType": "address",
          "name": "_matchId",
          "type": "address"
        }
      ],
      "name": "skipAfkDuringPlay",
      "outputs": [],
      "stateMutability": "nonpayable",
      "type": "function"
    },
    {
      "inputs": [
        {
          "internalType": "address",
          "name": "_matchId",
          "type": "address"
        }
      ],
      "name": "skipAfkDuringReveal",
      "outputs": [],
      "stateMutability": "nonpayable",
      "type": "function"
    },
    {
      "inputs": [],
      "name": "withdrawGains",
      "outputs": [],
      "stateMutability": "nonpayable",
      "type": "function"
    }
  ],
  "bytecode": "0x6101406040523480156200001257600080fd5b5060405162005aba38038062005aba833981810160405281019062000038919062000361565b6040518060400160405280601581526020017f546865204a614a616e6b656e20436f6c697365756d0000000000000000000000815250816003806003600485600090805190602001906200008e92919062000294565b503373ffffffffffffffffffffffffffffffffffffffff1660808173ffffffffffffffffffffffffffffffffffffffff166c010000000000000000000000000281525050600380600060016003811115620000e557fe5b6003811115620000f157fe5b815260200190815260200160002060006101000a81548160ff021916908360038111156200011b57fe5b0217905550600160036000600260038111156200013457fe5b60038111156200014057fe5b815260200190815260200160002060006101000a81548160ff021916908360038111156200016a57fe5b02179055506002600360006003808111156200018257fe5b60038111156200018e57fe5b815260200190815260200160002060006101000a81548160ff02191690836003811115620001b857fe5b02179055508260ff1660e08160ff167f010000000000000000000000000000000000000000000000000000000000000002815250508160ff166101008160ff167f010000000000000000000000000000000000000000000000000000000000000002815250508060ff166101208160ff167f010000000000000000000000000000000000000000000000000000000000000002815250508360ff1660c08160ff167f010000000000000000000000000000000000000000000000000000000000000002815250508460a0818152505050505050505050620003b1565b828054600181600116156101000203166002900490600052602060002090601f016020900481019282620002cc576000855562000318565b82601f10620002e757805160ff191683800117855562000318565b8280016001018555821562000318579182015b8281111562000317578251825591602001919060010190620002fa565b5b5090506200032791906200032b565b5090565b5b80821115620003465760008160009055506001016200032c565b5090565b6000815190506200035b8162000397565b92915050565b6000602082840312156200037457600080fd5b600062000384848285016200034a565b91505092915050565b6000819050919050565b620003a2816200038d565b8114620003ae57600080fd5b50565b6080516c01000000000000000000000000900460a05160c0517f0100000000000000000000000000000000000000000000000000000000000000900460e0517f01000000000000000000000000000000000000000000000000000000000000009004610100517f01000000000000000000000000000000000000000000000000000000000000009004610120517f010000000000000000000000000000000000000000000000000000000000000090046155bf620004fb600039806133de528061346252806134e6528061351a52806135955280613610525080611d2a5280611e2e5280611f9f52806132f552508061320d52806136bd52806138a3525080611b1b525080611d4e5280611e525280611fc35280613231528061325b528061368b52806136e152806138c752806138f15250806119dc52806127665280612cff52506155bf6000f3fe6080604052600436106101f9576000357c0100000000000000000000000000000000000000000000000000000000900480634f6968df1161011f5780639af1d35a116100b2578063cd01ab1611610081578063cd01ab161461067c578063d4f77b1c146106bf578063d6afc9b1146106c9578063da3b3393146106f457610200565b80639af1d35a146105d2578063b69ef8a8146105fd578063c74e820e14610628578063cb13ec2d1461065357610200565b806365ea05d1116100ee57806365ea05d11461053e57806367ae350714610567578063739f94691461057e5780638da5cb5b146105a757610200565b80634f6968df146104805780635745d71d146104ab5780635c12cd4b146104d65780635eb0ad5e1461051357610200565b8063317f6744116101975780634529cae7116101665780634529cae7146103fc578063464be0c714610427578063476343ee14610452578063483f02191461046957610200565b8063317f67441461033e57806332003bc31461036957806336847b661461039457806342c32871146103d157610200565b80631158ed61116101d35780631158ed611461027057806316049ddf1461029957806325e1556e146102c457806328362bc71461030157610200565b806302c0cdc41461020557806306fdde031461021c5780630c5b6cff1461024757610200565b3661020057005b600080fd5b34801561021157600080fd5b5061021a61071f565b005b34801561022857600080fd5b50610231610cb2565b60405161023e9190615151565b60405180910390f35b34801561025357600080fd5b5061026e600480360381019061026991906147c1565b610d50565b005b34801561027c57600080fd5b506102976004803603810190610292919061488b565b611236565b005b3480156102a557600080fd5b506102ae6114ad565b6040516102bb9190614fec565b60405180910390f35b3480156102d057600080fd5b506102eb60048036038101906102e691906147c1565b6114d3565b6040516102f891906150ad565b60405180910390f35b34801561030d57600080fd5b50610328600480360381019061032391906147c1565b611728565b60405161033591906150ad565b60405180910390f35b34801561034a57600080fd5b5061035361197a565b6040516103609190615349565b60405180910390f35b34801561037557600080fd5b5061037e611980565b60405161038b9190615349565b60405180910390f35b3480156103a057600080fd5b506103bb60048036038101906103b691906147ea565b61198a565b6040516103c891906150c8565b60405180910390f35b3480156103dd57600080fd5b506103e66119c0565b6040516103f39190615349565b60405180910390f35b34801561040857600080fd5b506104116119c6565b60405161041e9190615349565b60405180910390f35b34801561043357600080fd5b5061043c6119d0565b6040516104499190615349565b60405180910390f35b34801561045e57600080fd5b506104676119da565b005b34801561047557600080fd5b5061047e611b19565b005b34801561048c57600080fd5b5061049561205c565b6040516104a29190615349565b60405180910390f35b3480156104b757600080fd5b506104c0612062565b6040516104cd9190615349565b60405180910390f35b3480156104e257600080fd5b506104fd60048036038101906104f891906147c1565b612068565b60405161050a9190615313565b60405180910390f35b34801561051f57600080fd5b506105286121d8565b6040516105359190615349565b60405180910390f35b34801561054a57600080fd5b50610565600480360381019061056091906148c7565b6121e2565b005b34801561057357600080fd5b5061057c612764565b005b34801561058a57600080fd5b506105a560048036038101906105a091906147c1565b6128a3565b005b3480156105b357600080fd5b506105bc612cfd565b6040516105c99190614fec565b60405180910390f35b3480156105de57600080fd5b506105e7612d21565b6040516105f49190615349565b60405180910390f35b34801561060957600080fd5b50610612612d27565b60405161061f9190615349565b60405180910390f35b34801561063457600080fd5b5061063d612d2d565b60405161064a9190615349565b60405180910390f35b34801561065f57600080fd5b5061067a600480360381019061067591906147c1565b612d33565b005b34801561068857600080fd5b506106a3600480360381019061069e91906147c1565b61318d565b6040516106b6979695949392919061503e565b60405180910390f35b6106c7613209565b005b3480156106d557600080fd5b506106de613773565b6040516106eb919061532e565b60405180910390f35b34801561070057600080fd5b5061070961389d565b6040516107169190615349565b60405180910390f35b3373ffffffffffffffffffffffffffffffffffffffff16600c60009054906101000a900473ffffffffffffffffffffffffffffffffffffffff1673ffffffffffffffffffffffffffffffffffffffff1614156107b0576040517f08c379a00000000000000000000000000000000000000000000000000000000081526004016107a790615173565b60405180910390fd5b600073ffffffffffffffffffffffffffffffffffffffff16600160003373ffffffffffffffffffffffffffffffffffffffff1673ffffffffffffffffffffffffffffffffffffffff16815260200190815260200160002060000160079054906101000a900473ffffffffffffffffffffffffffffffffffffffff1673ffffffffffffffffffffffffffffffffffffffff1614610881576040517f08c379a000000000000000000000000000000000000000000000000000000000815260040161087890615253565b60405180910390fd5b6000600160003373ffffffffffffffffffffffffffffffffffffffff1673ffffffffffffffffffffffffffffffffffffffff16815260200190815260200160002060000160039054906101000a900463ffffffff1663ffffffff161161091c576040517f08c379a0000000000000000000000000000000000000000000000000000000008152600401610913906152d3565b60405180910390fd5b600073ffffffffffffffffffffffffffffffffffffffff16600c60009054906101000a900473ffffffffffffffffffffffffffffffffffffffff1673ffffffffffffffffffffffffffffffffffffffff1614156109b95733600c60006101000a81548173ffffffffffffffffffffffffffffffffffffffff021916908373ffffffffffffffffffffffffffffffffffffffff160217905550610cb0565b3360026000600c60009054906101000a900473ffffffffffffffffffffffffffffffffffffffff1673ffffffffffffffffffffffffffffffffffffffff1673ffffffffffffffffffffffffffffffffffffffff16815260200190815260200160002060000160006101000a81548173ffffffffffffffffffffffffffffffffffffffff021916908373ffffffffffffffffffffffffffffffffffffffff160217905550600c60009054906101000a900473ffffffffffffffffffffffffffffffffffffffff1660016000600c60009054906101000a900473ffffffffffffffffffffffffffffffffffffffff1673ffffffffffffffffffffffffffffffffffffffff1673ffffffffffffffffffffffffffffffffffffffff16815260200190815260200160002060000160076101000a81548173ffffffffffffffffffffffffffffffffffffffff021916908373ffffffffffffffffffffffffffffffffffffffff160217905550600c60009054906101000a900473ffffffffffffffffffffffffffffffffffffffff16600160003373ffffffffffffffffffffffffffffffffffffffff1673ffffffffffffffffffffffffffffffffffffffff16815260200190815260200160002060000160076101000a81548173ffffffffffffffffffffffffffffffffffffffff021916908373ffffffffffffffffffffffffffffffffffffffff1602179055503373ffffffffffffffffffffffffffffffffffffffff16600c60009054906101000a900473ffffffffffffffffffffffffffffffffffffffff1673ffffffffffffffffffffffffffffffffffffffff167f638d6a5e87537cd02bf592bfb8916c30a2140d333b0ce073b4b0f8cc2d298a3f600c60009054906101000a900473ffffffffffffffffffffffffffffffffffffffff16604051610c659190614fec565b60405180910390a36000600c60006101000a81548173ffffffffffffffffffffffffffffffffffffffff021916908373ffffffffffffffffffffffffffffffffffffffff1602179055505b565b60008054600181600116156101000203166002900480601f016020809104026020016040519081016040528092919081815260200182805460018160011615610100020316600290048015610d485780601f10610d1d57610100808354040283529160200191610d48565b820191906000526020600020905b815481529060010190602001808311610d2b57829003601f168201915b505050505081565b60008173ffffffffffffffffffffffffffffffffffffffff163373ffffffffffffffffffffffffffffffffffffffff161415610df057600260008373ffffffffffffffffffffffffffffffffffffffff1673ffffffffffffffffffffffffffffffffffffffff16815260200190815260200160002060000160009054906101000a900473ffffffffffffffffffffffffffffffffffffffff169050610eca565b600260008373ffffffffffffffffffffffffffffffffffffffff1673ffffffffffffffffffffffffffffffffffffffff16815260200190815260200160002060000160009054906101000a900473ffffffffffffffffffffffffffffffffffffffff1673ffffffffffffffffffffffffffffffffffffffff163373ffffffffffffffffffffffffffffffffffffffff161415610e8e57819050610ec9565b6040517f08c379a0000000000000000000000000000000000000000000000000000000008152600401610ec0906151f3565b60405180910390fd5b5b600160003373ffffffffffffffffffffffffffffffffffffffff1673ffffffffffffffffffffffffffffffffffffffff168152602001908152602001600020600001600381819054906101000a900463ffffffff166001900391906101000a81548163ffffffff021916908363ffffffff160217905550600160008273ffffffffffffffffffffffffffffffffffffffff1673ffffffffffffffffffffffffffffffffffffffff168152602001908152602001600020600001600381819054906101000a900463ffffffff1660010191906101000a81548163ffffffff021916908363ffffffff1602179055506000600160003373ffffffffffffffffffffffffffffffffffffffff1673ffffffffffffffffffffffffffffffffffffffff16815260200190815260200160002060000160076101000a81548173ffffffffffffffffffffffffffffffffffffffff021916908373ffffffffffffffffffffffffffffffffffffffff1602179055506000600160008373ffffffffffffffffffffffffffffffffffffffff1673ffffffffffffffffffffffffffffffffffffffff16815260200190815260200160002060000160076101000a81548173ffffffffffffffffffffffffffffffffffffffff021916908373ffffffffffffffffffffffffffffffffffffffff1602179055506110c3614672565b80600260008573ffffffffffffffffffffffffffffffffffffffff1673ffffffffffffffffffffffffffffffffffffffff16815260200190815260200160002060008201518160000160006101000a81548173ffffffffffffffffffffffffffffffffffffffff021916908373ffffffffffffffffffffffffffffffffffffffff160217905550602082015181600101556040820151816002015560608201518160030160006101000a81548160ff0219169083600381111561118257fe5b021790555060808201518160030160016101000a81548160ff021916908360038111156111ab57fe5b021790555060a0820151816004015560c082015181600501559050508173ffffffffffffffffffffffffffffffffffffffff163373ffffffffffffffffffffffffffffffffffffffff167f3ac6b951e4977329fd26cc368d72393ec0e74b115f5e6657d182a75eb43667a960008086604051611229939291906150e3565b60405180910390a3505050565b8073ffffffffffffffffffffffffffffffffffffffff163373ffffffffffffffffffffffffffffffffffffffff1614156112b65781600260008373ffffffffffffffffffffffffffffffffffffffff1673ffffffffffffffffffffffffffffffffffffffff168152602001908152602001600020600101819055506113d4565b600260008273ffffffffffffffffffffffffffffffffffffffff1673ffffffffffffffffffffffffffffffffffffffff16815260200190815260200160002060000160009054906101000a900473ffffffffffffffffffffffffffffffffffffffff1673ffffffffffffffffffffffffffffffffffffffff163373ffffffffffffffffffffffffffffffffffffffff1614156113985781600260008373ffffffffffffffffffffffffffffffffffffffff1673ffffffffffffffffffffffffffffffffffffffff168152602001908152602001600020600201819055506113d3565b6040517f08c379a00000000000000000000000000000000000000000000000000000000081526004016113ca906151f3565b60405180910390fd5b5b6000600260008373ffffffffffffffffffffffffffffffffffffffff1673ffffffffffffffffffffffffffffffffffffffff1681526020019081526020016000206004015414611462578073ffffffffffffffffffffffffffffffffffffffff167f37198fcc7fd6b816a2d208ab394ca4fef0c9813769c325ee8a186ee452c24b7160405160405180910390a25b42600260008373ffffffffffffffffffffffffffffffffffffffff1673ffffffffffffffffffffffffffffffffffffffff168152602001908152602001600020600401819055505050565b600c60009054906101000a900473ffffffffffffffffffffffffffffffffffffffff1681565b60006114dd614672565b600260008473ffffffffffffffffffffffffffffffffffffffff1673ffffffffffffffffffffffffffffffffffffffff1681526020019081526020016000206040518060e00160405290816000820160009054906101000a900473ffffffffffffffffffffffffffffffffffffffff1673ffffffffffffffffffffffffffffffffffffffff1673ffffffffffffffffffffffffffffffffffffffff16815260200160018201548152602001600282015481526020016003820160009054906101000a900460ff1660038111156115af57fe5b60038111156115ba57fe5b81526020016003820160019054906101000a900460ff1660038111156115dc57fe5b60038111156115e757fe5b81526020016004820154815260200160058201548152505090508273ffffffffffffffffffffffffffffffffffffffff163373ffffffffffffffffffffffffffffffffffffffff1614158061166c5750806000015173ffffffffffffffffffffffffffffffffffffffff163373ffffffffffffffffffffffffffffffffffffffff1614155b156116ac576040517f08c379a00000000000000000000000000000000000000000000000000000000081526004016116a3906151f3565b60405180910390fd5b60006001028160200151141580156116cc57506000600102816040015114155b1561170c576040517f08c379a000000000000000000000000000000000000000000000000000000000815260040161170390615213565b60405180910390fd5b6002603c8260a0015142038161171e57fe5b0411915050919050565b6000611732614672565b600260008473ffffffffffffffffffffffffffffffffffffffff1673ffffffffffffffffffffffffffffffffffffffff1681526020019081526020016000206040518060e00160405290816000820160009054906101000a900473ffffffffffffffffffffffffffffffffffffffff1673ffffffffffffffffffffffffffffffffffffffff1673ffffffffffffffffffffffffffffffffffffffff16815260200160018201548152602001600282015481526020016003820160009054906101000a900460ff16600381111561180457fe5b600381111561180f57fe5b81526020016003820160019054906101000a900460ff16600381111561183157fe5b600381111561183c57fe5b81526020016004820154815260200160058201548152505090508273ffffffffffffffffffffffffffffffffffffffff163373ffffffffffffffffffffffffffffffffffffffff161415806118c15750806000015173ffffffffffffffffffffffffffffffffffffffff163373ffffffffffffffffffffffffffffffffffffffff1614155b15611901576040517f08c379a00000000000000000000000000000000000000000000000000000000081526004016118f8906151f3565b60405180910390fd5b60006001028160200151148061191e575060006001028160400151145b1561195e576040517f08c379a0000000000000000000000000000000000000000000000000000000008152600401611955906151b3565b60405180910390fd5b6002603c8260c0015142038161197057fe5b0411915050919050565b600a5481565b6000600954905090565b60008383836040516020016119a193929190614f70565b6040516020818303038152906040528051906020012090509392505050565b60095481565b6000600854905090565b6000600a54905090565b7f000000000000000000000000000000000000000000000000000000000000000073ffffffffffffffffffffffffffffffffffffffff163373ffffffffffffffffffffffffffffffffffffffff1614611a68576040517f08c379a0000000000000000000000000000000000000000000000000000000008152600401611a5f90615193565b60405180910390fd5b60003373ffffffffffffffffffffffffffffffffffffffff16600754604051611a9090614fc2565b60006040518083038185875af1925050503d8060008114611acd576040519150601f19603f3d011682016040523d82523d6000602084013e611ad2565b606091505b5050905080611b16576040517f08c379a0000000000000000000000000000000000000000000000000000000008152600401611b0d906152f3565b60405180910390fd5b50565b7f000000000000000000000000000000000000000000000000000000000000000060ff16600160003373ffffffffffffffffffffffffffffffffffffffff1673ffffffffffffffffffffffffffffffffffffffff16815260200190815260200160002060000160039054906101000a900463ffffffff1663ffffffff161015611bd7576040517f08c379a0000000000000000000000000000000000000000000000000000000008152600401611bce90615233565b60405180910390fd5b6000600160003373ffffffffffffffffffffffffffffffffffffffff1673ffffffffffffffffffffffffffffffffffffffff16815260200190815260200160002060000160019054906101000a900460ff1660ff16148015611c8b57506000600160003373ffffffffffffffffffffffffffffffffffffffff1673ffffffffffffffffffffffffffffffffffffffff16815260200190815260200160002060000160029054906101000a900460ff1660ff16145b8015611ce957506000600160003373ffffffffffffffffffffffffffffffffffffffff1673ffffffffffffffffffffffffffffffffffffffff16815260200190815260200160002060000160009054906101000a900460ff1660ff16145b611d28576040517f08c379a0000000000000000000000000000000000000000000000000000000008152600401611d1f906151d3565b60405180910390fd5b7f000000000000000000000000000000000000000000000000000000000000000060ff167f000000000000000000000000000000000000000000000000000000000000000081611d7457fe5b04600160003373ffffffffffffffffffffffffffffffffffffffff1673ffffffffffffffffffffffffffffffffffffffff16815260200190815260200160002060000160039054906101000a900463ffffffff1663ffffffff16026005541015611e13576040517f08c379a0000000000000000000000000000000000000000000000000000000008152600401611e0a906152b3565b60405180910390fd5b60003373ffffffffffffffffffffffffffffffffffffffff167f000000000000000000000000000000000000000000000000000000000000000060ff167f000000000000000000000000000000000000000000000000000000000000000081611e7857fe5b04600160003373ffffffffffffffffffffffffffffffffffffffff1673ffffffffffffffffffffffffffffffffffffffff16815260200190815260200160002060000160039054906101000a900463ffffffff1663ffffffff1602604051611edf90614fd7565b60006040518083038185875af1925050503d8060008114611f1c576040519150601f19603f3d011682016040523d82523d6000602084013e611f21565b606091505b5050905080611f65576040517f08c379a0000000000000000000000000000000000000000000000000000000008152600401611f5c906152f3565b60405180910390fd5b3373ffffffffffffffffffffffffffffffffffffffff167faa1377f7ec93c239e959efa811f7b8554c036fd7a706c23e58024626a8f3db967f000000000000000000000000000000000000000000000000000000000000000060ff167f000000000000000000000000000000000000000000000000000000000000000081611fe957fe5b04600160003373ffffffffffffffffffffffffffffffffffffffff1673ffffffffffffffffffffffffffffffffffffffff16815260200190815260200160002060000160039054906101000a900463ffffffff1663ffffffff16026040516120519190615349565b60405180910390a250565b60085481565b600b5481565b6120706146e1565b6040518060400160405280600160008573ffffffffffffffffffffffffffffffffffffffff1673ffffffffffffffffffffffffffffffffffffffff16815260200190815260200160002060000160039054906101000a900463ffffffff1663ffffffff168152602001600160008573ffffffffffffffffffffffffffffffffffffffff1673ffffffffffffffffffffffffffffffffffffffff16815260200190815260200160002060000160029054906101000a900460ff16600160008673ffffffffffffffffffffffffffffffffffffffff1673ffffffffffffffffffffffffffffffffffffffff16815260200190815260200160002060000160019054906101000a900460ff16600160008773ffffffffffffffffffffffffffffffffffffffff1673ffffffffffffffffffffffffffffffffffffffff16815260200190815260200160002060000160009054906101000a900460ff16010160ff168152509050919050565b6000600b54905090565b6121ea614672565b600260008373ffffffffffffffffffffffffffffffffffffffff1673ffffffffffffffffffffffffffffffffffffffff1681526020019081526020016000206040518060e00160405290816000820160009054906101000a900473ffffffffffffffffffffffffffffffffffffffff1673ffffffffffffffffffffffffffffffffffffffff1673ffffffffffffffffffffffffffffffffffffffff16815260200160018201548152602001600282015481526020016003820160009054906101000a900460ff1660038111156122bc57fe5b60038111156122c757fe5b81526020016003820160019054906101000a900460ff1660038111156122e957fe5b60038111156122f457fe5b81526020016004820154815260200160058201548152505090508173ffffffffffffffffffffffffffffffffffffffff163373ffffffffffffffffffffffffffffffffffffffff1614156125165780602001513073ffffffffffffffffffffffffffffffffffffffff166336847b663387876040518463ffffffff167c01000000000000000000000000000000000000000000000000000000000281526004016123a093929190615007565b60206040518083038186803b1580156123b857600080fd5b505afa1580156123cc573d6000803e3d6000fd5b505050506040513d601f19601f820116820180604052508101906123f09190614862565b14612430576040517f08c379a000000000000000000000000000000000000000000000000000000000815260040161242790615293565b60405180910390fd5b83600260008473ffffffffffffffffffffffffffffffffffffffff1673ffffffffffffffffffffffffffffffffffffffff16815260200190815260200160002060030160006101000a81548160ff0219169083600381111561248e57fe5b021790555042600260008473ffffffffffffffffffffffffffffffffffffffff1673ffffffffffffffffffffffffffffffffffffffff16815260200190815260200160002060050181905550600060038111156124e757fe5b816080015160038111156124f757fe5b1461251157612510828260000151868460800151613916565b5b61275e565b806000015173ffffffffffffffffffffffffffffffffffffffff163373ffffffffffffffffffffffffffffffffffffffff1614156127225780604001513073ffffffffffffffffffffffffffffffffffffffff166336847b663387876040518463ffffffff167c01000000000000000000000000000000000000000000000000000000000281526004016125ac93929190615007565b60206040518083038186803b1580156125c457600080fd5b505afa1580156125d8573d6000803e3d6000fd5b505050506040513d601f19601f820116820180604052508101906125fc9190614862565b1461263c576040517f08c379a000000000000000000000000000000000000000000000000000000000815260040161263390615293565b60405180910390fd5b83600260008473ffffffffffffffffffffffffffffffffffffffff1673ffffffffffffffffffffffffffffffffffffffff16815260200190815260200160002060030160016101000a81548160ff0219169083600381111561269a57fe5b021790555042600260008473ffffffffffffffffffffffffffffffffffffffff1673ffffffffffffffffffffffffffffffffffffffff16815260200190815260200160002060050181905550600060038111156126f357fe5b8160600151600381111561270357fe5b1461271d5761271c828260000151836060015187613916565b5b61275d565b6040517f08c379a0000000000000000000000000000000000000000000000000000000008152600401612754906151f3565b60405180910390fd5b5b50505050565b7f000000000000000000000000000000000000000000000000000000000000000073ffffffffffffffffffffffffffffffffffffffff163373ffffffffffffffffffffffffffffffffffffffff16146127f2576040517f08c379a00000000000000000000000000000000000000000000000000000000081526004016127e990615193565b60405180910390fd5b60003373ffffffffffffffffffffffffffffffffffffffff1660065460405161281a90614fad565b60006040518083038185875af1925050503d8060008114612857576040519150601f19603f3d011682016040523d82523d6000602084013e61285c565b606091505b50509050806128a0576040517f08c379a0000000000000000000000000000000000000000000000000000000008152600401612897906152f3565b60405180910390fd5b50565b3073ffffffffffffffffffffffffffffffffffffffff166325e1556e826040518263ffffffff167c01000000000000000000000000000000000000000000000000000000000281526004016128f89190614fec565b60206040518083038186803b15801561291057600080fd5b505afa158015612924573d6000803e3d6000fd5b505050506040513d601f19601f820116820180604052508101906129489190614839565b15612cfa578073ffffffffffffffffffffffffffffffffffffffff163373ffffffffffffffffffffffffffffffffffffffff161415612ba157600160003373ffffffffffffffffffffffffffffffffffffffff1673ffffffffffffffffffffffffffffffffffffffff168152602001908152602001600020600001600381819054906101000a900463ffffffff1660010191906101000a81548163ffffffff021916908363ffffffff16021790555060016000600260008473ffffffffffffffffffffffffffffffffffffffff1673ffffffffffffffffffffffffffffffffffffffff16815260200190815260200160002060000160009054906101000a900473ffffffffffffffffffffffffffffffffffffffff1673ffffffffffffffffffffffffffffffffffffffff1673ffffffffffffffffffffffffffffffffffffffff168152602001908152602001600020600001600381819054906101000a900463ffffffff166001900391906101000a81548163ffffffff021916908363ffffffff160217905550600260008273ffffffffffffffffffffffffffffffffffffffff1673ffffffffffffffffffffffffffffffffffffffff16815260200190815260200160002060000160009054906101000a900473ffffffffffffffffffffffffffffffffffffffff1673ffffffffffffffffffffffffffffffffffffffff163373ffffffffffffffffffffffffffffffffffffffff167f3ac6b951e4977329fd26cc368d72393ec0e74b115f5e6657d182a75eb43667a960008033604051612b949392919061511a565b60405180910390a3612cf9565b600160003373ffffffffffffffffffffffffffffffffffffffff1673ffffffffffffffffffffffffffffffffffffffff168152602001908152602001600020600001600381819054906101000a900463ffffffff1660010191906101000a81548163ffffffff021916908363ffffffff160217905550600160008273ffffffffffffffffffffffffffffffffffffffff1673ffffffffffffffffffffffffffffffffffffffff168152602001908152602001600020600001600381819054906101000a900463ffffffff166001900391906101000a81548163ffffffff021916908363ffffffff1602179055508073ffffffffffffffffffffffffffffffffffffffff163373ffffffffffffffffffffffffffffffffffffffff167f3ac6b951e4977329fd26cc368d72393ec0e74b115f5e6657d182a75eb43667a960008033604051612cf09392919061511a565b60405180910390a35b5b50565b7f000000000000000000000000000000000000000000000000000000000000000081565b60075481565b60055481565b60065481565b3073ffffffffffffffffffffffffffffffffffffffff166328362bc7826040518263ffffffff167c0100000000000000000000000000000000000000000000000000000000028152600401612d889190614fec565b60206040518083038186803b158015612da057600080fd5b505afa158015612db4573d6000803e3d6000fd5b505050506040513d601f19601f82011682018060405250810190612dd89190614839565b1561318a578073ffffffffffffffffffffffffffffffffffffffff163373ffffffffffffffffffffffffffffffffffffffff16141561303157600160003373ffffffffffffffffffffffffffffffffffffffff1673ffffffffffffffffffffffffffffffffffffffff168152602001908152602001600020600001600381819054906101000a900463ffffffff1660010191906101000a81548163ffffffff021916908363ffffffff16021790555060016000600260008473ffffffffffffffffffffffffffffffffffffffff1673ffffffffffffffffffffffffffffffffffffffff16815260200190815260200160002060000160009054906101000a900473ffffffffffffffffffffffffffffffffffffffff1673ffffffffffffffffffffffffffffffffffffffff1673ffffffffffffffffffffffffffffffffffffffff168152602001908152602001600020600001600381819054906101000a900463ffffffff166001900391906101000a81548163ffffffff021916908363ffffffff160217905550600260008273ffffffffffffffffffffffffffffffffffffffff1673ffffffffffffffffffffffffffffffffffffffff16815260200190815260200160002060000160009054906101000a900473ffffffffffffffffffffffffffffffffffffffff1673ffffffffffffffffffffffffffffffffffffffff163373ffffffffffffffffffffffffffffffffffffffff167f3ac6b951e4977329fd26cc368d72393ec0e74b115f5e6657d182a75eb43667a9600080336040516130249392919061511a565b60405180910390a3613189565b600160003373ffffffffffffffffffffffffffffffffffffffff1673ffffffffffffffffffffffffffffffffffffffff168152602001908152602001600020600001600381819054906101000a900463ffffffff1660010191906101000a81548163ffffffff021916908363ffffffff160217905550600160008273ffffffffffffffffffffffffffffffffffffffff1673ffffffffffffffffffffffffffffffffffffffff168152602001908152602001600020600001600381819054906101000a900463ffffffff166001900391906101000a81548163ffffffff021916908363ffffffff1602179055508073ffffffffffffffffffffffffffffffffffffffff163373ffffffffffffffffffffffffffffffffffffffff167f3ac6b951e4977329fd26cc368d72393ec0e74b115f5e6657d182a75eb43667a9600080336040516131809392919061511a565b60405180910390a35b5b50565b60026020528060005260406000206000915090508060000160009054906101000a900473ffffffffffffffffffffffffffffffffffffffff16908060010154908060020154908060030160009054906101000a900460ff16908060030160019054906101000a900460ff16908060040154908060050154905087565b60647f000000000000000000000000000000000000000000000000000000000000000060ff167f0000000000000000000000000000000000000000000000000000000000000000028161325857fe5b047f0000000000000000000000000000000000000000000000000000000000000000013410613760576000600160003373ffffffffffffffffffffffffffffffffffffffff1673ffffffffffffffffffffffffffffffffffffffff16815260200190815260200160002060000160039054906101000a900463ffffffff1663ffffffff1614156132f357600860008154600101919050819055505b7f000000000000000000000000000000000000000000000000000000000000000060ff16600160003373ffffffffffffffffffffffffffffffffffffffff1673ffffffffffffffffffffffffffffffffffffffff16815260200190815260200160002060000160038282829054906101000a900463ffffffff160192506101000a81548163ffffffff021916908363ffffffff160217905550600160003373ffffffffffffffffffffffffffffffffffffffff1673ffffffffffffffffffffffffffffffffffffffff16815260200190815260200160002060000160009054906101000a900460ff167f00000000000000000000000000000000000000000000000000000000000000000360ff16600960008282540192505081905550600160003373ffffffffffffffffffffffffffffffffffffffff1673ffffffffffffffffffffffffffffffffffffffff16815260200190815260200160002060000160019054906101000a900460ff167f00000000000000000000000000000000000000000000000000000000000000000360ff16600a60008282540192505081905550600160003373ffffffffffffffffffffffffffffffffffffffff1673ffffffffffffffffffffffffffffffffffffffff16815260200190815260200160002060000160029054906101000a900460ff167f00000000000000000000000000000000000000000000000000000000000000000360ff16600b600082825401925050819055507f0000000000000000000000000000000000000000000000000000000000000000600160003373ffffffffffffffffffffffffffffffffffffffff1673ffffffffffffffffffffffffffffffffffffffff16815260200190815260200160002060000160006101000a81548160ff021916908360ff1602179055507f0000000000000000000000000000000000000000000000000000000000000000600160003373ffffffffffffffffffffffffffffffffffffffff1673ffffffffffffffffffffffffffffffffffffffff16815260200190815260200160002060000160016101000a81548160ff021916908360ff1602179055507f0000000000000000000000000000000000000000000000000000000000000000600160003373ffffffffffffffffffffffffffffffffffffffff1673ffffffffffffffffffffffffffffffffffffffff16815260200190815260200160002060000160026101000a81548160ff021916908360ff1602179055507f000000000000000000000000000000000000000000000000000000000000000060056000828254019250508190555060647f000000000000000000000000000000000000000000000000000000000000000060ff167f0000000000000000000000000000000000000000000000000000000000000000028161370857fe5b046007600082825401925050819055503373ffffffffffffffffffffffffffffffffffffffff167f29d19159c7648a908867641a43fcee2537d7ed2269efb2247320fb53ddc401ea60405160405180910390a2613771565b346006600082825401925050819055505b565b61377b614704565b600160003373ffffffffffffffffffffffffffffffffffffffff1673ffffffffffffffffffffffffffffffffffffffff1681526020019081526020016000206040518060a00160405290816000820160009054906101000a900460ff1660ff1660ff1681526020016000820160019054906101000a900460ff1660ff1660ff1681526020016000820160029054906101000a900460ff1660ff1660ff1681526020016000820160039054906101000a900463ffffffff1663ffffffff1663ffffffff1681526020016000820160079054906101000a900473ffffffffffffffffffffffffffffffffffffffff1673ffffffffffffffffffffffffffffffffffffffff1673ffffffffffffffffffffffffffffffffffffffff1681525050905090565b600060647f000000000000000000000000000000000000000000000000000000000000000060ff167f000000000000000000000000000000000000000000000000000000000000000002816138ee57fe5b047f000000000000000000000000000000000000000000000000000000000000000001905090565b6139208483614293565b613a8957600160008473ffffffffffffffffffffffffffffffffffffffff1673ffffffffffffffffffffffffffffffffffffffff168152602001908152602001600020600001600381819054906101000a900463ffffffff1660010191906101000a81548163ffffffff021916908363ffffffff160217905550600160008573ffffffffffffffffffffffffffffffffffffffff1673ffffffffffffffffffffffffffffffffffffffff168152602001908152602001600020600001600381819054906101000a900463ffffffff166001900391906101000a81548163ffffffff021916908363ffffffff160217905550613a1b8382614449565b8273ffffffffffffffffffffffffffffffffffffffff168473ffffffffffffffffffffffffffffffffffffffff167f3ac6b951e4977329fd26cc368d72393ec0e74b115f5e6657d182a75eb43667a9848487604051613a7c939291906150e3565b60405180910390a3613fa6565b613a938382614293565b613bfc57600160008573ffffffffffffffffffffffffffffffffffffffff1673ffffffffffffffffffffffffffffffffffffffff168152602001908152602001600020600001600381819054906101000a900463ffffffff1660010191906101000a81548163ffffffff021916908363ffffffff160217905550600160008473ffffffffffffffffffffffffffffffffffffffff1673ffffffffffffffffffffffffffffffffffffffff168152602001908152602001600020600001600381819054906101000a900463ffffffff166001900391906101000a81548163ffffffff021916908363ffffffff160217905550613b8e8483614449565b8273ffffffffffffffffffffffffffffffffffffffff168473ffffffffffffffffffffffffffffffffffffffff167f3ac6b951e4977329fd26cc368d72393ec0e74b115f5e6657d182a75eb43667a9848488604051613bef939291906150e3565b60405180910390a3613fa5565b806003811115613c0857fe5b826003811115613c1457fe5b1415613c89578273ffffffffffffffffffffffffffffffffffffffff168473ffffffffffffffffffffffffffffffffffffffff167f3ac6b951e4977329fd26cc368d72393ec0e74b115f5e6657d182a75eb43667a984846000604051613c7c9392919061511a565b60405180910390a3613f90565b806003811115613c9557fe5b60036000846003811115613ca557fe5b6003811115613cb057fe5b815260200190815260200160002060009054906101000a900460ff166003811115613cd757fe5b1415613e3857600160008573ffffffffffffffffffffffffffffffffffffffff1673ffffffffffffffffffffffffffffffffffffffff168152602001908152602001600020600001600381819054906101000a900463ffffffff1660010191906101000a81548163ffffffff021916908363ffffffff160217905550600160008473ffffffffffffffffffffffffffffffffffffffff1673ffffffffffffffffffffffffffffffffffffffff168152602001908152602001600020600001600381819054906101000a900463ffffffff166001900391906101000a81548163ffffffff021916908363ffffffff1602179055508273ffffffffffffffffffffffffffffffffffffffff168473ffffffffffffffffffffffffffffffffffffffff167f3ac6b951e4977329fd26cc368d72393ec0e74b115f5e6657d182a75eb43667a9848488604051613e2b939291906150e3565b60405180910390a3613f8f565b600160008473ffffffffffffffffffffffffffffffffffffffff1673ffffffffffffffffffffffffffffffffffffffff168152602001908152602001600020600001600381819054906101000a900463ffffffff1660010191906101000a81548163ffffffff021916908363ffffffff160217905550600160008573ffffffffffffffffffffffffffffffffffffffff1673ffffffffffffffffffffffffffffffffffffffff168152602001908152602001600020600001600381819054906101000a900463ffffffff166001900391906101000a81548163ffffffff021916908363ffffffff1602179055508273ffffffffffffffffffffffffffffffffffffffff168473ffffffffffffffffffffffffffffffffffffffff167f3ac6b951e4977329fd26cc368d72393ec0e74b115f5e6657d182a75eb43667a9848487604051613f86939291906150e3565b60405180910390a35b5b613f9a8483614449565b613fa48382614449565b5b5b6000600160008673ffffffffffffffffffffffffffffffffffffffff1673ffffffffffffffffffffffffffffffffffffffff16815260200190815260200160002060000160039054906101000a900463ffffffff1663ffffffff16148061406557506000600160008573ffffffffffffffffffffffffffffffffffffffff1673ffffffffffffffffffffffffffffffffffffffff16815260200190815260200160002060000160039054906101000a900463ffffffff1663ffffffff16145b1561407c5760086000815460019003919050819055505b6000600160008673ffffffffffffffffffffffffffffffffffffffff1673ffffffffffffffffffffffffffffffffffffffff16815260200190815260200160002060000160076101000a81548173ffffffffffffffffffffffffffffffffffffffff021916908373ffffffffffffffffffffffffffffffffffffffff1602179055506000600160008573ffffffffffffffffffffffffffffffffffffffff1673ffffffffffffffffffffffffffffffffffffffff16815260200190815260200160002060000160076101000a81548173ffffffffffffffffffffffffffffffffffffffff021916908373ffffffffffffffffffffffffffffffffffffffff160217905550614188614672565b80600260008773ffffffffffffffffffffffffffffffffffffffff1673ffffffffffffffffffffffffffffffffffffffff16815260200190815260200160002060008201518160000160006101000a81548173ffffffffffffffffffffffffffffffffffffffff021916908373ffffffffffffffffffffffffffffffffffffffff160217905550602082015181600101556040820151816002015560608201518160030160006101000a81548160ff0219169083600381111561424757fe5b021790555060808201518160030160016101000a81548160ff0219169083600381111561427057fe5b021790555060a0820151816004015560c082015181600501559050505050505050565b6000600160038111156142a257fe5b8260038111156142ae57fe5b1415614311576000600160008573ffffffffffffffffffffffffffffffffffffffff1673ffffffffffffffffffffffffffffffffffffffff16815260200190815260200160002060000160009054906101000a900460ff1660ff16119050614443565b6002600381111561431e57fe5b82600381111561432a57fe5b141561438d576000600160008573ffffffffffffffffffffffffffffffffffffffff1673ffffffffffffffffffffffffffffffffffffffff16815260200190815260200160002060000160019054906101000a900460ff1660ff16119050614443565b60038081111561439957fe5b8260038111156143a557fe5b1415614408576000600160008573ffffffffffffffffffffffffffffffffffffffff1673ffffffffffffffffffffffffffffffffffffffff16815260200190815260200160002060000160029054906101000a900460ff1660ff16119050614443565b6040517f08c379a000000000000000000000000000000000000000000000000000000000815260040161443a90615273565b60405180910390fd5b92915050565b6001600381111561445657fe5b81600381111561446257fe5b14156144ec57600160008373ffffffffffffffffffffffffffffffffffffffff1673ffffffffffffffffffffffffffffffffffffffff168152602001908152602001600020600001600081819054906101000a900460ff166001900391906101000a81548160ff021916908360ff160217905550600960008154600190039190508190555061466e565b600260038111156144f957fe5b81600381111561450557fe5b141561458f57600160008373ffffffffffffffffffffffffffffffffffffffff1673ffffffffffffffffffffffffffffffffffffffff168152602001908152602001600020600001600181819054906101000a900460ff166001900391906101000a81548160ff021916908360ff160217905550600a60008154600190039190508190555061466d565b60038081111561459b57fe5b8160038111156145a757fe5b141561463157600160008373ffffffffffffffffffffffffffffffffffffffff1673ffffffffffffffffffffffffffffffffffffffff168152602001908152602001600020600001600281819054906101000a900460ff166001900391906101000a81548160ff021916908360ff160217905550600b60008154600190039190508190555061466c565b6040517f08c379a000000000000000000000000000000000000000000000000000000000815260040161466390615273565b60405180910390fd5b5b5b5050565b6040518060e00160405280600073ffffffffffffffffffffffffffffffffffffffff1681526020016000801916815260200160008019168152602001600060038111156146bb57fe5b8152602001600060038111156146cd57fe5b815260200160008152602001600081525090565b6040518060400160405280600063ffffffff168152602001600060ff1681525090565b6040518060a00160405280600060ff168152602001600060ff168152602001600060ff168152602001600063ffffffff168152602001600073ffffffffffffffffffffffffffffffffffffffff1681525090565b60008135905061476781615534565b92915050565b60008151905061477c8161554b565b92915050565b60008135905061479181615562565b92915050565b6000815190506147a681615562565b92915050565b6000813590506147bb81615579565b92915050565b6000602082840312156147d357600080fd5b60006147e184828501614758565b91505092915050565b6000806000606084860312156147ff57600080fd5b600061480d86828701614758565b935050602061481e868287016147ac565b925050604061482f86828701614782565b9150509250925092565b60006020828403121561484b57600080fd5b60006148598482850161476d565b91505092915050565b60006020828403121561487457600080fd5b600061488284828501614797565b91505092915050565b6000806040838503121561489e57600080fd5b60006148ac85828601614782565b92505060206148bd85828601614758565b9150509250929050565b6000806000606084860312156148dc57600080fd5b60006148ea868287016147ac565b93505060206148fb86828701614782565b925050604061490c86828701614758565b9150509250925092565b61491f8161540d565b82525050565b61492e8161538b565b82525050565b61493d8161538b565b82525050565b61495461494f8261538b565b615488565b82525050565b6149638161539d565b82525050565b614972816153a9565b82525050565b614989614984826153a9565b61549a565b82525050565b6149988161541f565b82525050565b6149af6149aa8261541f565b6154b6565b82525050565b60006149c082615364565b6149ca818561537a565b93506149da818560208601615455565b6149e3816154ca565b840191505092915050565b60006149fb601d8361537a565b91507f596f752061726520616c726561647920696e207468652071756575652e0000006000830152602082019050919050565b6000614a3b60228361537a565b91507f4f6e6c79206f776e65722063616e2063616c6c20746869732066756e6374696f60008301527f6e2e0000000000000000000000000000000000000000000000000000000000006020830152604082019050919050565b6000614aa1601b8361537a565b91507f4f6e6520706c61796572206469646e277420706c6179207965742e00000000006000830152602082019050919050565b6000614ae160248361537a565b91507f596f7520646964206e6f7420706c617920616c6c20796f75722063617264732060008301527f7965742e000000000000000000000000000000000000000000000000000000006020830152604082019050919050565b6000614b47600c8361536f565b91507f636c65616e75702073696e6b00000000000000000000000000000000000000006000830152600c82019050919050565b6000614b8760208361537a565b91507f596f7520646f206e6f742062656c6f6e6720746f2074686973206d617463682e6000830152602082019050919050565b6000614bc7601c8361537a565b91507f426f746820706c617965727320616c726561647920706c617965642e000000006000830152602082019050919050565b6000614c07600d8361536f565b91507f77697468647261772066656573000000000000000000000000000000000000006000830152600d82019050919050565b6000614c47603b8361537a565b91507f596f7520646964206e6f74206d65657420746865207265717569726564204e6560008301527f6e20666f72206c656176696e672074686520436f6c697365756d2e00000000006020830152604082019050919050565b6000614cad601b8361537a565b91507f596f752061726520616c726561647920696e2061206d617463682e00000000006000830152602082019050919050565b6000614ced600f8361537a565b91507f57726f6e6720746563686e6971756500000000000000000000000000000000006000830152602082019050919050565b6000614d2d600e8361537a565b91507f696e76616c696420616374696f6e0000000000000000000000000000000000006000830152602082019050919050565b6000614d6d60138361536f565b91507f456e6a6f7920796f7572207265776172647321000000000000000000000000006000830152601382019050919050565b6000614dad60258361537a565b91507f54686520436f6c697365756d206973206f7574206f66206d6f6e657920666f7260008301527f206e6f772e0000000000000000000000000000000000000000000000000000006020830152604082019050919050565b6000614e13602c8361537a565b91507f596f7520646f206e6f74206861766520656e6f756768204e656e20746f20737460008301527f6172742061206d617463682e00000000000000000000000000000000000000006020830152604082019050919050565b6000614e79600f8361537a565b91507f7769746864726177206661696c656400000000000000000000000000000000006000830152602082019050919050565b604082016000820151614ec26000850182614f52565b506020820151614ed56020850182614f61565b50505050565b60a082016000820151614ef16000850182614f61565b506020820151614f046020850182614f61565b506040820151614f176040850182614f61565b506060820151614f2a6060850182614f52565b506080820151614f3d6080850182614925565b50505050565b614f4c816153e6565b82525050565b614f5b816153f0565b82525050565b614f6a81615400565b82525050565b6000614f7c8286614943565b601482019150614f8c828561499e565b600182019150614f9c8284614978565b602082019150819050949350505050565b6000614fb882614b3a565b9150819050919050565b6000614fcd82614bfa565b9150819050919050565b6000614fe282614d60565b9150819050919050565b60006020820190506150016000830184614934565b92915050565b600060608201905061501c6000830186614916565b615029602083018561498f565b6150366040830184614969565b949350505050565b600060e082019050615053600083018a614934565b6150606020830189614969565b61506d6040830188614969565b61507a606083018761498f565b615087608083018661498f565b61509460a0830185614f43565b6150a160c0830184614f43565b98975050505050505050565b60006020820190506150c2600083018461495a565b92915050565b60006020820190506150dd6000830184614969565b92915050565b60006060820190506150f8600083018661498f565b615105602083018561498f565b6151126040830184614934565b949350505050565b600060608201905061512f600083018661498f565b61513c602083018561498f565b6151496040830184614916565b949350505050565b6000602082019050818103600083015261516b81846149b5565b905092915050565b6000602082019050818103600083015261518c816149ee565b9050919050565b600060208201905081810360008301526151ac81614a2e565b9050919050565b600060208201905081810360008301526151cc81614a94565b9050919050565b600060208201905081810360008301526151ec81614ad4565b9050919050565b6000602082019050818103600083015261520c81614b7a565b9050919050565b6000602082019050818103600083015261522c81614bba565b9050919050565b6000602082019050818103600083015261524c81614c3a565b9050919050565b6000602082019050818103600083015261526c81614ca0565b9050919050565b6000602082019050818103600083015261528c81614ce0565b9050919050565b600060208201905081810360008301526152ac81614d20565b9050919050565b600060208201905081810360008301526152cc81614da0565b9050919050565b600060208201905081810360008301526152ec81614e06565b9050919050565b6000602082019050818103600083015261530c81614e6c565b9050919050565b60006040820190506153286000830184614eac565b92915050565b600060a0820190506153436000830184614edb565b92915050565b600060208201905061535e6000830184614f43565b92915050565b600081519050919050565b600081905092915050565b600082825260208201905092915050565b6000615396826153c6565b9050919050565b60008115159050919050565b6000819050919050565b60008190506153c182615520565b919050565b600073ffffffffffffffffffffffffffffffffffffffff82169050919050565b6000819050919050565b600063ffffffff82169050919050565b600060ff82169050919050565b600061541882615431565b9050919050565b600061542a826153b3565b9050919050565b600061543c82615443565b9050919050565b600061544e826153c6565b9050919050565b60005b83811015615473578082015181840152602081019050615458565b83811115615482576000848401525b50505050565b6000615493826154a4565b9050919050565b6000819050919050565b60006154af82615507565b9050919050565b60006154c1826154db565b9050919050565bfe5b6000601f19601f8301169050919050565b60007f010000000000000000000000000000000000000000000000000000000000000082029050919050565b60006c0100000000000000000000000082029050919050565b60048110615531576155306154c8565b5b50565b61553d8161538b565b811461554857600080fd5b50565b6155548161539d565b811461555f57600080fd5b50565b61556b816153a9565b811461557657600080fd5b50565b6004811061558657600080fd5b5056fea26469706673582212205acf41ee88b99ec6bef4d0b7d0a2a3fb2e428fcd6ee38a01b8e2fcd1e85e4b1f64736f6c63430007040033",
  "immutableReferences": {
    "1300": [
      {
        "length": 32,
        "start": 6620
      },
      {
        "length": 32,
        "start": 10086
      },
      {
        "length": 32,
        "start": 11519
      }
    ],
    "1330": [
      {
        "length": 32,
        "start": 7502
      },
      {
        "length": 32,
        "start": 7762
      },
      {
        "length": 32,
        "start": 8131
      },
      {
        "length": 32,
        "start": 12849
      },
      {
        "length": 32,
        "start": 12891
      },
      {
        "length": 32,
        "start": 13963
      },
      {
        "length": 32,
        "start": 14049
      },
      {
        "length": 32,
        "start": 14535
      },
      {
        "length": 32,
        "start": 14577
      }
    ],
    "1332": [
      {
        "length": 32,
        "start": 6939
      }
    ],
    "1334": [
      {
        "length": 32,
        "start": 12813
      },
      {
        "length": 32,
        "start": 14013
      },
      {
        "length": 32,
        "start": 14499
      }
    ],
    "1336": [
      {
        "length": 32,
        "start": 7466
      },
      {
        "length": 32,
        "start": 7726
      },
      {
        "length": 32,
        "start": 8095
      },
      {
        "length": 32,
        "start": 13045
      }
    ],
    "1338": [
      {
        "length": 32,
        "start": 13278
      },
      {
        "length": 32,
        "start": 13410
      },
      {
        "length": 32,
        "start": 13542
      },
      {
        "length": 32,
        "start": 13594
      },
      {
        "length": 32,
        "start": 13717
      },
      {
        "length": 32,
        "start": 13840
      }
    ]
  },
  "source": "pragma solidity ^0.7.4;\r\npragma experimental ABIEncoderV2;\r\n\r\nimport \"./JaJanken.sol\";\r\nimport \"./JaJankenGame.sol\";\r\n\r\n// SPDX-License-Identifier: GLWTPL\r\ncontract JaJankenColiseum is JaJankenGame {\r\n    /**\r\n     * _ticketCost in wei\r\n     */\r\n    constructor(uint256 _ticketCost) JaJankenGame(\"The JaJanken Coliseum\", _ticketCost, 3, 3, 3, 4) {}\r\n\r\n    address public queued;\r\n\r\n    event PlayerJoin(\r\n        address indexed p\r\n    );\r\n\r\n    receive() external payable {\r\n    }\r\n\r\n    function joinGame() external payable override(JaJanken) {\r\n        if (msg.value >= (ticketCost + (ticketCost * entranceFee / 100))) {\r\n            if (players[msg.sender].nen == 0) {\r\n                ++alivePlayers;\r\n            }\r\n            players[msg.sender].nen += startNen;\r\n            totalGuu += (startTechniques - players[msg.sender].guu);\r\n            totalPaa += (startTechniques - players[msg.sender].paa);\r\n            totalChi += (startTechniques - players[msg.sender].chi);\r\n            players[msg.sender].guu = startTechniques;\r\n            players[msg.sender].paa = startTechniques;\r\n            players[msg.sender].chi = startTechniques;\r\n            balance += ticketCost;\r\n            fees += ticketCost * entranceFee / 100;\r\n            emit PlayerJoin({p : msg.sender});\r\n        } else {\r\n            sink += msg.value;\r\n        }\r\n    }\r\n\r\n    function joinMatch() external override(JaJanken) {\r\n        require(queued != msg.sender, \"You are already in the queue.\");\r\n        require(players[msg.sender].inMatch == address(0), \"You are already in a match.\");\r\n        require(players[msg.sender].nen > 0, \"You do not have enough Nen to start a match.\");\r\n        if (queued == address(0)) {\r\n            queued = msg.sender;\r\n        } else {\r\n            matches[queued].p2 = msg.sender;\r\n            players[queued].inMatch = queued;\r\n            players[msg.sender].inMatch = queued;\r\n            emit MatchStart({matchId : queued, p1 : queued, p2 : msg.sender});\r\n            queued = address(0);\r\n        }\r\n    }\r\n\r\n    function playMatch(bytes32 _commitment, address _matchId) external override(JaJanken) {\r\n        if (msg.sender == _matchId) {\r\n            matches[_matchId].p1Hidden = _commitment;\r\n        } else if (msg.sender == matches[_matchId].p2) {\r\n            matches[_matchId].p2Hidden = _commitment;\r\n        } else {\r\n            revert(\"You do not belong to this match.\");\r\n        }\r\n        if (matches[_matchId].playTime != 0) {\r\n            emit MatchPlayed(_matchId);\r\n        }\r\n        matches[_matchId].playTime = block.timestamp;\r\n    }\r\n\r\n    function forfeitMatch(address _matchId) external override(JaJanken) {\r\n        address _p2;\r\n\r\n        if (msg.sender == _matchId) {\r\n            _p2 = matches[_matchId].p2;\r\n        } else if (msg.sender == matches[_matchId].p2) {\r\n            _p2 = _matchId;\r\n        } else {\r\n            revert(\"You do not belong to this match.\");\r\n        }\r\n\r\n        --players[msg.sender].nen;\r\n        ++players[_p2].nen;\r\n        players[msg.sender].inMatch = address(0);\r\n        players[_p2].inMatch = address(0);\r\n        Match memory newMatch;\r\n        matches[_matchId] = newMatch;\r\n        emit MatchEnd({p1 : msg.sender, p2 : _p2, p1Played : Technique.None, p2Played : Technique.None, winner : _p2});\r\n    }\r\n\r\n    function revealMatch(Technique _action, bytes32 _revealKey, address _matchId) external override(JaJanken) {\r\n        Match memory _match = matches[_matchId];\r\n\r\n        if (msg.sender == _matchId) {\r\n            require(this.encodeAction(msg.sender, _action, _revealKey) == _match.p1Hidden, \"invalid action\");\r\n            matches[_matchId].p1Revealed = _action;\r\n            matches[_matchId].revealTime = block.timestamp;\r\n            if (_match.p2Revealed != Technique.None) {\r\n                executeMatch(_matchId, _match.p2, _action, _match.p2Revealed);\r\n            }\r\n        } else if (msg.sender == _match.p2) {\r\n            require(this.encodeAction(msg.sender, _action, _revealKey) == _match.p2Hidden, \"invalid action\");\r\n            matches[_matchId].p2Revealed = _action;\r\n            matches[_matchId].revealTime = block.timestamp;\r\n            if (_match.p1Revealed != Technique.None) {\r\n                executeMatch(_matchId, _match.p2, _match.p1Revealed, _action);\r\n            }\r\n        } else {\r\n            revert(\"You do not belong to this match.\");\r\n        }\r\n    }\r\n\r\n    function executeMatch(address _p1, address _p2, Technique _p1t, Technique _p2t) internal {\r\n        if (!canUseTechnique(_p1, _p1t)) {\r\n            ++players[_p2].nen;\r\n            --players[_p1].nen;\r\n            useTechnique(_p2, _p2t);\r\n            emit MatchEnd({p1 : _p1, p2 : _p2, p1Played : _p1t, p2Played : _p2t, winner : _p2});\r\n        }\r\n        else if (!canUseTechnique(_p2, _p2t)) {\r\n            ++players[_p1].nen;\r\n            --players[_p2].nen;\r\n            useTechnique(_p1, _p1t);\r\n            emit MatchEnd({p1 : _p1, p2 : _p2, p1Played : _p1t, p2Played : _p2t, winner : _p1});\r\n        } else {\r\n            if (_p1t == _p2t) {\r\n                //draw\r\n                emit MatchEnd({p1 : _p1, p2 : _p2, p1Played : _p1t, p2Played : _p2t, winner : address(0)});\r\n            } else if (techniques[_p1t] == _p2t) {\r\n                ++players[_p1].nen;\r\n                --players[_p2].nen;\r\n                emit MatchEnd({p1 : _p1, p2 : _p2, p1Played : _p1t, p2Played : _p2t, winner : _p1});\r\n            } else {\r\n                ++players[_p2].nen;\r\n                --players[_p1].nen;\r\n                emit MatchEnd({p1 : _p1, p2 : _p2, p1Played : _p1t, p2Played : _p2t, winner : _p2});\r\n            }\r\n            useTechnique(_p1, _p1t);\r\n            useTechnique(_p2, _p2t);\r\n        }\r\n        if (players[_p1].nen == 0 || players[_p2].nen == 0) {\r\n            --alivePlayers;\r\n        }\r\n        players[_p1].inMatch = address(0);\r\n        players[_p2].inMatch = address(0);\r\n        Match memory newMatch;\r\n        matches[_p1] = newMatch;\r\n    }\r\n\r\n    function waitingForOpponentToPlay(address _matchId) external view override(JaJanken) returns (bool) {\r\n        Match memory _match = matches[_matchId];\r\n\r\n        if (msg.sender != _matchId || msg.sender != _match.p2) {\r\n            revert(\"You do not belong to this match.\");\r\n        }\r\n        if (_match.p1Hidden != 0 && _match.p2Hidden != 0) {\r\n            revert(\"Both players already played.\");\r\n        }\r\n        return (block.timestamp - _match.playTime) / 60 > 2;\r\n    }\r\n\r\n    function waitingForOpponentToReveal(address _matchId) external view override(JaJanken) returns (bool) {\r\n        Match memory _match = matches[_matchId];\r\n\r\n        if (msg.sender != _matchId || msg.sender != _match.p2) {\r\n            revert(\"You do not belong to this match.\");\r\n        }\r\n        if (_match.p1Hidden == 0 || _match.p2Hidden == 0) {\r\n            revert(\"One player didn't play yet.\");\r\n        }\r\n        return (block.timestamp - _match.revealTime) / 60 > 2;\r\n    }\r\n\r\n    function skipAfkDuringPlay(address _matchId) external override(JaJanken) {\r\n        if (this.waitingForOpponentToPlay(_matchId)) {\r\n            if (msg.sender == _matchId) {\r\n                ++players[msg.sender].nen;\r\n                --players[matches[_matchId].p2].nen;\r\n                emit MatchEnd({p1 : msg.sender, p2 : matches[_matchId].p2, p1Played : Technique.None, p2Played : Technique.None, winner : msg.sender});\r\n            } else {\r\n                ++players[msg.sender].nen;\r\n                --players[_matchId].nen;\r\n                emit MatchEnd({p1 : msg.sender, p2 : _matchId, p1Played : Technique.None, p2Played : Technique.None, winner : msg.sender});\r\n            }\r\n        }\r\n    }\r\n\r\n    function skipAfkDuringReveal(address _matchId) external override(JaJanken) {\r\n        if (this.waitingForOpponentToReveal(_matchId)) {\r\n            if (msg.sender == _matchId) {\r\n                ++players[msg.sender].nen;\r\n                --players[matches[_matchId].p2].nen;\r\n                emit MatchEnd({p1 : msg.sender, p2 : matches[_matchId].p2, p1Played : Technique.None, p2Played : Technique.None, winner : msg.sender});\r\n            } else {\r\n                ++players[msg.sender].nen;\r\n                --players[_matchId].nen;\r\n                emit MatchEnd({p1 : msg.sender, p2 : _matchId, p1Played : Technique.None, p2Played : Technique.None, winner : msg.sender});\r\n            }\r\n        }\r\n    }\r\n\r\n\r\n    /**\r\n     * Withdraw gains from the Game\r\n     * only available at the end of the Game, do nothing otherwise\r\n     */\r\n    function withdrawGains() external override(JaJanken) {\r\n        require(players[msg.sender].nen >= minimumNenToEarn, \"You did not meet the required Nen for leaving the Coliseum.\");\r\n        require(players[msg.sender].paa == 0 && players[msg.sender].chi == 0 && players[msg.sender].guu == 0, \"You did not play all your cards yet.\");\r\n        require(balance >= players[msg.sender].nen * (ticketCost / startNen), \"The Coliseum is out of money for now.\");\r\n        (bool success,) = msg.sender.call{value : players[msg.sender].nen * (ticketCost / startNen)}(\"Enjoy your rewards!\");\r\n        require(success, \"withdraw failed\");\r\n        emit WithdrawRewards({player : msg.sender, amount : players[msg.sender].nen * (ticketCost / startNen)});\r\n    }\r\n\r\n}",
  "sourcePath": "C:\\Users\\KevinGeorgesAndres\\Documents\\projects\\perso\\jajanken-evm\\contracts\\JaJankenColiseum.sol",
  "compiler": {
    "name": "solc",
    "version": "0.7.4+commit.3f05b770.Emscripten.clang"
  },
  "schemaVersion": "3.4.3",
  "updatedAt": "2021-11-15T09:27:53.015Z",
  "devdoc": {
    "kind": "dev",
    "methods": {},
    "version": 1
  },
  "userdoc": {
    "kind": "user",
    "methods": {
      "cleanupSink()": {
        "notice": "Cleanup sink only available for game owner"
      },
      "constructor": {
        "notice": "_ticketCost in wei"
      },
      "encodeAction(address,uint8,bytes32)": {
        "notice": "Encode the specified technique Should be used to generate a hashed value in order to commit secretly the player action for playMatch"
      },
      "forfeitMatch(address)": {
        "notice": "The player decide to forfeit and quit the specified match No card will be used from either players -> Should emit a MatchEnd event"
      },
      "getPlayer(address)": {
        "notice": "Get the player profile stat for the current Game"
      },
      "getProfile()": {
        "notice": "Get your profile stat for the current Game"
      },
      "getTotalChi()": {
        "notice": "Get the number of Chi from alive players"
      },
      "getTotalGuu()": {
        "notice": "Get the number of Guu from alive players"
      },
      "getTotalPaa()": {
        "notice": "Get the number of Paa from alive players"
      },
      "getTotalPlayers()": {
        "notice": "Get the number of player alive in the game"
      },
      "joinGame()": {
        "notice": "Join a game, the caller must pay the required entrance ticket amount in ETH"
      },
      "joinMatch()": {
        "notice": "Join a queue in order to find an opponent to fight against -> Should emit a StartMatch event when an opponent is found"
      },
      "playMatch(bytes32,address)": {
        "notice": "Commit the player's action for his current match The action(Technique) must be hashed with a bytes32 key. so it can be saved with his hidden form. -> Should emit a MatchPlayed event when the last player of the Match commit his play"
      },
      "revealMatch(uint8,bytes32,address)": {
        "notice": "Reveal the player's action for his current match It is required to send the player's action with the key used to hash it previously for platMatch method -> Should emit a MatchEnd event when the last player of the Match reveal his play"
      },
      "skipAfkDuringPlay(address)": {
        "notice": "Kick your opponent from the match if conditions are met. You will win this match by default"
      },
      "skipAfkDuringReveal(address)": {
        "notice": "Kick your opponent from the match if conditions are met. You will win this match by default"
      },
      "waitingForOpponentToPlay(address)": {
        "notice": "This method will check if your opponent didn't play yet If this method return true, you will be allowed to call skipAfkDuringPlay to pass the turn of your opponent and win the match"
      },
      "waitingForOpponentToReveal(address)": {
        "notice": "This method will check if your opponent didn't reveal his play yet If this method return true, you will be allowed to call skipAfkDuringReveal to pass the turn of your opponent and win the match"
      },
      "withdrawFees()": {
        "notice": "Withdraw fees earning from the Game only available for game owner"
      },
      "withdrawGains()": {
        "notice": "Withdraw gains from the Game only available at the end of the Game, do nothing otherwise"
      }
    },
    "version": 1
  }
}