{
  "contractName": "JaJankenColiseum",
  "abi": [
    {
      "inputs": [
        {
          "internalType": "uint256",
          "name": "_ticketCost",
          "type": "uint256"
        }
      ],
      "stateMutability": "nonpayable",
      "type": "constructor"
    },
    {
      "anonymous": false,
      "inputs": [
        {
          "indexed": true,
          "internalType": "address",
          "name": "p1",
          "type": "address"
        },
        {
          "indexed": true,
          "internalType": "address",
          "name": "p2",
          "type": "address"
        },
        {
          "indexed": false,
          "internalType": "enum JaJanken.Technique",
          "name": "p1Played",
          "type": "uint8"
        },
        {
          "indexed": false,
          "internalType": "enum JaJanken.Technique",
          "name": "p2Played",
          "type": "uint8"
        },
        {
          "indexed": false,
          "internalType": "address",
          "name": "winner",
          "type": "address"
        }
      ],
      "name": "MatchEnd",
      "type": "event"
    },
    {
      "anonymous": false,
      "inputs": [
        {
          "indexed": true,
          "internalType": "address",
          "name": "matchId",
          "type": "address"
        }
      ],
      "name": "MatchPlayed",
      "type": "event"
    },
    {
      "anonymous": false,
      "inputs": [
        {
          "indexed": false,
          "internalType": "address",
          "name": "matchId",
          "type": "address"
        },
        {
          "indexed": true,
          "internalType": "address",
          "name": "p1",
          "type": "address"
        },
        {
          "indexed": true,
          "internalType": "address",
          "name": "p2",
          "type": "address"
        }
      ],
      "name": "MatchStart",
      "type": "event"
    },
    {
      "anonymous": false,
      "inputs": [
        {
          "indexed": true,
          "internalType": "address",
          "name": "p",
          "type": "address"
        }
      ],
      "name": "PlayerJoin",
      "type": "event"
    },
    {
      "anonymous": false,
      "inputs": [
        {
          "indexed": true,
          "internalType": "address",
          "name": "player",
          "type": "address"
        },
        {
          "indexed": false,
          "internalType": "uint256",
          "name": "amount",
          "type": "uint256"
        }
      ],
      "name": "WithdrawRewards",
      "type": "event"
    },
    {
      "inputs": [],
      "name": "alivePlayers",
      "outputs": [
        {
          "internalType": "uint256",
          "name": "",
          "type": "uint256"
        }
      ],
      "stateMutability": "view",
      "type": "function",
      "constant": true
    },
    {
      "inputs": [],
      "name": "balance",
      "outputs": [
        {
          "internalType": "uint256",
          "name": "",
          "type": "uint256"
        }
      ],
      "stateMutability": "view",
      "type": "function",
      "constant": true
    },
    {
      "inputs": [],
      "name": "cleanupSink",
      "outputs": [],
      "stateMutability": "nonpayable",
      "type": "function"
    },
    {
      "inputs": [
        {
          "internalType": "address",
          "name": "_yourAddress",
          "type": "address"
        },
        {
          "internalType": "enum JaJanken.Technique",
          "name": "_action",
          "type": "uint8"
        },
        {
          "internalType": "bytes32",
          "name": "_revealKey",
          "type": "bytes32"
        }
      ],
      "name": "encodeAction",
      "outputs": [
        {
          "internalType": "bytes32",
          "name": "",
          "type": "bytes32"
        }
      ],
      "stateMutability": "pure",
      "type": "function",
      "constant": true
    },
    {
      "inputs": [],
      "name": "entranceTicketFee",
      "outputs": [
        {
          "internalType": "uint256",
          "name": "",
          "type": "uint256"
        }
      ],
      "stateMutability": "view",
      "type": "function",
      "constant": true
    },
    {
      "inputs": [],
      "name": "fees",
      "outputs": [
        {
          "internalType": "uint256",
          "name": "",
          "type": "uint256"
        }
      ],
      "stateMutability": "view",
      "type": "function",
      "constant": true
    },
    {
      "inputs": [
        {
          "internalType": "address",
          "name": "_player",
          "type": "address"
        }
      ],
      "name": "getPlayer",
      "outputs": [
        {
          "components": [
            {
              "internalType": "uint32",
              "name": "nen",
              "type": "uint32"
            },
            {
              "internalType": "uint8",
              "name": "techniques",
              "type": "uint8"
            }
          ],
          "internalType": "struct JaJanken.Opponent",
          "name": "",
          "type": "tuple"
        }
      ],
      "stateMutability": "view",
      "type": "function",
      "constant": true
    },
    {
      "inputs": [],
      "name": "getProfile",
      "outputs": [
        {
          "components": [
            {
              "internalType": "uint8",
              "name": "guu",
              "type": "uint8"
            },
            {
              "internalType": "uint8",
              "name": "paa",
              "type": "uint8"
            },
            {
              "internalType": "uint8",
              "name": "chi",
              "type": "uint8"
            },
            {
              "internalType": "uint32",
              "name": "nen",
              "type": "uint32"
            },
            {
              "internalType": "address",
              "name": "inMatch",
              "type": "address"
            }
          ],
          "internalType": "struct JaJanken.Player",
          "name": "",
          "type": "tuple"
        }
      ],
      "stateMutability": "view",
      "type": "function",
      "constant": true
    },
    {
      "inputs": [],
      "name": "getTotalChi",
      "outputs": [
        {
          "internalType": "uint256",
          "name": "",
          "type": "uint256"
        }
      ],
      "stateMutability": "view",
      "type": "function",
      "constant": true
    },
    {
      "inputs": [],
      "name": "getTotalGuu",
      "outputs": [
        {
          "internalType": "uint256",
          "name": "",
          "type": "uint256"
        }
      ],
      "stateMutability": "view",
      "type": "function",
      "constant": true
    },
    {
      "inputs": [],
      "name": "getTotalPaa",
      "outputs": [
        {
          "internalType": "uint256",
          "name": "",
          "type": "uint256"
        }
      ],
      "stateMutability": "view",
      "type": "function",
      "constant": true
    },
    {
      "inputs": [],
      "name": "getTotalPlayers",
      "outputs": [
        {
          "internalType": "uint256",
          "name": "",
          "type": "uint256"
        }
      ],
      "stateMutability": "view",
      "type": "function",
      "constant": true
    },
    {
      "inputs": [
        {
          "internalType": "address",
          "name": "",
          "type": "address"
        }
      ],
      "name": "matches",
      "outputs": [
        {
          "internalType": "address",
          "name": "p2",
          "type": "address"
        },
        {
          "internalType": "bytes32",
          "name": "p1Hidden",
          "type": "bytes32"
        },
        {
          "internalType": "bytes32",
          "name": "p2Hidden",
          "type": "bytes32"
        },
        {
          "internalType": "enum JaJanken.Technique",
          "name": "p1Revealed",
          "type": "uint8"
        },
        {
          "internalType": "enum JaJanken.Technique",
          "name": "p2Revealed",
          "type": "uint8"
        },
        {
          "internalType": "uint256",
          "name": "playTime",
          "type": "uint256"
        },
        {
          "internalType": "uint256",
          "name": "revealTime",
          "type": "uint256"
        }
      ],
      "stateMutability": "view",
      "type": "function",
      "constant": true
    },
    {
      "inputs": [],
      "name": "name",
      "outputs": [
        {
          "internalType": "string",
          "name": "",
          "type": "string"
        }
      ],
      "stateMutability": "view",
      "type": "function",
      "constant": true
    },
    {
      "inputs": [],
      "name": "owner",
      "outputs": [
        {
          "internalType": "address",
          "name": "",
          "type": "address"
        }
      ],
      "stateMutability": "view",
      "type": "function",
      "constant": true
    },
    {
      "inputs": [],
      "name": "queued",
      "outputs": [
        {
          "internalType": "address",
          "name": "",
          "type": "address"
        }
      ],
      "stateMutability": "view",
      "type": "function",
      "constant": true
    },
    {
      "inputs": [],
      "name": "sink",
      "outputs": [
        {
          "internalType": "uint256",
          "name": "",
          "type": "uint256"
        }
      ],
      "stateMutability": "view",
      "type": "function",
      "constant": true
    },
    {
      "inputs": [],
      "name": "totalChi",
      "outputs": [
        {
          "internalType": "uint256",
          "name": "",
          "type": "uint256"
        }
      ],
      "stateMutability": "view",
      "type": "function",
      "constant": true
    },
    {
      "inputs": [],
      "name": "totalGuu",
      "outputs": [
        {
          "internalType": "uint256",
          "name": "",
          "type": "uint256"
        }
      ],
      "stateMutability": "view",
      "type": "function",
      "constant": true
    },
    {
      "inputs": [],
      "name": "totalPaa",
      "outputs": [
        {
          "internalType": "uint256",
          "name": "",
          "type": "uint256"
        }
      ],
      "stateMutability": "view",
      "type": "function",
      "constant": true
    },
    {
      "inputs": [],
      "name": "withdrawFees",
      "outputs": [],
      "stateMutability": "nonpayable",
      "type": "function"
    },
    {
      "stateMutability": "payable",
      "type": "receive",
      "payable": true
    },
    {
      "inputs": [],
      "name": "joinGame",
      "outputs": [],
      "stateMutability": "payable",
      "type": "function",
      "payable": true
    },
    {
      "inputs": [],
      "name": "joinMatch",
      "outputs": [],
      "stateMutability": "nonpayable",
      "type": "function"
    },
    {
      "inputs": [
        {
          "internalType": "bytes32",
          "name": "_commitment",
          "type": "bytes32"
        },
        {
          "internalType": "address",
          "name": "_matchId",
          "type": "address"
        }
      ],
      "name": "playMatch",
      "outputs": [],
      "stateMutability": "nonpayable",
      "type": "function"
    },
    {
      "inputs": [
        {
          "internalType": "address",
          "name": "_matchId",
          "type": "address"
        }
      ],
      "name": "forfeitMatch",
      "outputs": [],
      "stateMutability": "nonpayable",
      "type": "function"
    },
    {
      "inputs": [
        {
          "internalType": "enum JaJanken.Technique",
          "name": "_action",
          "type": "uint8"
        },
        {
          "internalType": "bytes32",
          "name": "_revealKey",
          "type": "bytes32"
        },
        {
          "internalType": "address",
          "name": "_matchId",
          "type": "address"
        }
      ],
      "name": "revealMatch",
      "outputs": [],
      "stateMutability": "nonpayable",
      "type": "function"
    },
    {
      "inputs": [
        {
          "internalType": "address",
          "name": "_matchId",
          "type": "address"
        }
      ],
      "name": "waitingForOpponentToPlay",
      "outputs": [
        {
          "internalType": "bool",
          "name": "",
          "type": "bool"
        }
      ],
      "stateMutability": "view",
      "type": "function",
      "constant": true
    },
    {
      "inputs": [
        {
          "internalType": "address",
          "name": "_matchId",
          "type": "address"
        }
      ],
      "name": "waitingForOpponentToReveal",
      "outputs": [
        {
          "internalType": "bool",
          "name": "",
          "type": "bool"
        }
      ],
      "stateMutability": "view",
      "type": "function",
      "constant": true
    },
    {
      "inputs": [
        {
          "internalType": "address",
          "name": "_matchId",
          "type": "address"
        }
      ],
      "name": "skipAfkDuringPlay",
      "outputs": [],
      "stateMutability": "nonpayable",
      "type": "function"
    },
    {
      "inputs": [
        {
          "internalType": "address",
          "name": "_matchId",
          "type": "address"
        }
      ],
      "name": "skipAfkDuringReveal",
      "outputs": [],
      "stateMutability": "nonpayable",
      "type": "function"
    },
    {
      "inputs": [],
      "name": "withdrawGains",
      "outputs": [],
      "stateMutability": "nonpayable",
      "type": "function"
    }
  ],
  "bytecode": "0x6101406040523480156200001257600080fd5b5060405162005bac38038062005bac833981810160405281019062000038919062000361565b6040518060400160405280601581526020017f546865204a614a616e6b656e20436f6c697365756d0000000000000000000000815250816003806003600485600090805190602001906200008e92919062000294565b503373ffffffffffffffffffffffffffffffffffffffff1660808173ffffffffffffffffffffffffffffffffffffffff166c010000000000000000000000000281525050600380600060016003811115620000e557fe5b6003811115620000f157fe5b815260200190815260200160002060006101000a81548160ff021916908360038111156200011b57fe5b0217905550600160036000600260038111156200013457fe5b60038111156200014057fe5b815260200190815260200160002060006101000a81548160ff021916908360038111156200016a57fe5b02179055506002600360006003808111156200018257fe5b60038111156200018e57fe5b815260200190815260200160002060006101000a81548160ff02191690836003811115620001b857fe5b02179055508260ff1660e08160ff167f010000000000000000000000000000000000000000000000000000000000000002815250508160ff166101008160ff167f010000000000000000000000000000000000000000000000000000000000000002815250508060ff166101208160ff167f010000000000000000000000000000000000000000000000000000000000000002815250508360ff1660c08160ff167f010000000000000000000000000000000000000000000000000000000000000002815250508460a0818152505050505050505050620003b1565b828054600181600116156101000203166002900490600052602060002090601f016020900481019282620002cc576000855562000318565b82601f10620002e757805160ff191683800117855562000318565b8280016001018555821562000318579182015b8281111562000317578251825591602001919060010190620002fa565b5b5090506200032791906200032b565b5090565b5b80821115620003465760008160009055506001016200032c565b5090565b6000815190506200035b8162000397565b92915050565b6000602082840312156200037457600080fd5b600062000384848285016200034a565b91505092915050565b6000819050919050565b620003a2816200038d565b8114620003ae57600080fd5b50565b6080516c01000000000000000000000000900460a05160c0517f0100000000000000000000000000000000000000000000000000000000000000900460e0517f01000000000000000000000000000000000000000000000000000000000000009004610100517f01000000000000000000000000000000000000000000000000000000000000009004610120517f010000000000000000000000000000000000000000000000000000000000000090046156b1620004fb6000398061341052806134945280613518528061354c52806135c75280613642525080611d385280611ef55280612014528061332752508061323f52806136ef52806138d5525080611b29525080611d5c5280611f1952806120385280613263528061328d52806136bd528061371352806138f952806139235250806119dc528061278a5280612d3152506156b16000f3fe6080604052600436106101f9576000357c0100000000000000000000000000000000000000000000000000000000900480634f6968df1161011f5780639af1d35a116100b2578063cd01ab1611610081578063cd01ab161461067c578063d4f77b1c146106bf578063d6afc9b1146106c9578063da3b3393146106f457610200565b80639af1d35a146105d2578063b69ef8a8146105fd578063c74e820e14610628578063cb13ec2d1461065357610200565b806365ea05d1116100ee57806365ea05d11461053e57806367ae350714610567578063739f94691461057e5780638da5cb5b146105a757610200565b80634f6968df146104805780635745d71d146104ab5780635c12cd4b146104d65780635eb0ad5e1461051357610200565b8063317f6744116101975780634529cae7116101665780634529cae7146103fc578063464be0c714610427578063476343ee14610452578063483f02191461046957610200565b8063317f67441461033e57806332003bc31461036957806336847b661461039457806342c32871146103d157610200565b80631158ed61116101d35780631158ed611461027057806316049ddf1461029957806325e1556e146102c457806328362bc71461030157610200565b806302c0cdc41461020557806306fdde031461021c5780630c5b6cff1461024757610200565b3661020057005b600080fd5b34801561021157600080fd5b5061021a61071f565b005b34801561022857600080fd5b50610231610cb2565b60405161023e9190615203565b60405180910390f35b34801561025357600080fd5b5061026e600480360381019061026991906147f3565b610d50565b005b34801561027c57600080fd5b50610297600480360381019061029291906148bd565b611236565b005b3480156102a557600080fd5b506102ae6114ad565b6040516102bb919061509e565b60405180910390f35b3480156102d057600080fd5b506102eb60048036038101906102e691906147f3565b6114d3565b6040516102f8919061515f565b60405180910390f35b34801561030d57600080fd5b50610328600480360381019061032391906147f3565b611728565b604051610335919061515f565b60405180910390f35b34801561034a57600080fd5b5061035361197a565b604051610360919061543b565b60405180910390f35b34801561037557600080fd5b5061037e611980565b60405161038b919061543b565b60405180910390f35b3480156103a057600080fd5b506103bb60048036038101906103b6919061481c565b61198a565b6040516103c8919061517a565b60405180910390f35b3480156103dd57600080fd5b506103e66119c0565b6040516103f3919061543b565b60405180910390f35b34801561040857600080fd5b506104116119c6565b60405161041e919061543b565b60405180910390f35b34801561043357600080fd5b5061043c6119d0565b604051610449919061543b565b60405180910390f35b34801561045e57600080fd5b506104676119da565b005b34801561047557600080fd5b5061047e611b27565b005b34801561048c57600080fd5b50610495612080565b6040516104a2919061543b565b60405180910390f35b3480156104b757600080fd5b506104c0612086565b6040516104cd919061543b565b60405180910390f35b3480156104e257600080fd5b506104fd60048036038101906104f891906147f3565b61208c565b60405161050a9190615405565b60405180910390f35b34801561051f57600080fd5b506105286121fc565b604051610535919061543b565b60405180910390f35b34801561054a57600080fd5b50610565600480360381019061056091906148f9565b612206565b005b34801561057357600080fd5b5061057c612788565b005b34801561058a57600080fd5b506105a560048036038101906105a091906147f3565b6128d5565b005b3480156105b357600080fd5b506105bc612d2f565b6040516105c9919061509e565b60405180910390f35b3480156105de57600080fd5b506105e7612d53565b6040516105f4919061543b565b60405180910390f35b34801561060957600080fd5b50610612612d59565b60405161061f919061543b565b60405180910390f35b34801561063457600080fd5b5061063d612d5f565b60405161064a919061543b565b60405180910390f35b34801561065f57600080fd5b5061067a600480360381019061067591906147f3565b612d65565b005b34801561068857600080fd5b506106a3600480360381019061069e91906147f3565b6131bf565b6040516106b697969594939291906150f0565b60405180910390f35b6106c761323b565b005b3480156106d557600080fd5b506106de6137a5565b6040516106eb9190615420565b60405180910390f35b34801561070057600080fd5b506107096138cf565b604051610716919061543b565b60405180910390f35b3373ffffffffffffffffffffffffffffffffffffffff16600c60009054906101000a900473ffffffffffffffffffffffffffffffffffffffff1673ffffffffffffffffffffffffffffffffffffffff1614156107b0576040517f08c379a00000000000000000000000000000000000000000000000000000000081526004016107a790615225565b60405180910390fd5b600073ffffffffffffffffffffffffffffffffffffffff16600160003373ffffffffffffffffffffffffffffffffffffffff1673ffffffffffffffffffffffffffffffffffffffff16815260200190815260200160002060000160079054906101000a900473ffffffffffffffffffffffffffffffffffffffff1673ffffffffffffffffffffffffffffffffffffffff1614610881576040517f08c379a000000000000000000000000000000000000000000000000000000000815260040161087890615325565b60405180910390fd5b6000600160003373ffffffffffffffffffffffffffffffffffffffff1673ffffffffffffffffffffffffffffffffffffffff16815260200190815260200160002060000160039054906101000a900463ffffffff1663ffffffff161161091c576040517f08c379a0000000000000000000000000000000000000000000000000000000008152600401610913906153c5565b60405180910390fd5b600073ffffffffffffffffffffffffffffffffffffffff16600c60009054906101000a900473ffffffffffffffffffffffffffffffffffffffff1673ffffffffffffffffffffffffffffffffffffffff1614156109b95733600c60006101000a81548173ffffffffffffffffffffffffffffffffffffffff021916908373ffffffffffffffffffffffffffffffffffffffff160217905550610cb0565b3360026000600c60009054906101000a900473ffffffffffffffffffffffffffffffffffffffff1673ffffffffffffffffffffffffffffffffffffffff1673ffffffffffffffffffffffffffffffffffffffff16815260200190815260200160002060000160006101000a81548173ffffffffffffffffffffffffffffffffffffffff021916908373ffffffffffffffffffffffffffffffffffffffff160217905550600c60009054906101000a900473ffffffffffffffffffffffffffffffffffffffff1660016000600c60009054906101000a900473ffffffffffffffffffffffffffffffffffffffff1673ffffffffffffffffffffffffffffffffffffffff1673ffffffffffffffffffffffffffffffffffffffff16815260200190815260200160002060000160076101000a81548173ffffffffffffffffffffffffffffffffffffffff021916908373ffffffffffffffffffffffffffffffffffffffff160217905550600c60009054906101000a900473ffffffffffffffffffffffffffffffffffffffff16600160003373ffffffffffffffffffffffffffffffffffffffff1673ffffffffffffffffffffffffffffffffffffffff16815260200190815260200160002060000160076101000a81548173ffffffffffffffffffffffffffffffffffffffff021916908373ffffffffffffffffffffffffffffffffffffffff1602179055503373ffffffffffffffffffffffffffffffffffffffff16600c60009054906101000a900473ffffffffffffffffffffffffffffffffffffffff1673ffffffffffffffffffffffffffffffffffffffff167f638d6a5e87537cd02bf592bfb8916c30a2140d333b0ce073b4b0f8cc2d298a3f600c60009054906101000a900473ffffffffffffffffffffffffffffffffffffffff16604051610c65919061509e565b60405180910390a36000600c60006101000a81548173ffffffffffffffffffffffffffffffffffffffff021916908373ffffffffffffffffffffffffffffffffffffffff1602179055505b565b60008054600181600116156101000203166002900480601f016020809104026020016040519081016040528092919081815260200182805460018160011615610100020316600290048015610d485780601f10610d1d57610100808354040283529160200191610d48565b820191906000526020600020905b815481529060010190602001808311610d2b57829003601f168201915b505050505081565b60008173ffffffffffffffffffffffffffffffffffffffff163373ffffffffffffffffffffffffffffffffffffffff161415610df057600260008373ffffffffffffffffffffffffffffffffffffffff1673ffffffffffffffffffffffffffffffffffffffff16815260200190815260200160002060000160009054906101000a900473ffffffffffffffffffffffffffffffffffffffff169050610eca565b600260008373ffffffffffffffffffffffffffffffffffffffff1673ffffffffffffffffffffffffffffffffffffffff16815260200190815260200160002060000160009054906101000a900473ffffffffffffffffffffffffffffffffffffffff1673ffffffffffffffffffffffffffffffffffffffff163373ffffffffffffffffffffffffffffffffffffffff161415610e8e57819050610ec9565b6040517f08c379a0000000000000000000000000000000000000000000000000000000008152600401610ec0906152a5565b60405180910390fd5b5b600160003373ffffffffffffffffffffffffffffffffffffffff1673ffffffffffffffffffffffffffffffffffffffff168152602001908152602001600020600001600381819054906101000a900463ffffffff166001900391906101000a81548163ffffffff021916908363ffffffff160217905550600160008273ffffffffffffffffffffffffffffffffffffffff1673ffffffffffffffffffffffffffffffffffffffff168152602001908152602001600020600001600381819054906101000a900463ffffffff1660010191906101000a81548163ffffffff021916908363ffffffff1602179055506000600160003373ffffffffffffffffffffffffffffffffffffffff1673ffffffffffffffffffffffffffffffffffffffff16815260200190815260200160002060000160076101000a81548173ffffffffffffffffffffffffffffffffffffffff021916908373ffffffffffffffffffffffffffffffffffffffff1602179055506000600160008373ffffffffffffffffffffffffffffffffffffffff1673ffffffffffffffffffffffffffffffffffffffff16815260200190815260200160002060000160076101000a81548173ffffffffffffffffffffffffffffffffffffffff021916908373ffffffffffffffffffffffffffffffffffffffff1602179055506110c36146a4565b80600260008573ffffffffffffffffffffffffffffffffffffffff1673ffffffffffffffffffffffffffffffffffffffff16815260200190815260200160002060008201518160000160006101000a81548173ffffffffffffffffffffffffffffffffffffffff021916908373ffffffffffffffffffffffffffffffffffffffff160217905550602082015181600101556040820151816002015560608201518160030160006101000a81548160ff0219169083600381111561118257fe5b021790555060808201518160030160016101000a81548160ff021916908360038111156111ab57fe5b021790555060a0820151816004015560c082015181600501559050508173ffffffffffffffffffffffffffffffffffffffff163373ffffffffffffffffffffffffffffffffffffffff167f3ac6b951e4977329fd26cc368d72393ec0e74b115f5e6657d182a75eb43667a96000808660405161122993929190615195565b60405180910390a3505050565b8073ffffffffffffffffffffffffffffffffffffffff163373ffffffffffffffffffffffffffffffffffffffff1614156112b65781600260008373ffffffffffffffffffffffffffffffffffffffff1673ffffffffffffffffffffffffffffffffffffffff168152602001908152602001600020600101819055506113d4565b600260008273ffffffffffffffffffffffffffffffffffffffff1673ffffffffffffffffffffffffffffffffffffffff16815260200190815260200160002060000160009054906101000a900473ffffffffffffffffffffffffffffffffffffffff1673ffffffffffffffffffffffffffffffffffffffff163373ffffffffffffffffffffffffffffffffffffffff1614156113985781600260008373ffffffffffffffffffffffffffffffffffffffff1673ffffffffffffffffffffffffffffffffffffffff168152602001908152602001600020600201819055506113d3565b6040517f08c379a00000000000000000000000000000000000000000000000000000000081526004016113ca906152a5565b60405180910390fd5b5b6000600260008373ffffffffffffffffffffffffffffffffffffffff1673ffffffffffffffffffffffffffffffffffffffff1681526020019081526020016000206004015414611462578073ffffffffffffffffffffffffffffffffffffffff167f37198fcc7fd6b816a2d208ab394ca4fef0c9813769c325ee8a186ee452c24b7160405160405180910390a25b42600260008373ffffffffffffffffffffffffffffffffffffffff1673ffffffffffffffffffffffffffffffffffffffff168152602001908152602001600020600401819055505050565b600c60009054906101000a900473ffffffffffffffffffffffffffffffffffffffff1681565b60006114dd6146a4565b600260008473ffffffffffffffffffffffffffffffffffffffff1673ffffffffffffffffffffffffffffffffffffffff1681526020019081526020016000206040518060e00160405290816000820160009054906101000a900473ffffffffffffffffffffffffffffffffffffffff1673ffffffffffffffffffffffffffffffffffffffff1673ffffffffffffffffffffffffffffffffffffffff16815260200160018201548152602001600282015481526020016003820160009054906101000a900460ff1660038111156115af57fe5b60038111156115ba57fe5b81526020016003820160019054906101000a900460ff1660038111156115dc57fe5b60038111156115e757fe5b81526020016004820154815260200160058201548152505090508273ffffffffffffffffffffffffffffffffffffffff163373ffffffffffffffffffffffffffffffffffffffff1614158061166c5750806000015173ffffffffffffffffffffffffffffffffffffffff163373ffffffffffffffffffffffffffffffffffffffff1614155b156116ac576040517f08c379a00000000000000000000000000000000000000000000000000000000081526004016116a3906152a5565b60405180910390fd5b60006001028160200151141580156116cc57506000600102816040015114155b1561170c576040517f08c379a0000000000000000000000000000000000000000000000000000000008152600401611703906152c5565b60405180910390fd5b6002603c8260a0015142038161171e57fe5b0411915050919050565b60006117326146a4565b600260008473ffffffffffffffffffffffffffffffffffffffff1673ffffffffffffffffffffffffffffffffffffffff1681526020019081526020016000206040518060e00160405290816000820160009054906101000a900473ffffffffffffffffffffffffffffffffffffffff1673ffffffffffffffffffffffffffffffffffffffff1673ffffffffffffffffffffffffffffffffffffffff16815260200160018201548152602001600282015481526020016003820160009054906101000a900460ff16600381111561180457fe5b600381111561180f57fe5b81526020016003820160019054906101000a900460ff16600381111561183157fe5b600381111561183c57fe5b81526020016004820154815260200160058201548152505090508273ffffffffffffffffffffffffffffffffffffffff163373ffffffffffffffffffffffffffffffffffffffff161415806118c15750806000015173ffffffffffffffffffffffffffffffffffffffff163373ffffffffffffffffffffffffffffffffffffffff1614155b15611901576040517f08c379a00000000000000000000000000000000000000000000000000000000081526004016118f8906152a5565b60405180910390fd5b60006001028160200151148061191e575060006001028160400151145b1561195e576040517f08c379a000000000000000000000000000000000000000000000000000000000815260040161195590615265565b60405180910390fd5b6002603c8260c0015142038161197057fe5b0411915050919050565b600a5481565b6000600954905090565b60008383836040516020016119a193929190615022565b6040516020818303038152906040528051906020012090509392505050565b60095481565b6000600854905090565b6000600a54905090565b7f000000000000000000000000000000000000000000000000000000000000000073ffffffffffffffffffffffffffffffffffffffff163373ffffffffffffffffffffffffffffffffffffffff1614611a68576040517f08c379a0000000000000000000000000000000000000000000000000000000008152600401611a5f90615245565b60405180910390fd5b60006007549050600060078190555060003373ffffffffffffffffffffffffffffffffffffffff1682604051611a9d90615074565b60006040518083038185875af1925050503d8060008114611ada576040519150601f19603f3d011682016040523d82523d6000602084013e611adf565b606091505b5050905080611b23576040517f08c379a0000000000000000000000000000000000000000000000000000000008152600401611b1a906152e5565b60405180910390fd5b5050565b7f000000000000000000000000000000000000000000000000000000000000000060ff16600160003373ffffffffffffffffffffffffffffffffffffffff1673ffffffffffffffffffffffffffffffffffffffff16815260200190815260200160002060000160039054906101000a900463ffffffff1663ffffffff161015611be5576040517f08c379a0000000000000000000000000000000000000000000000000000000008152600401611bdc90615305565b60405180910390fd5b6000600160003373ffffffffffffffffffffffffffffffffffffffff1673ffffffffffffffffffffffffffffffffffffffff16815260200190815260200160002060000160019054906101000a900460ff1660ff16148015611c9957506000600160003373ffffffffffffffffffffffffffffffffffffffff1673ffffffffffffffffffffffffffffffffffffffff16815260200190815260200160002060000160029054906101000a900460ff1660ff16145b8015611cf757506000600160003373ffffffffffffffffffffffffffffffffffffffff1673ffffffffffffffffffffffffffffffffffffffff16815260200190815260200160002060000160009054906101000a900460ff1660ff16145b611d36576040517f08c379a0000000000000000000000000000000000000000000000000000000008152600401611d2d90615285565b60405180910390fd5b7f000000000000000000000000000000000000000000000000000000000000000060ff167f000000000000000000000000000000000000000000000000000000000000000081611d8257fe5b04600160003373ffffffffffffffffffffffffffffffffffffffff1673ffffffffffffffffffffffffffffffffffffffff16815260200190815260200160002060000160039054906101000a900463ffffffff1663ffffffff16026005541015611e21576040517f08c379a0000000000000000000000000000000000000000000000000000000008152600401611e18906153a5565b60405180910390fd5b6000600160003373ffffffffffffffffffffffffffffffffffffffff1673ffffffffffffffffffffffffffffffffffffffff16815260200190815260200160002060000160039054906101000a900463ffffffff1690506000600160003373ffffffffffffffffffffffffffffffffffffffff1673ffffffffffffffffffffffffffffffffffffffff16815260200190815260200160002060000160036101000a81548163ffffffff021916908363ffffffff16021790555060003373ffffffffffffffffffffffffffffffffffffffff167f000000000000000000000000000000000000000000000000000000000000000060ff167f000000000000000000000000000000000000000000000000000000000000000081611f3f57fe5b048363ffffffff1602604051611f5490615089565b60006040518083038185875af1925050503d8060008114611f91576040519150601f19603f3d011682016040523d82523d6000602084013e611f96565b606091505b5050905080611fda576040517f08c379a0000000000000000000000000000000000000000000000000000000008152600401611fd1906153e5565b60405180910390fd5b3373ffffffffffffffffffffffffffffffffffffffff167faa1377f7ec93c239e959efa811f7b8554c036fd7a706c23e58024626a8f3db967f000000000000000000000000000000000000000000000000000000000000000060ff167f00000000000000000000000000000000000000000000000000000000000000008161205e57fe5b048463ffffffff1602604051612074919061543b565b60405180910390a25050565b60085481565b600b5481565b612094614713565b6040518060400160405280600160008573ffffffffffffffffffffffffffffffffffffffff1673ffffffffffffffffffffffffffffffffffffffff16815260200190815260200160002060000160039054906101000a900463ffffffff1663ffffffff168152602001600160008573ffffffffffffffffffffffffffffffffffffffff1673ffffffffffffffffffffffffffffffffffffffff16815260200190815260200160002060000160029054906101000a900460ff16600160008673ffffffffffffffffffffffffffffffffffffffff1673ffffffffffffffffffffffffffffffffffffffff16815260200190815260200160002060000160019054906101000a900460ff16600160008773ffffffffffffffffffffffffffffffffffffffff1673ffffffffffffffffffffffffffffffffffffffff16815260200190815260200160002060000160009054906101000a900460ff16010160ff168152509050919050565b6000600b54905090565b61220e6146a4565b600260008373ffffffffffffffffffffffffffffffffffffffff1673ffffffffffffffffffffffffffffffffffffffff1681526020019081526020016000206040518060e00160405290816000820160009054906101000a900473ffffffffffffffffffffffffffffffffffffffff1673ffffffffffffffffffffffffffffffffffffffff1673ffffffffffffffffffffffffffffffffffffffff16815260200160018201548152602001600282015481526020016003820160009054906101000a900460ff1660038111156122e057fe5b60038111156122eb57fe5b81526020016003820160019054906101000a900460ff16600381111561230d57fe5b600381111561231857fe5b81526020016004820154815260200160058201548152505090508173ffffffffffffffffffffffffffffffffffffffff163373ffffffffffffffffffffffffffffffffffffffff16141561253a5780602001513073ffffffffffffffffffffffffffffffffffffffff166336847b663387876040518463ffffffff167c01000000000000000000000000000000000000000000000000000000000281526004016123c4939291906150b9565b60206040518083038186803b1580156123dc57600080fd5b505afa1580156123f0573d6000803e3d6000fd5b505050506040513d601f19601f820116820180604052508101906124149190614894565b14612454576040517f08c379a000000000000000000000000000000000000000000000000000000000815260040161244b90615385565b60405180910390fd5b83600260008473ffffffffffffffffffffffffffffffffffffffff1673ffffffffffffffffffffffffffffffffffffffff16815260200190815260200160002060030160006101000a81548160ff021916908360038111156124b257fe5b021790555042600260008473ffffffffffffffffffffffffffffffffffffffff1673ffffffffffffffffffffffffffffffffffffffff168152602001908152602001600020600501819055506000600381111561250b57fe5b8160800151600381111561251b57fe5b1461253557612534828260000151868460800151613948565b5b612782565b806000015173ffffffffffffffffffffffffffffffffffffffff163373ffffffffffffffffffffffffffffffffffffffff1614156127465780604001513073ffffffffffffffffffffffffffffffffffffffff166336847b663387876040518463ffffffff167c01000000000000000000000000000000000000000000000000000000000281526004016125d0939291906150b9565b60206040518083038186803b1580156125e857600080fd5b505afa1580156125fc573d6000803e3d6000fd5b505050506040513d601f19601f820116820180604052508101906126209190614894565b14612660576040517f08c379a000000000000000000000000000000000000000000000000000000000815260040161265790615385565b60405180910390fd5b83600260008473ffffffffffffffffffffffffffffffffffffffff1673ffffffffffffffffffffffffffffffffffffffff16815260200190815260200160002060030160016101000a81548160ff021916908360038111156126be57fe5b021790555042600260008473ffffffffffffffffffffffffffffffffffffffff1673ffffffffffffffffffffffffffffffffffffffff168152602001908152602001600020600501819055506000600381111561271757fe5b8160600151600381111561272757fe5b1461274157612740828260000151836060015187613948565b5b612781565b6040517f08c379a0000000000000000000000000000000000000000000000000000000008152600401612778906152a5565b60405180910390fd5b5b50505050565b7f000000000000000000000000000000000000000000000000000000000000000073ffffffffffffffffffffffffffffffffffffffff163373ffffffffffffffffffffffffffffffffffffffff1614612816576040517f08c379a000000000000000000000000000000000000000000000000000000000815260040161280d90615245565b60405180910390fd5b60006006549050600060068190555060003373ffffffffffffffffffffffffffffffffffffffff168260405161284b9061505f565b60006040518083038185875af1925050503d8060008114612888576040519150601f19603f3d011682016040523d82523d6000602084013e61288d565b606091505b50509050806128d1576040517f08c379a00000000000000000000000000000000000000000000000000000000081526004016128c890615365565b60405180910390fd5b5050565b3073ffffffffffffffffffffffffffffffffffffffff166325e1556e826040518263ffffffff167c010000000000000000000000000000000000000000000000000000000002815260040161292a919061509e565b60206040518083038186803b15801561294257600080fd5b505afa158015612956573d6000803e3d6000fd5b505050506040513d601f19601f8201168201806040525081019061297a919061486b565b15612d2c578073ffffffffffffffffffffffffffffffffffffffff163373ffffffffffffffffffffffffffffffffffffffff161415612bd357600160003373ffffffffffffffffffffffffffffffffffffffff1673ffffffffffffffffffffffffffffffffffffffff168152602001908152602001600020600001600381819054906101000a900463ffffffff1660010191906101000a81548163ffffffff021916908363ffffffff16021790555060016000600260008473ffffffffffffffffffffffffffffffffffffffff1673ffffffffffffffffffffffffffffffffffffffff16815260200190815260200160002060000160009054906101000a900473ffffffffffffffffffffffffffffffffffffffff1673ffffffffffffffffffffffffffffffffffffffff1673ffffffffffffffffffffffffffffffffffffffff168152602001908152602001600020600001600381819054906101000a900463ffffffff166001900391906101000a81548163ffffffff021916908363ffffffff160217905550600260008273ffffffffffffffffffffffffffffffffffffffff1673ffffffffffffffffffffffffffffffffffffffff16815260200190815260200160002060000160009054906101000a900473ffffffffffffffffffffffffffffffffffffffff1673ffffffffffffffffffffffffffffffffffffffff163373ffffffffffffffffffffffffffffffffffffffff167f3ac6b951e4977329fd26cc368d72393ec0e74b115f5e6657d182a75eb43667a960008033604051612bc6939291906151cc565b60405180910390a3612d2b565b600160003373ffffffffffffffffffffffffffffffffffffffff1673ffffffffffffffffffffffffffffffffffffffff168152602001908152602001600020600001600381819054906101000a900463ffffffff1660010191906101000a81548163ffffffff021916908363ffffffff160217905550600160008273ffffffffffffffffffffffffffffffffffffffff1673ffffffffffffffffffffffffffffffffffffffff168152602001908152602001600020600001600381819054906101000a900463ffffffff166001900391906101000a81548163ffffffff021916908363ffffffff1602179055508073ffffffffffffffffffffffffffffffffffffffff163373ffffffffffffffffffffffffffffffffffffffff167f3ac6b951e4977329fd26cc368d72393ec0e74b115f5e6657d182a75eb43667a960008033604051612d22939291906151cc565b60405180910390a35b5b50565b7f000000000000000000000000000000000000000000000000000000000000000081565b60075481565b60055481565b60065481565b3073ffffffffffffffffffffffffffffffffffffffff166328362bc7826040518263ffffffff167c0100000000000000000000000000000000000000000000000000000000028152600401612dba919061509e565b60206040518083038186803b158015612dd257600080fd5b505afa158015612de6573d6000803e3d6000fd5b505050506040513d601f19601f82011682018060405250810190612e0a919061486b565b156131bc578073ffffffffffffffffffffffffffffffffffffffff163373ffffffffffffffffffffffffffffffffffffffff16141561306357600160003373ffffffffffffffffffffffffffffffffffffffff1673ffffffffffffffffffffffffffffffffffffffff168152602001908152602001600020600001600381819054906101000a900463ffffffff1660010191906101000a81548163ffffffff021916908363ffffffff16021790555060016000600260008473ffffffffffffffffffffffffffffffffffffffff1673ffffffffffffffffffffffffffffffffffffffff16815260200190815260200160002060000160009054906101000a900473ffffffffffffffffffffffffffffffffffffffff1673ffffffffffffffffffffffffffffffffffffffff1673ffffffffffffffffffffffffffffffffffffffff168152602001908152602001600020600001600381819054906101000a900463ffffffff166001900391906101000a81548163ffffffff021916908363ffffffff160217905550600260008273ffffffffffffffffffffffffffffffffffffffff1673ffffffffffffffffffffffffffffffffffffffff16815260200190815260200160002060000160009054906101000a900473ffffffffffffffffffffffffffffffffffffffff1673ffffffffffffffffffffffffffffffffffffffff163373ffffffffffffffffffffffffffffffffffffffff167f3ac6b951e4977329fd26cc368d72393ec0e74b115f5e6657d182a75eb43667a960008033604051613056939291906151cc565b60405180910390a36131bb565b600160003373ffffffffffffffffffffffffffffffffffffffff1673ffffffffffffffffffffffffffffffffffffffff168152602001908152602001600020600001600381819054906101000a900463ffffffff1660010191906101000a81548163ffffffff021916908363ffffffff160217905550600160008273ffffffffffffffffffffffffffffffffffffffff1673ffffffffffffffffffffffffffffffffffffffff168152602001908152602001600020600001600381819054906101000a900463ffffffff166001900391906101000a81548163ffffffff021916908363ffffffff1602179055508073ffffffffffffffffffffffffffffffffffffffff163373ffffffffffffffffffffffffffffffffffffffff167f3ac6b951e4977329fd26cc368d72393ec0e74b115f5e6657d182a75eb43667a9600080336040516131b2939291906151cc565b60405180910390a35b5b50565b60026020528060005260406000206000915090508060000160009054906101000a900473ffffffffffffffffffffffffffffffffffffffff16908060010154908060020154908060030160009054906101000a900460ff16908060030160019054906101000a900460ff16908060040154908060050154905087565b60647f000000000000000000000000000000000000000000000000000000000000000060ff167f0000000000000000000000000000000000000000000000000000000000000000028161328a57fe5b047f0000000000000000000000000000000000000000000000000000000000000000013410613792576000600160003373ffffffffffffffffffffffffffffffffffffffff1673ffffffffffffffffffffffffffffffffffffffff16815260200190815260200160002060000160039054906101000a900463ffffffff1663ffffffff16141561332557600860008154600101919050819055505b7f000000000000000000000000000000000000000000000000000000000000000060ff16600160003373ffffffffffffffffffffffffffffffffffffffff1673ffffffffffffffffffffffffffffffffffffffff16815260200190815260200160002060000160038282829054906101000a900463ffffffff160192506101000a81548163ffffffff021916908363ffffffff160217905550600160003373ffffffffffffffffffffffffffffffffffffffff1673ffffffffffffffffffffffffffffffffffffffff16815260200190815260200160002060000160009054906101000a900460ff167f00000000000000000000000000000000000000000000000000000000000000000360ff16600960008282540192505081905550600160003373ffffffffffffffffffffffffffffffffffffffff1673ffffffffffffffffffffffffffffffffffffffff16815260200190815260200160002060000160019054906101000a900460ff167f00000000000000000000000000000000000000000000000000000000000000000360ff16600a60008282540192505081905550600160003373ffffffffffffffffffffffffffffffffffffffff1673ffffffffffffffffffffffffffffffffffffffff16815260200190815260200160002060000160029054906101000a900460ff167f00000000000000000000000000000000000000000000000000000000000000000360ff16600b600082825401925050819055507f0000000000000000000000000000000000000000000000000000000000000000600160003373ffffffffffffffffffffffffffffffffffffffff1673ffffffffffffffffffffffffffffffffffffffff16815260200190815260200160002060000160006101000a81548160ff021916908360ff1602179055507f0000000000000000000000000000000000000000000000000000000000000000600160003373ffffffffffffffffffffffffffffffffffffffff1673ffffffffffffffffffffffffffffffffffffffff16815260200190815260200160002060000160016101000a81548160ff021916908360ff1602179055507f0000000000000000000000000000000000000000000000000000000000000000600160003373ffffffffffffffffffffffffffffffffffffffff1673ffffffffffffffffffffffffffffffffffffffff16815260200190815260200160002060000160026101000a81548160ff021916908360ff1602179055507f000000000000000000000000000000000000000000000000000000000000000060056000828254019250508190555060647f000000000000000000000000000000000000000000000000000000000000000060ff167f0000000000000000000000000000000000000000000000000000000000000000028161373a57fe5b046007600082825401925050819055503373ffffffffffffffffffffffffffffffffffffffff167f29d19159c7648a908867641a43fcee2537d7ed2269efb2247320fb53ddc401ea60405160405180910390a26137a3565b346006600082825401925050819055505b565b6137ad614736565b600160003373ffffffffffffffffffffffffffffffffffffffff1673ffffffffffffffffffffffffffffffffffffffff1681526020019081526020016000206040518060a00160405290816000820160009054906101000a900460ff1660ff1660ff1681526020016000820160019054906101000a900460ff1660ff1660ff1681526020016000820160029054906101000a900460ff1660ff1660ff1681526020016000820160039054906101000a900463ffffffff1663ffffffff1663ffffffff1681526020016000820160079054906101000a900473ffffffffffffffffffffffffffffffffffffffff1673ffffffffffffffffffffffffffffffffffffffff1673ffffffffffffffffffffffffffffffffffffffff1681525050905090565b600060647f000000000000000000000000000000000000000000000000000000000000000060ff167f0000000000000000000000000000000000000000000000000000000000000000028161392057fe5b047f000000000000000000000000000000000000000000000000000000000000000001905090565b61395284836142c5565b613abb57600160008473ffffffffffffffffffffffffffffffffffffffff1673ffffffffffffffffffffffffffffffffffffffff168152602001908152602001600020600001600381819054906101000a900463ffffffff1660010191906101000a81548163ffffffff021916908363ffffffff160217905550600160008573ffffffffffffffffffffffffffffffffffffffff1673ffffffffffffffffffffffffffffffffffffffff168152602001908152602001600020600001600381819054906101000a900463ffffffff166001900391906101000a81548163ffffffff021916908363ffffffff160217905550613a4d838261447b565b8273ffffffffffffffffffffffffffffffffffffffff168473ffffffffffffffffffffffffffffffffffffffff167f3ac6b951e4977329fd26cc368d72393ec0e74b115f5e6657d182a75eb43667a9848487604051613aae93929190615195565b60405180910390a3613fd8565b613ac583826142c5565b613c2e57600160008573ffffffffffffffffffffffffffffffffffffffff1673ffffffffffffffffffffffffffffffffffffffff168152602001908152602001600020600001600381819054906101000a900463ffffffff1660010191906101000a81548163ffffffff021916908363ffffffff160217905550600160008473ffffffffffffffffffffffffffffffffffffffff1673ffffffffffffffffffffffffffffffffffffffff168152602001908152602001600020600001600381819054906101000a900463ffffffff166001900391906101000a81548163ffffffff021916908363ffffffff160217905550613bc0848361447b565b8273ffffffffffffffffffffffffffffffffffffffff168473ffffffffffffffffffffffffffffffffffffffff167f3ac6b951e4977329fd26cc368d72393ec0e74b115f5e6657d182a75eb43667a9848488604051613c2193929190615195565b60405180910390a3613fd7565b806003811115613c3a57fe5b826003811115613c4657fe5b1415613cbb578273ffffffffffffffffffffffffffffffffffffffff168473ffffffffffffffffffffffffffffffffffffffff167f3ac6b951e4977329fd26cc368d72393ec0e74b115f5e6657d182a75eb43667a984846000604051613cae939291906151cc565b60405180910390a3613fc2565b806003811115613cc757fe5b60036000846003811115613cd757fe5b6003811115613ce257fe5b815260200190815260200160002060009054906101000a900460ff166003811115613d0957fe5b1415613e6a57600160008573ffffffffffffffffffffffffffffffffffffffff1673ffffffffffffffffffffffffffffffffffffffff168152602001908152602001600020600001600381819054906101000a900463ffffffff1660010191906101000a81548163ffffffff021916908363ffffffff160217905550600160008473ffffffffffffffffffffffffffffffffffffffff1673ffffffffffffffffffffffffffffffffffffffff168152602001908152602001600020600001600381819054906101000a900463ffffffff166001900391906101000a81548163ffffffff021916908363ffffffff1602179055508273ffffffffffffffffffffffffffffffffffffffff168473ffffffffffffffffffffffffffffffffffffffff167f3ac6b951e4977329fd26cc368d72393ec0e74b115f5e6657d182a75eb43667a9848488604051613e5d93929190615195565b60405180910390a3613fc1565b600160008473ffffffffffffffffffffffffffffffffffffffff1673ffffffffffffffffffffffffffffffffffffffff168152602001908152602001600020600001600381819054906101000a900463ffffffff1660010191906101000a81548163ffffffff021916908363ffffffff160217905550600160008573ffffffffffffffffffffffffffffffffffffffff1673ffffffffffffffffffffffffffffffffffffffff168152602001908152602001600020600001600381819054906101000a900463ffffffff166001900391906101000a81548163ffffffff021916908363ffffffff1602179055508273ffffffffffffffffffffffffffffffffffffffff168473ffffffffffffffffffffffffffffffffffffffff167f3ac6b951e4977329fd26cc368d72393ec0e74b115f5e6657d182a75eb43667a9848487604051613fb893929190615195565b60405180910390a35b5b613fcc848361447b565b613fd6838261447b565b5b5b6000600160008673ffffffffffffffffffffffffffffffffffffffff1673ffffffffffffffffffffffffffffffffffffffff16815260200190815260200160002060000160039054906101000a900463ffffffff1663ffffffff16148061409757506000600160008573ffffffffffffffffffffffffffffffffffffffff1673ffffffffffffffffffffffffffffffffffffffff16815260200190815260200160002060000160039054906101000a900463ffffffff1663ffffffff16145b156140ae5760086000815460019003919050819055505b6000600160008673ffffffffffffffffffffffffffffffffffffffff1673ffffffffffffffffffffffffffffffffffffffff16815260200190815260200160002060000160076101000a81548173ffffffffffffffffffffffffffffffffffffffff021916908373ffffffffffffffffffffffffffffffffffffffff1602179055506000600160008573ffffffffffffffffffffffffffffffffffffffff1673ffffffffffffffffffffffffffffffffffffffff16815260200190815260200160002060000160076101000a81548173ffffffffffffffffffffffffffffffffffffffff021916908373ffffffffffffffffffffffffffffffffffffffff1602179055506141ba6146a4565b80600260008773ffffffffffffffffffffffffffffffffffffffff1673ffffffffffffffffffffffffffffffffffffffff16815260200190815260200160002060008201518160000160006101000a81548173ffffffffffffffffffffffffffffffffffffffff021916908373ffffffffffffffffffffffffffffffffffffffff160217905550602082015181600101556040820151816002015560608201518160030160006101000a81548160ff0219169083600381111561427957fe5b021790555060808201518160030160016101000a81548160ff021916908360038111156142a257fe5b021790555060a0820151816004015560c082015181600501559050505050505050565b6000600160038111156142d457fe5b8260038111156142e057fe5b1415614343576000600160008573ffffffffffffffffffffffffffffffffffffffff1673ffffffffffffffffffffffffffffffffffffffff16815260200190815260200160002060000160009054906101000a900460ff1660ff16119050614475565b6002600381111561435057fe5b82600381111561435c57fe5b14156143bf576000600160008573ffffffffffffffffffffffffffffffffffffffff1673ffffffffffffffffffffffffffffffffffffffff16815260200190815260200160002060000160019054906101000a900460ff1660ff16119050614475565b6003808111156143cb57fe5b8260038111156143d757fe5b141561443a576000600160008573ffffffffffffffffffffffffffffffffffffffff1673ffffffffffffffffffffffffffffffffffffffff16815260200190815260200160002060000160029054906101000a900460ff1660ff16119050614475565b6040517f08c379a000000000000000000000000000000000000000000000000000000000815260040161446c90615345565b60405180910390fd5b92915050565b6001600381111561448857fe5b81600381111561449457fe5b141561451e57600160008373ffffffffffffffffffffffffffffffffffffffff1673ffffffffffffffffffffffffffffffffffffffff168152602001908152602001600020600001600081819054906101000a900460ff166001900391906101000a81548160ff021916908360ff16021790555060096000815460019003919050819055506146a0565b6002600381111561452b57fe5b81600381111561453757fe5b14156145c157600160008373ffffffffffffffffffffffffffffffffffffffff1673ffffffffffffffffffffffffffffffffffffffff168152602001908152602001600020600001600181819054906101000a900460ff166001900391906101000a81548160ff021916908360ff160217905550600a60008154600190039190508190555061469f565b6003808111156145cd57fe5b8160038111156145d957fe5b141561466357600160008373ffffffffffffffffffffffffffffffffffffffff1673ffffffffffffffffffffffffffffffffffffffff168152602001908152602001600020600001600281819054906101000a900460ff166001900391906101000a81548160ff021916908360ff160217905550600b60008154600190039190508190555061469e565b6040517f08c379a000000000000000000000000000000000000000000000000000000000815260040161469590615345565b60405180910390fd5b5b5b5050565b6040518060e00160405280600073ffffffffffffffffffffffffffffffffffffffff1681526020016000801916815260200160008019168152602001600060038111156146ed57fe5b8152602001600060038111156146ff57fe5b815260200160008152602001600081525090565b6040518060400160405280600063ffffffff168152602001600060ff1681525090565b6040518060a00160405280600060ff168152602001600060ff168152602001600060ff168152602001600063ffffffff168152602001600073ffffffffffffffffffffffffffffffffffffffff1681525090565b60008135905061479981615626565b92915050565b6000815190506147ae8161563d565b92915050565b6000813590506147c381615654565b92915050565b6000815190506147d881615654565b92915050565b6000813590506147ed8161566b565b92915050565b60006020828403121561480557600080fd5b60006148138482850161478a565b91505092915050565b60008060006060848603121561483157600080fd5b600061483f8682870161478a565b9350506020614850868287016147de565b9250506040614861868287016147b4565b9150509250925092565b60006020828403121561487d57600080fd5b600061488b8482850161479f565b91505092915050565b6000602082840312156148a657600080fd5b60006148b4848285016147c9565b91505092915050565b600080604083850312156148d057600080fd5b60006148de858286016147b4565b92505060206148ef8582860161478a565b9150509250929050565b60008060006060848603121561490e57600080fd5b600061491c868287016147de565b935050602061492d868287016147b4565b925050604061493e8682870161478a565b9150509250925092565b614951816154ff565b82525050565b6149608161547d565b82525050565b61496f8161547d565b82525050565b6149866149818261547d565b61557a565b82525050565b6149958161548f565b82525050565b6149a48161549b565b82525050565b6149bb6149b68261549b565b61558c565b82525050565b6149ca81615511565b82525050565b6149e16149dc82615511565b6155a8565b82525050565b60006149f282615456565b6149fc818561546c565b9350614a0c818560208601615547565b614a15816155bc565b840191505092915050565b6000614a2d601d8361546c565b91507f596f752061726520616c726561647920696e207468652071756575652e0000006000830152602082019050919050565b6000614a6d60228361546c565b91507f4f6e6c79206f776e65722063616e2063616c6c20746869732066756e6374696f60008301527f6e2e0000000000000000000000000000000000000000000000000000000000006020830152604082019050919050565b6000614ad3601b8361546c565b91507f4f6e6520706c61796572206469646e277420706c6179207965742e00000000006000830152602082019050919050565b6000614b1360248361546c565b91507f596f7520646964206e6f7420706c617920616c6c20796f75722063617264732060008301527f7965742e000000000000000000000000000000000000000000000000000000006020830152604082019050919050565b6000614b79600c83615461565b91507f636c65616e75702073696e6b00000000000000000000000000000000000000006000830152600c82019050919050565b6000614bb960208361546c565b91507f596f7520646f206e6f742062656c6f6e6720746f2074686973206d617463682e6000830152602082019050919050565b6000614bf9601c8361546c565b91507f426f746820706c617965727320616c726561647920706c617965642e000000006000830152602082019050919050565b6000614c3960148361546c565b91507f77697468647261772046656573206661696c65640000000000000000000000006000830152602082019050919050565b6000614c79600d83615461565b91507f77697468647261772066656573000000000000000000000000000000000000006000830152600d82019050919050565b6000614cb9603b8361546c565b91507f596f7520646964206e6f74206d65657420746865207265717569726564204e6560008301527f6e20666f72206c656176696e672074686520436f6c697365756d2e00000000006020830152604082019050919050565b6000614d1f601b8361546c565b91507f596f752061726520616c726561647920696e2061206d617463682e00000000006000830152602082019050919050565b6000614d5f600f8361546c565b91507f57726f6e6720746563686e6971756500000000000000000000000000000000006000830152602082019050919050565b6000614d9f60148361546c565b91507f77697468647261772053696e6b206661696c65640000000000000000000000006000830152602082019050919050565b6000614ddf600e8361546c565b91507f696e76616c696420616374696f6e0000000000000000000000000000000000006000830152602082019050919050565b6000614e1f601383615461565b91507f456e6a6f7920796f7572207265776172647321000000000000000000000000006000830152601382019050919050565b6000614e5f60258361546c565b91507f54686520436f6c697365756d206973206f7574206f66206d6f6e657920666f7260008301527f206e6f772e0000000000000000000000000000000000000000000000000000006020830152604082019050919050565b6000614ec5602c8361546c565b91507f596f7520646f206e6f74206861766520656e6f756768204e656e20746f20737460008301527f6172742061206d617463682e00000000000000000000000000000000000000006020830152604082019050919050565b6000614f2b600f8361546c565b91507f7769746864726177206661696c656400000000000000000000000000000000006000830152602082019050919050565b604082016000820151614f746000850182615004565b506020820151614f876020850182615013565b50505050565b60a082016000820151614fa36000850182615013565b506020820151614fb66020850182615013565b506040820151614fc96040850182615013565b506060820151614fdc6060850182615004565b506080820151614fef6080850182614957565b50505050565b614ffe816154d8565b82525050565b61500d816154e2565b82525050565b61501c816154f2565b82525050565b600061502e8286614975565b60148201915061503e82856149d0565b60018201915061504e82846149aa565b602082019150819050949350505050565b600061506a82614b6c565b9150819050919050565b600061507f82614c6c565b9150819050919050565b600061509482614e12565b9150819050919050565b60006020820190506150b36000830184614966565b92915050565b60006060820190506150ce6000830186614948565b6150db60208301856149c1565b6150e8604083018461499b565b949350505050565b600060e082019050615105600083018a614966565b615112602083018961499b565b61511f604083018861499b565b61512c60608301876149c1565b61513960808301866149c1565b61514660a0830185614ff5565b61515360c0830184614ff5565b98975050505050505050565b6000602082019050615174600083018461498c565b92915050565b600060208201905061518f600083018461499b565b92915050565b60006060820190506151aa60008301866149c1565b6151b760208301856149c1565b6151c46040830184614966565b949350505050565b60006060820190506151e160008301866149c1565b6151ee60208301856149c1565b6151fb6040830184614948565b949350505050565b6000602082019050818103600083015261521d81846149e7565b905092915050565b6000602082019050818103600083015261523e81614a20565b9050919050565b6000602082019050818103600083015261525e81614a60565b9050919050565b6000602082019050818103600083015261527e81614ac6565b9050919050565b6000602082019050818103600083015261529e81614b06565b9050919050565b600060208201905081810360008301526152be81614bac565b9050919050565b600060208201905081810360008301526152de81614bec565b9050919050565b600060208201905081810360008301526152fe81614c2c565b9050919050565b6000602082019050818103600083015261531e81614cac565b9050919050565b6000602082019050818103600083015261533e81614d12565b9050919050565b6000602082019050818103600083015261535e81614d52565b9050919050565b6000602082019050818103600083015261537e81614d92565b9050919050565b6000602082019050818103600083015261539e81614dd2565b9050919050565b600060208201905081810360008301526153be81614e52565b9050919050565b600060208201905081810360008301526153de81614eb8565b9050919050565b600060208201905081810360008301526153fe81614f1e565b9050919050565b600060408201905061541a6000830184614f5e565b92915050565b600060a0820190506154356000830184614f8d565b92915050565b60006020820190506154506000830184614ff5565b92915050565b600081519050919050565b600081905092915050565b600082825260208201905092915050565b6000615488826154b8565b9050919050565b60008115159050919050565b6000819050919050565b60008190506154b382615612565b919050565b600073ffffffffffffffffffffffffffffffffffffffff82169050919050565b6000819050919050565b600063ffffffff82169050919050565b600060ff82169050919050565b600061550a82615523565b9050919050565b600061551c826154a5565b9050919050565b600061552e82615535565b9050919050565b6000615540826154b8565b9050919050565b60005b8381101561556557808201518184015260208101905061554a565b83811115615574576000848401525b50505050565b600061558582615596565b9050919050565b6000819050919050565b60006155a1826155f9565b9050919050565b60006155b3826155cd565b9050919050565bfe5b6000601f19601f8301169050919050565b60007f010000000000000000000000000000000000000000000000000000000000000082029050919050565b60006c0100000000000000000000000082029050919050565b60048110615623576156226155ba565b5b50565b61562f8161547d565b811461563a57600080fd5b50565b6156468161548f565b811461565157600080fd5b50565b61565d8161549b565b811461566857600080fd5b50565b6004811061567857600080fd5b5056fea264697066735822122043deb7394780a5729cff7fdf177a401afc40beb2f0e3d2f0758790018ca79d4c64736f6c63430007040033",
  "immutableReferences": {
    "1308": [
      {
        "length": 32,
        "start": 6620
      },
      {
        "length": 32,
        "start": 10122
      },
      {
        "length": 32,
        "start": 11569
      }
    ],
    "1338": [
      {
        "length": 32,
        "start": 7516
      },
      {
        "length": 32,
        "start": 7961
      },
      {
        "length": 32,
        "start": 8248
      },
      {
        "length": 32,
        "start": 12899
      },
      {
        "length": 32,
        "start": 12941
      },
      {
        "length": 32,
        "start": 14013
      },
      {
        "length": 32,
        "start": 14099
      },
      {
        "length": 32,
        "start": 14585
      },
      {
        "length": 32,
        "start": 14627
      }
    ],
    "1340": [
      {
        "length": 32,
        "start": 6953
      }
    ],
    "1342": [
      {
        "length": 32,
        "start": 12863
      },
      {
        "length": 32,
        "start": 14063
      },
      {
        "length": 32,
        "start": 14549
      }
    ],
    "1344": [
      {
        "length": 32,
        "start": 7480
      },
      {
        "length": 32,
        "start": 7925
      },
      {
        "length": 32,
        "start": 8212
      },
      {
        "length": 32,
        "start": 13095
      }
    ],
    "1346": [
      {
        "length": 32,
        "start": 13328
      },
      {
        "length": 32,
        "start": 13460
      },
      {
        "length": 32,
        "start": 13592
      },
      {
        "length": 32,
        "start": 13644
      },
      {
        "length": 32,
        "start": 13767
      },
      {
        "length": 32,
        "start": 13890
      }
    ]
  },
  "source": "pragma solidity ^0.7.4;\r\npragma experimental ABIEncoderV2;\r\n\r\nimport \"./JaJanken.sol\";\r\nimport \"./JaJankenGame.sol\";\r\n\r\n// SPDX-License-Identifier: GLWTPL\r\ncontract JaJankenColiseum is JaJankenGame {\r\n    /**\r\n     * _ticketCost in wei\r\n     */\r\n    constructor(uint256 _ticketCost) JaJankenGame(\"The JaJanken Coliseum\", _ticketCost, 3, 3, 3, 4) {}\r\n\r\n    address public queued;\r\n\r\n    event PlayerJoin(\r\n        address indexed p\r\n    );\r\n\r\n    receive() external payable {\r\n    }\r\n\r\n    function joinGame() external payable override(JaJanken) {\r\n        if (msg.value >= (ticketCost + (ticketCost * entranceFee / 100))) {\r\n            if (players[msg.sender].nen == 0) {\r\n                ++alivePlayers;\r\n            }\r\n            players[msg.sender].nen += startNen;\r\n            totalGuu += (startTechniques - players[msg.sender].guu);\r\n            totalPaa += (startTechniques - players[msg.sender].paa);\r\n            totalChi += (startTechniques - players[msg.sender].chi);\r\n            players[msg.sender].guu = startTechniques;\r\n            players[msg.sender].paa = startTechniques;\r\n            players[msg.sender].chi = startTechniques;\r\n            balance += ticketCost;\r\n            fees += ticketCost * entranceFee / 100;\r\n            emit PlayerJoin({p : msg.sender});\r\n        } else {\r\n            sink += msg.value;\r\n        }\r\n    }\r\n\r\n    function joinMatch() external override(JaJanken) {\r\n        require(queued != msg.sender, \"You are already in the queue.\");\r\n        require(players[msg.sender].inMatch == address(0), \"You are already in a match.\");\r\n        require(players[msg.sender].nen > 0, \"You do not have enough Nen to start a match.\");\r\n        if (queued == address(0)) {\r\n            queued = msg.sender;\r\n        } else {\r\n            matches[queued].p2 = msg.sender;\r\n            players[queued].inMatch = queued;\r\n            players[msg.sender].inMatch = queued;\r\n            emit MatchStart({matchId : queued, p1 : queued, p2 : msg.sender});\r\n            queued = address(0);\r\n        }\r\n    }\r\n\r\n    function playMatch(bytes32 _commitment, address _matchId) external override(JaJanken) {\r\n        if (msg.sender == _matchId) {\r\n            matches[_matchId].p1Hidden = _commitment;\r\n        } else if (msg.sender == matches[_matchId].p2) {\r\n            matches[_matchId].p2Hidden = _commitment;\r\n        } else {\r\n            revert(\"You do not belong to this match.\");\r\n        }\r\n        if (matches[_matchId].playTime != 0) {\r\n            emit MatchPlayed(_matchId);\r\n        }\r\n        matches[_matchId].playTime = block.timestamp;\r\n    }\r\n\r\n    function forfeitMatch(address _matchId) external override(JaJanken) {\r\n        address _p2;\r\n\r\n        if (msg.sender == _matchId) {\r\n            _p2 = matches[_matchId].p2;\r\n        } else if (msg.sender == matches[_matchId].p2) {\r\n            _p2 = _matchId;\r\n        } else {\r\n            revert(\"You do not belong to this match.\");\r\n        }\r\n\r\n        --players[msg.sender].nen;\r\n        ++players[_p2].nen;\r\n        players[msg.sender].inMatch = address(0);\r\n        players[_p2].inMatch = address(0);\r\n        Match memory newMatch;\r\n        matches[_matchId] = newMatch;\r\n        emit MatchEnd({p1 : msg.sender, p2 : _p2, p1Played : Technique.None, p2Played : Technique.None, winner : _p2});\r\n    }\r\n\r\n    function revealMatch(Technique _action, bytes32 _revealKey, address _matchId) external override(JaJanken) {\r\n        Match memory _match = matches[_matchId];\r\n\r\n        if (msg.sender == _matchId) {\r\n            require(this.encodeAction(msg.sender, _action, _revealKey) == _match.p1Hidden, \"invalid action\");\r\n            matches[_matchId].p1Revealed = _action;\r\n            matches[_matchId].revealTime = block.timestamp;\r\n            if (_match.p2Revealed != Technique.None) {\r\n                executeMatch(_matchId, _match.p2, _action, _match.p2Revealed);\r\n            }\r\n        } else if (msg.sender == _match.p2) {\r\n            require(this.encodeAction(msg.sender, _action, _revealKey) == _match.p2Hidden, \"invalid action\");\r\n            matches[_matchId].p2Revealed = _action;\r\n            matches[_matchId].revealTime = block.timestamp;\r\n            if (_match.p1Revealed != Technique.None) {\r\n                executeMatch(_matchId, _match.p2, _match.p1Revealed, _action);\r\n            }\r\n        } else {\r\n            revert(\"You do not belong to this match.\");\r\n        }\r\n    }\r\n\r\n    function executeMatch(address _p1, address _p2, Technique _p1t, Technique _p2t) internal {\r\n        if (!canUseTechnique(_p1, _p1t)) {\r\n            ++players[_p2].nen;\r\n            --players[_p1].nen;\r\n            useTechnique(_p2, _p2t);\r\n            emit MatchEnd({p1 : _p1, p2 : _p2, p1Played : _p1t, p2Played : _p2t, winner : _p2});\r\n        }\r\n        else if (!canUseTechnique(_p2, _p2t)) {\r\n            ++players[_p1].nen;\r\n            --players[_p2].nen;\r\n            useTechnique(_p1, _p1t);\r\n            emit MatchEnd({p1 : _p1, p2 : _p2, p1Played : _p1t, p2Played : _p2t, winner : _p1});\r\n        } else {\r\n            if (_p1t == _p2t) {\r\n                //draw\r\n                emit MatchEnd({p1 : _p1, p2 : _p2, p1Played : _p1t, p2Played : _p2t, winner : address(0)});\r\n            } else if (techniques[_p1t] == _p2t) {\r\n                ++players[_p1].nen;\r\n                --players[_p2].nen;\r\n                emit MatchEnd({p1 : _p1, p2 : _p2, p1Played : _p1t, p2Played : _p2t, winner : _p1});\r\n            } else {\r\n                ++players[_p2].nen;\r\n                --players[_p1].nen;\r\n                emit MatchEnd({p1 : _p1, p2 : _p2, p1Played : _p1t, p2Played : _p2t, winner : _p2});\r\n            }\r\n            useTechnique(_p1, _p1t);\r\n            useTechnique(_p2, _p2t);\r\n        }\r\n        if (players[_p1].nen == 0 || players[_p2].nen == 0) {\r\n            --alivePlayers;\r\n        }\r\n        players[_p1].inMatch = address(0);\r\n        players[_p2].inMatch = address(0);\r\n        Match memory newMatch;\r\n        matches[_p1] = newMatch;\r\n    }\r\n\r\n    function waitingForOpponentToPlay(address _matchId) external view override(JaJanken) returns (bool) {\r\n        Match memory _match = matches[_matchId];\r\n\r\n        if (msg.sender != _matchId || msg.sender != _match.p2) {\r\n            revert(\"You do not belong to this match.\");\r\n        }\r\n        if (_match.p1Hidden != 0 && _match.p2Hidden != 0) {\r\n            revert(\"Both players already played.\");\r\n        }\r\n        return (block.timestamp - _match.playTime) / 60 > 2;\r\n    }\r\n\r\n    function waitingForOpponentToReveal(address _matchId) external view override(JaJanken) returns (bool) {\r\n        Match memory _match = matches[_matchId];\r\n\r\n        if (msg.sender != _matchId || msg.sender != _match.p2) {\r\n            revert(\"You do not belong to this match.\");\r\n        }\r\n        if (_match.p1Hidden == 0 || _match.p2Hidden == 0) {\r\n            revert(\"One player didn't play yet.\");\r\n        }\r\n        return (block.timestamp - _match.revealTime) / 60 > 2;\r\n    }\r\n\r\n    function skipAfkDuringPlay(address _matchId) external override(JaJanken) {\r\n        if (this.waitingForOpponentToPlay(_matchId)) {\r\n            if (msg.sender == _matchId) {\r\n                ++players[msg.sender].nen;\r\n                --players[matches[_matchId].p2].nen;\r\n                emit MatchEnd({p1 : msg.sender, p2 : matches[_matchId].p2, p1Played : Technique.None, p2Played : Technique.None, winner : msg.sender});\r\n            } else {\r\n                ++players[msg.sender].nen;\r\n                --players[_matchId].nen;\r\n                emit MatchEnd({p1 : msg.sender, p2 : _matchId, p1Played : Technique.None, p2Played : Technique.None, winner : msg.sender});\r\n            }\r\n        }\r\n    }\r\n\r\n    function skipAfkDuringReveal(address _matchId) external override(JaJanken) {\r\n        if (this.waitingForOpponentToReveal(_matchId)) {\r\n            if (msg.sender == _matchId) {\r\n                ++players[msg.sender].nen;\r\n                --players[matches[_matchId].p2].nen;\r\n                emit MatchEnd({p1 : msg.sender, p2 : matches[_matchId].p2, p1Played : Technique.None, p2Played : Technique.None, winner : msg.sender});\r\n            } else {\r\n                ++players[msg.sender].nen;\r\n                --players[_matchId].nen;\r\n                emit MatchEnd({p1 : msg.sender, p2 : _matchId, p1Played : Technique.None, p2Played : Technique.None, winner : msg.sender});\r\n            }\r\n        }\r\n    }\r\n\r\n\r\n    /**\r\n     * Withdraw gains from the Game\r\n     * only available at the end of the Game, do nothing otherwise\r\n     */\r\n    function withdrawGains() external override(JaJanken) {\r\n        require(players[msg.sender].nen >= minimumNenToEarn, \"You did not meet the required Nen for leaving the Coliseum.\");\r\n        require(players[msg.sender].paa == 0 && players[msg.sender].chi == 0 && players[msg.sender].guu == 0, \"You did not play all your cards yet.\");\r\n        require(balance >= players[msg.sender].nen * (ticketCost / startNen), \"The Coliseum is out of money for now.\");\r\n        uint32 nen = players[msg.sender].nen;\r\n        players[msg.sender].nen = 0;\r\n        (bool success,) = msg.sender.call{value : nen * (ticketCost / startNen)}(\"Enjoy your rewards!\");\r\n        require(success, \"withdraw failed\");\r\n        emit WithdrawRewards({player : msg.sender, amount : nen * (ticketCost / startNen)});\r\n    }\r\n\r\n}",
  "sourcePath": "C:\\Users\\KevinGeorgesAndres\\Documents\\projects\\perso\\jajanken-evm\\contracts\\JaJankenColiseum.sol",
  "compiler": {
    "name": "solc",
    "version": "0.7.4+commit.3f05b770.Emscripten.clang"
  },
  "schemaVersion": "3.4.3",
  "updatedAt": "2021-11-26T03:39:49.671Z",
  "networkType": "ethereum",
  "devdoc": {
    "kind": "dev",
    "methods": {},
    "version": 1
  },
  "userdoc": {
    "kind": "user",
    "methods": {
      "cleanupSink()": {
        "notice": "Cleanup sink only available for game owner"
      },
      "constructor": {
        "notice": "_ticketCost in wei"
      },
      "encodeAction(address,uint8,bytes32)": {
        "notice": "Encode the specified technique Should be used to generate a hashed value in order to commit secretly the player action for playMatch"
      },
      "forfeitMatch(address)": {
        "notice": "The player decide to forfeit and quit the specified match No card will be used from either players -> Should emit a MatchEnd event"
      },
      "getPlayer(address)": {
        "notice": "Get the player profile stat for the current Game"
      },
      "getProfile()": {
        "notice": "Get your profile stat for the current Game"
      },
      "getTotalChi()": {
        "notice": "Get the number of Chi from alive players"
      },
      "getTotalGuu()": {
        "notice": "Get the number of Guu from alive players"
      },
      "getTotalPaa()": {
        "notice": "Get the number of Paa from alive players"
      },
      "getTotalPlayers()": {
        "notice": "Get the number of player alive in the game"
      },
      "joinGame()": {
        "notice": "Join a game, the caller must pay the required entrance ticket amount in ETH"
      },
      "joinMatch()": {
        "notice": "Join a queue in order to find an opponent to fight against -> Should emit a StartMatch event when an opponent is found"
      },
      "playMatch(bytes32,address)": {
        "notice": "Commit the player's action for his current match The action(Technique) must be hashed with a bytes32 key. so it can be saved with his hidden form. -> Should emit a MatchPlayed event when the last player of the Match commit his play"
      },
      "revealMatch(uint8,bytes32,address)": {
        "notice": "Reveal the player's action for his current match It is required to send the player's action with the key used to hash it previously for platMatch method -> Should emit a MatchEnd event when the last player of the Match reveal his play"
      },
      "skipAfkDuringPlay(address)": {
        "notice": "Kick your opponent from the match if conditions are met. You will win this match by default"
      },
      "skipAfkDuringReveal(address)": {
        "notice": "Kick your opponent from the match if conditions are met. You will win this match by default"
      },
      "waitingForOpponentToPlay(address)": {
        "notice": "This method will check if your opponent didn't play yet If this method return true, you will be allowed to call skipAfkDuringPlay to pass the turn of your opponent and win the match"
      },
      "waitingForOpponentToReveal(address)": {
        "notice": "This method will check if your opponent didn't reveal his play yet If this method return true, you will be allowed to call skipAfkDuringReveal to pass the turn of your opponent and win the match"
      },
      "withdrawFees()": {
        "notice": "Withdraw fees earning from the Game only available for game owner"
      },
      "withdrawGains()": {
        "notice": "Withdraw gains from the Game only available at the end of the Game, do nothing otherwise"
      }
    },
    "version": 1
  }
}