{
  "_format": "hh-sol-artifact-1",
  "contractName": "JaJankenGame",
  "sourceName": "contracts/JaJankenGame.sol",
  "abi": [
    {
      "inputs": [
        {
          "internalType": "string",
          "name": "_name",
          "type": "string"
        },
        {
          "internalType": "address",
          "name": "_signer",
          "type": "address"
        },
        {
          "internalType": "uint256",
          "name": "_soulCost",
          "type": "uint256"
        },
        {
          "internalType": "uint8",
          "name": "_entranceFee",
          "type": "uint8"
        },
        {
          "internalType": "uint8",
          "name": "_minimumSoulToEarn",
          "type": "uint8"
        },
        {
          "internalType": "uint8",
          "name": "_startSoul",
          "type": "uint8"
        },
        {
          "internalType": "uint8",
          "name": "_startTechniques",
          "type": "uint8"
        }
      ],
      "stateMutability": "nonpayable",
      "type": "constructor"
    },
    {
      "anonymous": false,
      "inputs": [
        {
          "indexed": true,
          "internalType": "address",
          "name": "p1",
          "type": "address"
        },
        {
          "indexed": true,
          "internalType": "address",
          "name": "p2",
          "type": "address"
        },
        {
          "indexed": false,
          "internalType": "enum JaJanken.Technique",
          "name": "p1Played",
          "type": "uint8"
        },
        {
          "indexed": false,
          "internalType": "enum JaJanken.Technique",
          "name": "p2Played",
          "type": "uint8"
        },
        {
          "indexed": false,
          "internalType": "address",
          "name": "winner",
          "type": "address"
        }
      ],
      "name": "MatchEnd",
      "type": "event"
    },
    {
      "anonymous": false,
      "inputs": [
        {
          "indexed": true,
          "internalType": "address",
          "name": "matchId",
          "type": "address"
        }
      ],
      "name": "MatchPlayed",
      "type": "event"
    },
    {
      "anonymous": false,
      "inputs": [
        {
          "indexed": true,
          "internalType": "address",
          "name": "p",
          "type": "address"
        }
      ],
      "name": "PlayerJoin",
      "type": "event"
    },
    {
      "anonymous": false,
      "inputs": [
        {
          "indexed": true,
          "internalType": "address",
          "name": "player",
          "type": "address"
        },
        {
          "indexed": false,
          "internalType": "uint256",
          "name": "amount",
          "type": "uint256"
        }
      ],
      "name": "WithdrawRewards",
      "type": "event"
    },
    {
      "inputs": [
        {
          "internalType": "address",
          "name": "_yourAddress",
          "type": "address"
        },
        {
          "internalType": "enum JaJanken.Technique",
          "name": "_action",
          "type": "uint8"
        },
        {
          "internalType": "bytes32",
          "name": "_revealKey",
          "type": "bytes32"
        }
      ],
      "name": "encodeAction",
      "outputs": [
        {
          "internalType": "bytes32",
          "name": "",
          "type": "bytes32"
        }
      ],
      "stateMutability": "pure",
      "type": "function"
    },
    {
      "inputs": [],
      "name": "entranceTicketCost",
      "outputs": [
        {
          "internalType": "uint256",
          "name": "",
          "type": "uint256"
        }
      ],
      "stateMutability": "view",
      "type": "function"
    },
    {
      "inputs": [
        {
          "internalType": "address",
          "name": "_player",
          "type": "address"
        }
      ],
      "name": "getPlayer",
      "outputs": [
        {
          "components": [
            {
              "internalType": "uint8",
              "name": "red",
              "type": "uint8"
            },
            {
              "internalType": "uint8",
              "name": "green",
              "type": "uint8"
            },
            {
              "internalType": "uint8",
              "name": "blue",
              "type": "uint8"
            },
            {
              "internalType": "uint32",
              "name": "soul",
              "type": "uint32"
            }
          ],
          "internalType": "struct JaJanken.Player",
          "name": "",
          "type": "tuple"
        }
      ],
      "stateMutability": "view",
      "type": "function"
    },
    {
      "inputs": [],
      "name": "getProfile",
      "outputs": [
        {
          "components": [
            {
              "internalType": "uint8",
              "name": "red",
              "type": "uint8"
            },
            {
              "internalType": "uint8",
              "name": "green",
              "type": "uint8"
            },
            {
              "internalType": "uint8",
              "name": "blue",
              "type": "uint8"
            },
            {
              "internalType": "uint32",
              "name": "soul",
              "type": "uint32"
            }
          ],
          "internalType": "struct JaJanken.Player",
          "name": "",
          "type": "tuple"
        }
      ],
      "stateMutability": "view",
      "type": "function"
    },
    {
      "inputs": [],
      "name": "getTotalBlue",
      "outputs": [
        {
          "internalType": "uint256",
          "name": "",
          "type": "uint256"
        }
      ],
      "stateMutability": "view",
      "type": "function"
    },
    {
      "inputs": [],
      "name": "getTotalGreen",
      "outputs": [
        {
          "internalType": "uint256",
          "name": "",
          "type": "uint256"
        }
      ],
      "stateMutability": "view",
      "type": "function"
    },
    {
      "inputs": [],
      "name": "getTotalRed",
      "outputs": [
        {
          "internalType": "uint256",
          "name": "",
          "type": "uint256"
        }
      ],
      "stateMutability": "view",
      "type": "function"
    },
    {
      "inputs": [],
      "name": "getTotalSoul",
      "outputs": [
        {
          "internalType": "uint256",
          "name": "",
          "type": "uint256"
        }
      ],
      "stateMutability": "view",
      "type": "function"
    },
    {
      "inputs": [],
      "name": "hasFundToWithdraw",
      "outputs": [
        {
          "internalType": "uint256",
          "name": "",
          "type": "uint256"
        }
      ],
      "stateMutability": "view",
      "type": "function"
    },
    {
      "inputs": [],
      "name": "joinGame",
      "outputs": [],
      "stateMutability": "payable",
      "type": "function"
    },
    {
      "inputs": [
        {
          "internalType": "address",
          "name": "",
          "type": "address"
        }
      ],
      "name": "matches",
      "outputs": [
        {
          "internalType": "address",
          "name": "p2",
          "type": "address"
        },
        {
          "internalType": "bytes32",
          "name": "p1Hidden",
          "type": "bytes32"
        },
        {
          "internalType": "bytes32",
          "name": "p2Hidden",
          "type": "bytes32"
        },
        {
          "internalType": "enum JaJanken.Technique",
          "name": "p1Revealed",
          "type": "uint8"
        },
        {
          "internalType": "enum JaJanken.Technique",
          "name": "p2Revealed",
          "type": "uint8"
        },
        {
          "internalType": "uint256",
          "name": "playTime",
          "type": "uint256"
        },
        {
          "internalType": "uint256",
          "name": "revealTime",
          "type": "uint256"
        }
      ],
      "stateMutability": "view",
      "type": "function"
    },
    {
      "inputs": [],
      "name": "name",
      "outputs": [
        {
          "internalType": "string",
          "name": "",
          "type": "string"
        }
      ],
      "stateMutability": "view",
      "type": "function"
    },
    {
      "inputs": [],
      "name": "owner",
      "outputs": [
        {
          "internalType": "address",
          "name": "",
          "type": "address"
        }
      ],
      "stateMutability": "view",
      "type": "function"
    },
    {
      "inputs": [
        {
          "internalType": "bytes32",
          "name": "_commitment",
          "type": "bytes32"
        },
        {
          "internalType": "address",
          "name": "_p1",
          "type": "address"
        },
        {
          "internalType": "address",
          "name": "_p2",
          "type": "address"
        },
        {
          "internalType": "bytes",
          "name": "_matchSig",
          "type": "bytes"
        }
      ],
      "name": "playMatch",
      "outputs": [],
      "stateMutability": "nonpayable",
      "type": "function"
    },
    {
      "inputs": [
        {
          "internalType": "enum JaJanken.Technique",
          "name": "_action",
          "type": "uint8"
        },
        {
          "internalType": "bytes32",
          "name": "_revealKey",
          "type": "bytes32"
        },
        {
          "internalType": "address",
          "name": "_p1",
          "type": "address"
        },
        {
          "internalType": "address",
          "name": "_p2",
          "type": "address"
        },
        {
          "internalType": "bytes",
          "name": "_matchSig",
          "type": "bytes"
        }
      ],
      "name": "revealMatch",
      "outputs": [],
      "stateMutability": "nonpayable",
      "type": "function"
    },
    {
      "inputs": [],
      "name": "signer",
      "outputs": [
        {
          "internalType": "address",
          "name": "",
          "type": "address"
        }
      ],
      "stateMutability": "view",
      "type": "function"
    },
    {
      "inputs": [
        {
          "internalType": "address",
          "name": "_matchId",
          "type": "address"
        }
      ],
      "name": "skipAfkDuringPlay",
      "outputs": [],
      "stateMutability": "nonpayable",
      "type": "function"
    },
    {
      "inputs": [
        {
          "internalType": "address",
          "name": "_matchId",
          "type": "address"
        }
      ],
      "name": "skipAfkDuringReveal",
      "outputs": [],
      "stateMutability": "nonpayable",
      "type": "function"
    },
    {
      "inputs": [],
      "name": "totalBlue",
      "outputs": [
        {
          "internalType": "uint256",
          "name": "",
          "type": "uint256"
        }
      ],
      "stateMutability": "view",
      "type": "function"
    },
    {
      "inputs": [],
      "name": "totalGreen",
      "outputs": [
        {
          "internalType": "uint256",
          "name": "",
          "type": "uint256"
        }
      ],
      "stateMutability": "view",
      "type": "function"
    },
    {
      "inputs": [],
      "name": "totalRed",
      "outputs": [
        {
          "internalType": "uint256",
          "name": "",
          "type": "uint256"
        }
      ],
      "stateMutability": "view",
      "type": "function"
    },
    {
      "inputs": [],
      "name": "totalSoul",
      "outputs": [
        {
          "internalType": "uint256",
          "name": "",
          "type": "uint256"
        }
      ],
      "stateMutability": "view",
      "type": "function"
    },
    {
      "inputs": [
        {
          "internalType": "uint8",
          "name": "_entranceFee",
          "type": "uint8"
        }
      ],
      "name": "updateEntranceFee",
      "outputs": [],
      "stateMutability": "nonpayable",
      "type": "function"
    },
    {
      "inputs": [
        {
          "internalType": "address",
          "name": "_matchId",
          "type": "address"
        }
      ],
      "name": "waitingForOpponentToPlay",
      "outputs": [
        {
          "internalType": "bool",
          "name": "",
          "type": "bool"
        }
      ],
      "stateMutability": "view",
      "type": "function"
    },
    {
      "inputs": [
        {
          "internalType": "address",
          "name": "_matchId",
          "type": "address"
        }
      ],
      "name": "waitingForOpponentToReveal",
      "outputs": [
        {
          "internalType": "bool",
          "name": "",
          "type": "bool"
        }
      ],
      "stateMutability": "view",
      "type": "function"
    },
    {
      "inputs": [
        {
          "internalType": "address payable",
          "name": "_recipient",
          "type": "address"
        }
      ],
      "name": "withdrawExcessiveBalance",
      "outputs": [],
      "stateMutability": "nonpayable",
      "type": "function"
    },
    {
      "inputs": [],
      "name": "withdrawGains",
      "outputs": [],
      "stateMutability": "nonpayable",
      "type": "function"
    },
    {
      "stateMutability": "payable",
      "type": "receive"
    }
  ],
  "bytecode": "0x6101406040523480156200001257600080fd5b5060405162005b3c38038062005b3c833981810160405281019062000038919062000517565b85806000806101000a81548173ffffffffffffffffffffffffffffffffffffffff021916908373ffffffffffffffffffffffffffffffffffffffff1602179055505086600190816200008b91906200082a565b503373ffffffffffffffffffffffffffffffffffffffff1660808173ffffffffffffffffffffffffffffffffffffffff168152505060036004600060016003811115620000dd57620000dc62000911565b5b6003811115620000f257620000f162000911565b5b815260200190815260200160002060006101000a81548160ff0219169083600381111562000125576200012462000911565b5b02179055506001600460006002600381111562000147576200014662000911565b5b60038111156200015c576200015b62000911565b5b815260200190815260200160002060006101000a81548160ff021916908360038111156200018f576200018e62000911565b5b0217905550600260046000600380811115620001b057620001af62000911565b5b6003811115620001c557620001c462000911565b5b815260200190815260200160002060006101000a81548160ff02191690836003811115620001f857620001f762000911565b5b021790555083600a60006101000a81548160ff021916908360ff1602179055508160ff166101008160ff16815250508060ff166101208160ff16815250508260ff1660e08160ff16815250508460a081815250508160ff16856200025d91906200096f565b60c0818152505060648460ff168360ff16876200027b91906200096f565b6200028791906200096f565b620002939190620009e9565b6009819055505050505050505062000a21565b6000604051905090565b600080fd5b600080fd5b600080fd5b600080fd5b6000601f19601f8301169050919050565b7f4e487b7100000000000000000000000000000000000000000000000000000000600052604160045260246000fd5b6200030f82620002c4565b810181811067ffffffffffffffff82111715620003315762000330620002d5565b5b80604052505050565b600062000346620002a6565b905062000354828262000304565b919050565b600067ffffffffffffffff821115620003775762000376620002d5565b5b6200038282620002c4565b9050602081019050919050565b60005b83811015620003af57808201518184015260208101905062000392565b60008484015250505050565b6000620003d2620003cc8462000359565b6200033a565b905082815260208101848484011115620003f157620003f0620002bf565b5b620003fe8482856200038f565b509392505050565b600082601f8301126200041e576200041d620002ba565b5b815162000430848260208601620003bb565b91505092915050565b600073ffffffffffffffffffffffffffffffffffffffff82169050919050565b6000620004668262000439565b9050919050565b620004788162000459565b81146200048457600080fd5b50565b60008151905062000498816200046d565b92915050565b6000819050919050565b620004b3816200049e565b8114620004bf57600080fd5b50565b600081519050620004d381620004a8565b92915050565b600060ff82169050919050565b620004f181620004d9565b8114620004fd57600080fd5b50565b6000815190506200051181620004e6565b92915050565b600080600080600080600060e0888a031215620005395762000538620002b0565b5b600088015167ffffffffffffffff8111156200055a5762000559620002b5565b5b620005688a828b0162000406565b97505060206200057b8a828b0162000487565b96505060406200058e8a828b01620004c2565b9550506060620005a18a828b0162000500565b9450506080620005b48a828b0162000500565b93505060a0620005c78a828b0162000500565b92505060c0620005da8a828b0162000500565b91505092959891949750929550565b600081519050919050565b7f4e487b7100000000000000000000000000000000000000000000000000000000600052602260045260246000fd5b600060028204905060018216806200063c57607f821691505b602082108103620006525762000651620005f4565b5b50919050565b60008190508160005260206000209050919050565b60006020601f8301049050919050565b600082821b905092915050565b600060088302620006bc7fffffffffffffffffffffffffffffffffffffffffffffffffffffffffffffffff826200067d565b620006c886836200067d565b95508019841693508086168417925050509392505050565b6000819050919050565b60006200070b62000705620006ff846200049e565b620006e0565b6200049e565b9050919050565b6000819050919050565b6200072783620006ea565b6200073f620007368262000712565b8484546200068a565b825550505050565b600090565b6200075662000747565b620007638184846200071c565b505050565b5b818110156200078b576200077f6000826200074c565b60018101905062000769565b5050565b601f821115620007da57620007a48162000658565b620007af846200066d565b81016020851015620007bf578190505b620007d7620007ce856200066d565b83018262000768565b50505b505050565b600082821c905092915050565b6000620007ff60001984600802620007df565b1980831691505092915050565b60006200081a8383620007ec565b9150826002028217905092915050565b6200083582620005e9565b67ffffffffffffffff811115620008515762000850620002d5565b5b6200085d825462000623565b6200086a8282856200078f565b600060209050601f831160018114620008a257600084156200088d578287015190505b6200089985826200080c565b86555062000909565b601f198416620008b28662000658565b60005b82811015620008dc57848901518255600182019150602085019450602081019050620008b5565b86831015620008fc5784890151620008f8601f891682620007ec565b8355505b6001600288020188555050505b505050505050565b7f4e487b7100000000000000000000000000000000000000000000000000000000600052602160045260246000fd5b7f4e487b7100000000000000000000000000000000000000000000000000000000600052601160045260246000fd5b60006200097c826200049e565b915062000989836200049e565b925082820262000999816200049e565b91508282048414831517620009b357620009b262000940565b5b5092915050565b7f4e487b7100000000000000000000000000000000000000000000000000000000600052601260045260246000fd5b6000620009f6826200049e565b915062000a03836200049e565b92508262000a165762000a15620009ba565b5b828204905092915050565b60805160a05160c05160e051610100516101205161506262000ada6000396000818161202b015281816120540152818161207d015281816120eb0152818161212401528181612172015281816121ab015281816121f901526122320152600081816120ab015261234601526000610cd70152600081816106e901528181611a160152611ee6015260008181610c6301528181610f3f015261123e0152600081816111ae01528181611933015261196701526150626000f3fe6080604052600436106101a05760003560e01c80636bef143d116100ec578063bcbe1dce1161008a578063d4f77b1c11610064578063d4f77b1c146105c9578063d6afc9b1146105d3578063e3b19703146105fe578063f48713e114610629576101a7565b8063bcbe1dce14610534578063cb13ec2d1461055d578063cd01ab1614610586576101a7565b806380af2a0a116100c657806380af2a0a1461048a5780638da5cb5b146104b3578063ba4ef431146104de578063bb5193f514610509576101a7565b80636bef143d1461040d578063739f946914610436578063800671111461045f576101a7565b80633239561d116101595780634c15b712116101335780634c15b7121461034f5780634c9343111461037a5780634e8cc37e146103a55780635c12cd4b146103d0576101a7565b80633239561d146102d057806336847b66146102fb578063483f021914610338576101a7565b806306fdde03146101ac5780631f2ed42f146101d7578063238ac9331461020257806325e1556e1461022d57806328362bc71461026a5780632a2950d2146102a7576101a7565b366101a757005b600080fd5b3480156101b857600080fd5b506101c1610654565b6040516101ce9190613d19565b60405180910390f35b3480156101e357600080fd5b506101ec6106e2565b6040516101f99190613d54565b60405180910390f35b34801561020e57600080fd5b50610217610717565b6040516102249190613db0565b60405180910390f35b34801561023957600080fd5b50610254600480360381019061024f9190613e0b565b61073b565b6040516102619190613e53565b60405180910390f35b34801561027657600080fd5b50610291600480360381019061028c9190613e0b565b61074d565b60405161029e9190613e53565b60405180910390f35b3480156102b357600080fd5b506102ce60048036038101906102c99190613ffe565b61075f565b005b3480156102dc57600080fd5b506102e5610c5f565b6040516102f29190613d54565b60405180910390f35b34801561030757600080fd5b50610322600480360381019061031d9190614095565b610c9f565b60405161032f91906140f7565b60405180910390f35b34801561034457600080fd5b5061034d610cd5565b005b34801561035b57600080fd5b506103646110bc565b6040516103719190613d54565b60405180910390f35b34801561038657600080fd5b5061038f6110c6565b60405161039c9190613d54565b60405180910390f35b3480156103b157600080fd5b506103ba6110cc565b6040516103c79190613d54565b60405180910390f35b3480156103dc57600080fd5b506103f760048036038101906103f29190613e0b565b6110d6565b60405161040491906141a2565b60405180910390f35b34801561041957600080fd5b50610434600480360381019061042f91906141fb565b6111ac565b005b34801561044257600080fd5b5061045d60048036038101906104589190613e0b565b61136b565b005b34801561046b57600080fd5b5061047461177e565b6040516104819190613d54565b60405180910390f35b34801561049657600080fd5b506104b160048036038101906104ac9190614228565b611784565b005b3480156104bf57600080fd5b506104c8611931565b6040516104d59190613db0565b60405180910390f35b3480156104ea57600080fd5b506104f3611955565b6040516105009190613d54565b60405180910390f35b34801561051557600080fd5b5061051e61195b565b60405161052b9190613d54565b60405180910390f35b34801561054057600080fd5b5061055b600480360381019061055691906142d7565b611965565b005b34801561056957600080fd5b50610584600480360381019061057f9190613e0b565b611a52565b005b34801561059257600080fd5b506105ad60048036038101906105a89190613e0b565b611e65565b6040516105c0979695949392919061437b565b60405180910390f35b6105d1611ee1565b005b3480156105df57600080fd5b506105e86123c7565b6040516105f591906141a2565b60405180910390f35b34801561060a57600080fd5b5061061361249b565b6040516106209190613d54565b60405180910390f35b34801561063557600080fd5b5061063e6124a1565b60405161064b9190613d54565b60405180910390f35b6001805461066190614419565b80601f016020809104026020016040519081016040528092919081815260200182805461068d90614419565b80156106da5780601f106106af576101008083540402835291602001916106da565b820191906000526020600020905b8154815290600101906020018083116106bd57829003601f168201915b505050505081565b60006009547f00000000000000000000000000000000000000000000000000000000000000006107129190614479565b905090565b60008054906101000a900473ffffffffffffffffffffffffffffffffffffffff1681565b6000610746826124ab565b9050919050565b600061075882612724565b9050919050565b61076a838383612a0b565b6000600360008573ffffffffffffffffffffffffffffffffffffffff1673ffffffffffffffffffffffffffffffffffffffff1681526020019081526020016000206040518060e00160405290816000820160009054906101000a900473ffffffffffffffffffffffffffffffffffffffff1673ffffffffffffffffffffffffffffffffffffffff1673ffffffffffffffffffffffffffffffffffffffff16815260200160018201548152602001600282015481526020016003820160009054906101000a900460ff16600381111561084557610844614304565b5b600381111561085757610856614304565b5b81526020016003820160019054906101000a900460ff1660038111156108805761087f614304565b5b600381111561089257610891614304565b5b81526020016004820154815260200160058201548152505090508373ffffffffffffffffffffffffffffffffffffffff163373ffffffffffffffffffffffffffffffffffffffff1603610a9d5780602001513073ffffffffffffffffffffffffffffffffffffffff166336847b663389896040518463ffffffff1660e01b8152600401610921939291906144ad565b602060405180830381865afa15801561093e573d6000803e3d6000fd5b505050506040513d601f19601f8201168201806040525081019061096291906144f9565b146109a2576040517f08c379a000000000000000000000000000000000000000000000000000000000815260040161099990614572565b60405180910390fd5b85600360008673ffffffffffffffffffffffffffffffffffffffff1673ffffffffffffffffffffffffffffffffffffffff16815260200190815260200160002060030160006101000a81548160ff02191690836003811115610a0757610a06614304565b5b021790555042600360008673ffffffffffffffffffffffffffffffffffffffff1673ffffffffffffffffffffffffffffffffffffffff1681526020019081526020016000206005018190555060006003811115610a6757610a66614304565b5b81608001516003811115610a7e57610a7d614304565b5b14610a9857610a97848260000151888460800151612b25565b5b610c57565b80604001513073ffffffffffffffffffffffffffffffffffffffff166336847b663389896040518463ffffffff1660e01b8152600401610adf939291906144ad565b602060405180830381865afa158015610afc573d6000803e3d6000fd5b505050506040513d601f19601f82011682018060405250810190610b2091906144f9565b14610b60576040517f08c379a0000000000000000000000000000000000000000000000000000000008152600401610b5790614572565b60405180910390fd5b85600360008673ffffffffffffffffffffffffffffffffffffffff1673ffffffffffffffffffffffffffffffffffffffff16815260200190815260200160002060030160016101000a81548160ff02191690836003811115610bc557610bc4614304565b5b021790555042600360008673ffffffffffffffffffffffffffffffffffffffff1673ffffffffffffffffffffffffffffffffffffffff1681526020019081526020016000206005018190555060006003811115610c2557610c24614304565b5b81606001516003811115610c3c57610c3b614304565b5b14610c5657610c55848260000151836060015189612b25565b5b5b505050505050565b60007f0000000000000000000000000000000000000000000000000000000000000000600554610c8f9190614592565b47610c9a91906145d4565b905090565b6000838383604051602001610cb6939291906146a7565b6040516020818303038152906040528051906020012090509392505050565b7f000000000000000000000000000000000000000000000000000000000000000060ff16600260003373ffffffffffffffffffffffffffffffffffffffff1673ffffffffffffffffffffffffffffffffffffffff16815260200190815260200160002060000160039054906101000a900463ffffffff1663ffffffff161015610d93576040517f08c379a0000000000000000000000000000000000000000000000000000000008152600401610d8a90614756565b60405180910390fd5b6000600260003373ffffffffffffffffffffffffffffffffffffffff1673ffffffffffffffffffffffffffffffffffffffff16815260200190815260200160002060000160019054906101000a900460ff1660ff16148015610e4757506000600260003373ffffffffffffffffffffffffffffffffffffffff1673ffffffffffffffffffffffffffffffffffffffff16815260200190815260200160002060000160029054906101000a900460ff1660ff16145b8015610ea557506000600260003373ffffffffffffffffffffffffffffffffffffffff1673ffffffffffffffffffffffffffffffffffffffff16815260200190815260200160002060000160009054906101000a900460ff1660ff16145b610ee4576040517f08c379a0000000000000000000000000000000000000000000000000000000008152600401610edb906147e8565b60405180910390fd5b6000600260003373ffffffffffffffffffffffffffffffffffffffff1673ffffffffffffffffffffffffffffffffffffffff16815260200190815260200160002060000160039054906101000a900463ffffffff16905060007f00000000000000000000000000000000000000000000000000000000000000008263ffffffff16610f6f9190614592565b905080471015610fb4576040517f08c379a0000000000000000000000000000000000000000000000000000000008152600401610fab9061487a565b60405180910390fd5b610fbd336133fe565b60003373ffffffffffffffffffffffffffffffffffffffff1682604051610fe3906148f1565b60006040518083038185875af1925050503d8060008114611020576040519150601f19603f3d011682016040523d82523d6000602084013e611025565b606091505b5050905080611069576040517f08c379a000000000000000000000000000000000000000000000000000000000815260040161106090614952565b60405180910390fd5b3373ffffffffffffffffffffffffffffffffffffffff167faa1377f7ec93c239e959efa811f7b8554c036fd7a706c23e58024626a8f3db96836040516110af9190613d54565b60405180910390a2505050565b6000600554905090565b60085481565b6000600754905090565b6110de613bd5565b600260008373ffffffffffffffffffffffffffffffffffffffff1673ffffffffffffffffffffffffffffffffffffffff1681526020019081526020016000206040518060800160405290816000820160009054906101000a900460ff1660ff1660ff1681526020016000820160019054906101000a900460ff1660ff1660ff1681526020016000820160029054906101000a900460ff1660ff1660ff1681526020016000820160039054906101000a900463ffffffff1663ffffffff1663ffffffff16815250509050919050565b7f000000000000000000000000000000000000000000000000000000000000000073ffffffffffffffffffffffffffffffffffffffff163373ffffffffffffffffffffffffffffffffffffffff161461123a576040517f08c379a0000000000000000000000000000000000000000000000000000000008152600401611231906149e4565b60405180910390fd5b60007f000000000000000000000000000000000000000000000000000000000000000060055461126a9190614592565b4761127591906145d4565b9050600081116112ba576040517f08c379a00000000000000000000000000000000000000000000000000000000081526004016112b190614a50565b60405180910390fd5b60008273ffffffffffffffffffffffffffffffffffffffff16826040516112e090614a96565b60006040518083038185875af1925050503d806000811461131d576040519150601f19603f3d011682016040523d82523d6000602084013e611322565b606091505b5050905080611366576040517f08c379a000000000000000000000000000000000000000000000000000000000815260040161135d90614952565b60405180910390fd5b505050565b60001515611378826124ab565b1515146113ba576040517f08c379a00000000000000000000000000000000000000000000000000000000081526004016113b190614af7565b60405180910390fd5b8073ffffffffffffffffffffffffffffffffffffffff163373ffffffffffffffffffffffffffffffffffffffff160361161857600260003373ffffffffffffffffffffffffffffffffffffffff1673ffffffffffffffffffffffffffffffffffffffff168152602001908152602001600020600001600381819054906101000a900463ffffffff1661144b90614b17565b91906101000a81548163ffffffff021916908363ffffffff16021790555060026000600360008473ffffffffffffffffffffffffffffffffffffffff1673ffffffffffffffffffffffffffffffffffffffff16815260200190815260200160002060000160009054906101000a900473ffffffffffffffffffffffffffffffffffffffff1673ffffffffffffffffffffffffffffffffffffffff1673ffffffffffffffffffffffffffffffffffffffff168152602001908152602001600020600001600381819054906101000a900463ffffffff1661152990614b43565b91906101000a81548163ffffffff021916908363ffffffff160217905550600360008273ffffffffffffffffffffffffffffffffffffffff1673ffffffffffffffffffffffffffffffffffffffff16815260200190815260200160002060000160009054906101000a900473ffffffffffffffffffffffffffffffffffffffff1673ffffffffffffffffffffffffffffffffffffffff163373ffffffffffffffffffffffffffffffffffffffff167f3ac6b951e4977329fd26cc368d72393ec0e74b115f5e6657d182a75eb43667a96000803360405161160b93929190614b6c565b60405180910390a361177b565b600260003373ffffffffffffffffffffffffffffffffffffffff1673ffffffffffffffffffffffffffffffffffffffff168152602001908152602001600020600001600381819054906101000a900463ffffffff1661167690614b17565b91906101000a81548163ffffffff021916908363ffffffff160217905550600260008273ffffffffffffffffffffffffffffffffffffffff1673ffffffffffffffffffffffffffffffffffffffff168152602001908152602001600020600001600381819054906101000a900463ffffffff166116f290614b43565b91906101000a81548163ffffffff021916908363ffffffff1602179055508073ffffffffffffffffffffffffffffffffffffffff163373ffffffffffffffffffffffffffffffffffffffff167f3ac6b951e4977329fd26cc368d72393ec0e74b115f5e6657d182a75eb43667a96000803360405161177293929190614b6c565b60405180910390a35b50565b60065481565b61178f838383612a0b565b8273ffffffffffffffffffffffffffffffffffffffff163373ffffffffffffffffffffffffffffffffffffffff160361180e5783600360008573ffffffffffffffffffffffffffffffffffffffff1673ffffffffffffffffffffffffffffffffffffffff16815260200190815260200160002060010181905550611856565b83600360008573ffffffffffffffffffffffffffffffffffffffff1673ffffffffffffffffffffffffffffffffffffffff168152602001908152602001600020600201819055505b6000600360008573ffffffffffffffffffffffffffffffffffffffff1673ffffffffffffffffffffffffffffffffffffffff16815260200190815260200160002060040154146118e4578273ffffffffffffffffffffffffffffffffffffffff167f37198fcc7fd6b816a2d208ab394ca4fef0c9813769c325ee8a186ee452c24b7160405160405180910390a25b42600360008573ffffffffffffffffffffffffffffffffffffffff1673ffffffffffffffffffffffffffffffffffffffff1681526020019081526020016000206004018190555050505050565b7f000000000000000000000000000000000000000000000000000000000000000081565b60075481565b6000600854905090565b7f000000000000000000000000000000000000000000000000000000000000000073ffffffffffffffffffffffffffffffffffffffff163373ffffffffffffffffffffffffffffffffffffffff16146119f3576040517f08c379a00000000000000000000000000000000000000000000000000000000081526004016119ea906149e4565b60405180910390fd5b80600a60006101000a81548160ff021916908360ff16021790555060648160ff167f0000000000000000000000000000000000000000000000000000000000000000611a3f9190614592565b611a499190614bd2565b60098190555050565b60001515611a5f82612724565b151514611aa1576040517f08c379a0000000000000000000000000000000000000000000000000000000008152600401611a9890614c4f565b60405180910390fd5b8073ffffffffffffffffffffffffffffffffffffffff163373ffffffffffffffffffffffffffffffffffffffff1603611cff57600260003373ffffffffffffffffffffffffffffffffffffffff1673ffffffffffffffffffffffffffffffffffffffff168152602001908152602001600020600001600381819054906101000a900463ffffffff16611b3290614b17565b91906101000a81548163ffffffff021916908363ffffffff16021790555060026000600360008473ffffffffffffffffffffffffffffffffffffffff1673ffffffffffffffffffffffffffffffffffffffff16815260200190815260200160002060000160009054906101000a900473ffffffffffffffffffffffffffffffffffffffff1673ffffffffffffffffffffffffffffffffffffffff1673ffffffffffffffffffffffffffffffffffffffff168152602001908152602001600020600001600381819054906101000a900463ffffffff16611c1090614b43565b91906101000a81548163ffffffff021916908363ffffffff160217905550600360008273ffffffffffffffffffffffffffffffffffffffff1673ffffffffffffffffffffffffffffffffffffffff16815260200190815260200160002060000160009054906101000a900473ffffffffffffffffffffffffffffffffffffffff1673ffffffffffffffffffffffffffffffffffffffff163373ffffffffffffffffffffffffffffffffffffffff167f3ac6b951e4977329fd26cc368d72393ec0e74b115f5e6657d182a75eb43667a960008033604051611cf293929190614b6c565b60405180910390a3611e62565b600260003373ffffffffffffffffffffffffffffffffffffffff1673ffffffffffffffffffffffffffffffffffffffff168152602001908152602001600020600001600381819054906101000a900463ffffffff16611d5d90614b17565b91906101000a81548163ffffffff021916908363ffffffff160217905550600260008273ffffffffffffffffffffffffffffffffffffffff1673ffffffffffffffffffffffffffffffffffffffff168152602001908152602001600020600001600381819054906101000a900463ffffffff16611dd990614b43565b91906101000a81548163ffffffff021916908363ffffffff1602179055508073ffffffffffffffffffffffffffffffffffffffff163373ffffffffffffffffffffffffffffffffffffffff167f3ac6b951e4977329fd26cc368d72393ec0e74b115f5e6657d182a75eb43667a960008033604051611e5993929190614b6c565b60405180910390a35b50565b60036020528060005260406000206000915090508060000160009054906101000a900473ffffffffffffffffffffffffffffffffffffffff16908060010154908060020154908060030160009054906101000a900460ff16908060030160019054906101000a900460ff16908060040154908060050154905087565b6009547f0000000000000000000000000000000000000000000000000000000000000000611f0f9190614479565b341015611f51576040517f08c379a0000000000000000000000000000000000000000000000000000000008152600401611f4890614cbb565b60405180910390fd5b6000600260003373ffffffffffffffffffffffffffffffffffffffff1673ffffffffffffffffffffffffffffffffffffffff1681526020019081526020016000206040518060800160405290816000820160009054906101000a900460ff1660ff1660ff1681526020016000820160019054906101000a900460ff1660ff1660ff1681526020016000820160029054906101000a900460ff1660ff1660ff1681526020016000820160039054906101000a900463ffffffff1663ffffffff1663ffffffff16815250509050600060405180608001604052807f000000000000000000000000000000000000000000000000000000000000000060ff1681526020017f000000000000000000000000000000000000000000000000000000000000000060ff1681526020017f000000000000000000000000000000000000000000000000000000000000000060ff16815260200183606001517f000000000000000000000000000000000000000000000000000000000000000060ff166120d79190614cdb565b63ffffffff168152509050600082600001517f00000000000000000000000000000000000000000000000000000000000000006121149190614d13565b60ff1611156121695781600001517f000000000000000000000000000000000000000000000000000000000000000061214d9190614d13565b60ff16600660008282546121619190614479565b925050819055505b600082602001517f000000000000000000000000000000000000000000000000000000000000000061219b9190614d13565b60ff1611156121f05781602001517f00000000000000000000000000000000000000000000000000000000000000006121d49190614d13565b60ff16600760008282546121e89190614479565b925050819055505b600082604001517f00000000000000000000000000000000000000000000000000000000000000006122229190614d13565b60ff1611156122775781604001517f000000000000000000000000000000000000000000000000000000000000000061225b9190614d13565b60ff166008600082825461226f9190614479565b925050819055505b80600260003373ffffffffffffffffffffffffffffffffffffffff1673ffffffffffffffffffffffffffffffffffffffff16815260200190815260200160002060008201518160000160006101000a81548160ff021916908360ff16021790555060208201518160000160016101000a81548160ff021916908360ff16021790555060408201518160000160026101000a81548160ff021916908360ff16021790555060608201518160000160036101000a81548163ffffffff021916908363ffffffff1602179055509050507f000000000000000000000000000000000000000000000000000000000000000060ff16600560008282546123799190614479565b925050819055503373ffffffffffffffffffffffffffffffffffffffff167f29d19159c7648a908867641a43fcee2537d7ed2269efb2247320fb53ddc401ea60405160405180910390a25050565b6123cf613bd5565b600260003373ffffffffffffffffffffffffffffffffffffffff1673ffffffffffffffffffffffffffffffffffffffff1681526020019081526020016000206040518060800160405290816000820160009054906101000a900460ff1660ff1660ff1681526020016000820160019054906101000a900460ff1660ff1660ff1681526020016000820160029054906101000a900460ff1660ff1660ff1681526020016000820160039054906101000a900463ffffffff1663ffffffff1663ffffffff1681525050905090565b60055481565b6000600654905090565b600080600360008473ffffffffffffffffffffffffffffffffffffffff1673ffffffffffffffffffffffffffffffffffffffff1681526020019081526020016000206040518060e00160405290816000820160009054906101000a900473ffffffffffffffffffffffffffffffffffffffff1673ffffffffffffffffffffffffffffffffffffffff1673ffffffffffffffffffffffffffffffffffffffff16815260200160018201548152602001600282015481526020016003820160009054906101000a900460ff16600381111561258757612586614304565b5b600381111561259957612598614304565b5b81526020016003820160019054906101000a900460ff1660038111156125c2576125c1614304565b5b60038111156125d4576125d3614304565b5b81526020016004820154815260200160058201548152505090508273ffffffffffffffffffffffffffffffffffffffff163373ffffffffffffffffffffffffffffffffffffffff161415806126595750806000015173ffffffffffffffffffffffffffffffffffffffff163373ffffffffffffffffffffffffffffffffffffffff1614155b15612699576040517f08c379a000000000000000000000000000000000000000000000000000000000815260040161269090614d94565b60405180910390fd5b8273ffffffffffffffffffffffffffffffffffffffff163373ffffffffffffffffffffffffffffffffffffffff161480156126db57506000801b816040015114155b806126ed57506000801b816020015114155b156126fc57600091505061271f565b6002603c8260a001514261271091906145d4565b61271a9190614bd2565b119150505b919050565b600080600360008473ffffffffffffffffffffffffffffffffffffffff1673ffffffffffffffffffffffffffffffffffffffff1681526020019081526020016000206040518060e00160405290816000820160009054906101000a900473ffffffffffffffffffffffffffffffffffffffff1673ffffffffffffffffffffffffffffffffffffffff1673ffffffffffffffffffffffffffffffffffffffff16815260200160018201548152602001600282015481526020016003820160009054906101000a900460ff166003811115612800576127ff614304565b5b600381111561281257612811614304565b5b81526020016003820160019054906101000a900460ff16600381111561283b5761283a614304565b5b600381111561284d5761284c614304565b5b81526020016004820154815260200160058201548152505090508273ffffffffffffffffffffffffffffffffffffffff163373ffffffffffffffffffffffffffffffffffffffff161415806128d25750806000015173ffffffffffffffffffffffffffffffffffffffff163373ffffffffffffffffffffffffffffffffffffffff1614155b15612912576040517f08c379a000000000000000000000000000000000000000000000000000000000815260040161290990614d94565b60405180910390fd5b6000801b8160200151148061292d57506000801b8160400151145b1561293c576000915050612a06565b8273ffffffffffffffffffffffffffffffffffffffff163373ffffffffffffffffffffffffffffffffffffffff161480156129a057506000600381111561298657612985614304565b5b8160800151600381111561299d5761299c614304565b5b14155b806129d45750600060038111156129ba576129b9614304565b5b816060015160038111156129d1576129d0614304565b5b14155b156129e3576000915050612a06565b6002603c8260c00151426129f791906145d4565b612a019190614bd2565b119150505b919050565b8273ffffffffffffffffffffffffffffffffffffffff163373ffffffffffffffffffffffffffffffffffffffff161480612a7057508173ffffffffffffffffffffffffffffffffffffffff163373ffffffffffffffffffffffffffffffffffffffff16145b612aaf576040517f08c379a0000000000000000000000000000000000000000000000000000000008152600401612aa690614d94565b60405180910390fd5b612ae18383604051602001612ac5929190614e0b565b6040516020818303038152906040528051906020012082613650565b612b20576040517f08c379a0000000000000000000000000000000000000000000000000000000008152600401612b1790614e8e565b60405180910390fd5b505050565b612b2f84836136b3565b612ca357600260008473ffffffffffffffffffffffffffffffffffffffff1673ffffffffffffffffffffffffffffffffffffffff168152602001908152602001600020600001600381819054906101000a900463ffffffff16612b9190614b17565b91906101000a81548163ffffffff021916908363ffffffff160217905550600260008573ffffffffffffffffffffffffffffffffffffffff1673ffffffffffffffffffffffffffffffffffffffff168152602001908152602001600020600001600381819054906101000a900463ffffffff16612c0d90614b43565b91906101000a81548163ffffffff021916908363ffffffff160217905550612c358382613890565b8273ffffffffffffffffffffffffffffffffffffffff168473ffffffffffffffffffffffffffffffffffffffff167f3ac6b951e4977329fd26cc368d72393ec0e74b115f5e6657d182a75eb43667a9848487604051612c9693929190614b6c565b60405180910390a36132dd565b612cad83826136b3565b612e2157600260008573ffffffffffffffffffffffffffffffffffffffff1673ffffffffffffffffffffffffffffffffffffffff168152602001908152602001600020600001600381819054906101000a900463ffffffff16612d0f90614b17565b91906101000a81548163ffffffff021916908363ffffffff160217905550600260008473ffffffffffffffffffffffffffffffffffffffff1673ffffffffffffffffffffffffffffffffffffffff168152602001908152602001600020600001600381819054906101000a900463ffffffff16612d8b90614b43565b91906101000a81548163ffffffff021916908363ffffffff160217905550612db38483613890565b8273ffffffffffffffffffffffffffffffffffffffff168473ffffffffffffffffffffffffffffffffffffffff167f3ac6b951e4977329fd26cc368d72393ec0e74b115f5e6657d182a75eb43667a9848488604051612e1493929190614b6c565b60405180910390a36132dc565b806003811115612e3457612e33614304565b5b826003811115612e4757612e46614304565b5b03612ebb578273ffffffffffffffffffffffffffffffffffffffff168473ffffffffffffffffffffffffffffffffffffffff167f3ac6b951e4977329fd26cc368d72393ec0e74b115f5e6657d182a75eb43667a984846000604051612eae93929190614b6c565b60405180910390a36132c7565b806003811115612ece57612ecd614304565b5b60046000846003811115612ee557612ee4614304565b5b6003811115612ef757612ef6614304565b5b815260200190815260200160002060009054906101000a900460ff166003811115612f2557612f24614304565b5b036130fa57600260008573ffffffffffffffffffffffffffffffffffffffff1673ffffffffffffffffffffffffffffffffffffffff168152602001908152602001600020600001600381819054906101000a900463ffffffff16612f8890614b17565b91906101000a81548163ffffffff021916908363ffffffff160217905550600260008473ffffffffffffffffffffffffffffffffffffffff1673ffffffffffffffffffffffffffffffffffffffff168152602001908152602001600020600001600381819054906101000a900463ffffffff1661300490614b43565b91906101000a81548163ffffffff021916908363ffffffff1602179055506000600260008573ffffffffffffffffffffffffffffffffffffffff1673ffffffffffffffffffffffffffffffffffffffff16815260200190815260200160002060000160039054906101000a900463ffffffff1663ffffffff160361308c5761308b836133fe565b5b8273ffffffffffffffffffffffffffffffffffffffff168473ffffffffffffffffffffffffffffffffffffffff167f3ac6b951e4977329fd26cc368d72393ec0e74b115f5e6657d182a75eb43667a98484886040516130ed93929190614b6c565b60405180910390a36132c6565b600260008473ffffffffffffffffffffffffffffffffffffffff1673ffffffffffffffffffffffffffffffffffffffff168152602001908152602001600020600001600381819054906101000a900463ffffffff1661315890614b17565b91906101000a81548163ffffffff021916908363ffffffff160217905550600260008573ffffffffffffffffffffffffffffffffffffffff1673ffffffffffffffffffffffffffffffffffffffff168152602001908152602001600020600001600381819054906101000a900463ffffffff166131d490614b43565b91906101000a81548163ffffffff021916908363ffffffff1602179055506000600260008673ffffffffffffffffffffffffffffffffffffffff1673ffffffffffffffffffffffffffffffffffffffff16815260200190815260200160002060000160039054906101000a900463ffffffff1663ffffffff160361325c5761325b846133fe565b5b8273ffffffffffffffffffffffffffffffffffffffff168473ffffffffffffffffffffffffffffffffffffffff167f3ac6b951e4977329fd26cc368d72393ec0e74b115f5e6657d182a75eb43667a98484876040516132bd93929190614b6c565b60405180910390a35b5b6132d18483613890565b6132db8382613890565b5b5b6132e5613c0c565b80600360008773ffffffffffffffffffffffffffffffffffffffff1673ffffffffffffffffffffffffffffffffffffffff16815260200190815260200160002060008201518160000160006101000a81548173ffffffffffffffffffffffffffffffffffffffff021916908373ffffffffffffffffffffffffffffffffffffffff160217905550602082015181600101556040820151816002015560608201518160030160006101000a81548160ff021916908360038111156133ab576133aa614304565b5b021790555060808201518160030160016101000a81548160ff021916908360038111156133db576133da614304565b5b021790555060a0820151816004015560c082015181600501559050505050505050565b6000600260008373ffffffffffffffffffffffffffffffffffffffff1673ffffffffffffffffffffffffffffffffffffffff1681526020019081526020016000206040518060800160405290816000820160009054906101000a900460ff1660ff1660ff1681526020016000820160019054906101000a900460ff1660ff1660ff1681526020016000820160029054906101000a900460ff1660ff1660ff1681526020016000820160039054906101000a900463ffffffff1663ffffffff1663ffffffff16815250509050806060015163ffffffff16600560008282546134e591906145d4565b92505081905550806000015160ff166006600082825461350591906145d4565b92505081905550806020015160ff166007600082825461352591906145d4565b92505081905550806040015160ff166008600082825461354591906145d4565b925050819055506040518060800160405280600060ff168152602001600060ff168152602001600060ff168152602001600063ffffffff16815250600260008473ffffffffffffffffffffffffffffffffffffffff1673ffffffffffffffffffffffffffffffffffffffff16815260200190815260200160002060008201518160000160006101000a81548160ff021916908360ff16021790555060208201518160000160016101000a81548160ff021916908360ff16021790555060408201518160000160026101000a81548160ff021916908360ff16021790555060608201518160000160036101000a81548163ffffffff021916908363ffffffff1602179055509050505050565b60008060009054906101000a900473ffffffffffffffffffffffffffffffffffffffff1673ffffffffffffffffffffffffffffffffffffffff166136948484613afe565b73ffffffffffffffffffffffffffffffffffffffff1614905092915050565b6000600160038111156136c9576136c8614304565b5b8260038111156136dc576136db614304565b5b0361373e576000600260008573ffffffffffffffffffffffffffffffffffffffff1673ffffffffffffffffffffffffffffffffffffffff16815260200190815260200160002060000160009054906101000a900460ff1660ff1611905061388a565b6002600381111561375257613751614304565b5b82600381111561376557613764614304565b5b036137c7576000600260008573ffffffffffffffffffffffffffffffffffffffff1673ffffffffffffffffffffffffffffffffffffffff16815260200190815260200160002060000160019054906101000a900460ff1660ff1611905061388a565b6003808111156137da576137d9614304565b5b8260038111156137ed576137ec614304565b5b0361384f576000600260008573ffffffffffffffffffffffffffffffffffffffff1673ffffffffffffffffffffffffffffffffffffffff16815260200190815260200160002060000160029054906101000a900460ff1660ff1611905061388a565b6040517f08c379a000000000000000000000000000000000000000000000000000000000815260040161388190614efa565b60405180910390fd5b92915050565b600160038111156138a4576138a3614304565b5b8160038111156138b7576138b6614304565b5b0361394a57600260008373ffffffffffffffffffffffffffffffffffffffff1673ffffffffffffffffffffffffffffffffffffffff168152602001908152602001600020600001600081819054906101000a900460ff1661391790614f1a565b91906101000a81548160ff021916908360ff16021790555060066000815461393e90614f43565b91905081905550613afa565b6002600381111561395e5761395d614304565b5b81600381111561397157613970614304565b5b03613a0457600260008373ffffffffffffffffffffffffffffffffffffffff1673ffffffffffffffffffffffffffffffffffffffff168152602001908152602001600020600001600181819054906101000a900460ff166139d190614f1a565b91906101000a81548160ff021916908360ff1602179055506007600081546139f890614f43565b91905081905550613af9565b600380811115613a1757613a16614304565b5b816003811115613a2a57613a29614304565b5b03613abd57600260008373ffffffffffffffffffffffffffffffffffffffff1673ffffffffffffffffffffffffffffffffffffffff168152602001908152602001600020600001600281819054906101000a900460ff16613a8a90614f1a565b91906101000a81548160ff021916908360ff160217905550600860008154613ab190614f43565b91905081905550613af8565b6040517f08c379a0000000000000000000000000000000000000000000000000000000008152600401613aef90614efa565b60405180910390fd5b5b5b5050565b600080600080613b0d85613b6d565b92509250925060018682858560405160008152602001604052604051613b369493929190614f7b565b6020604051602081039080840390855afa158015613b58573d6000803e3d6000fd5b50505060206040510351935050505092915050565b60008060006041845114613bb6576040517f08c379a0000000000000000000000000000000000000000000000000000000008152600401613bad9061500c565b60405180910390fd5b6020840151925060408401519150606084015160001a90509193909250565b6040518060800160405280600060ff168152602001600060ff168152602001600060ff168152602001600063ffffffff1681525090565b6040518060e00160405280600073ffffffffffffffffffffffffffffffffffffffff168152602001600080191681526020016000801916815260200160006003811115613c5c57613c5b614304565b5b815260200160006003811115613c7557613c74614304565b5b815260200160008152602001600081525090565b600081519050919050565b600082825260208201905092915050565b60005b83811015613cc3578082015181840152602081019050613ca8565b60008484015250505050565b6000601f19601f8301169050919050565b6000613ceb82613c89565b613cf58185613c94565b9350613d05818560208601613ca5565b613d0e81613ccf565b840191505092915050565b60006020820190508181036000830152613d338184613ce0565b905092915050565b6000819050919050565b613d4e81613d3b565b82525050565b6000602082019050613d696000830184613d45565b92915050565b600073ffffffffffffffffffffffffffffffffffffffff82169050919050565b6000613d9a82613d6f565b9050919050565b613daa81613d8f565b82525050565b6000602082019050613dc56000830184613da1565b92915050565b6000604051905090565b600080fd5b600080fd5b613de881613d8f565b8114613df357600080fd5b50565b600081359050613e0581613ddf565b92915050565b600060208284031215613e2157613e20613dd5565b5b6000613e2f84828501613df6565b91505092915050565b60008115159050919050565b613e4d81613e38565b82525050565b6000602082019050613e686000830184613e44565b92915050565b60048110613e7b57600080fd5b50565b600081359050613e8d81613e6e565b92915050565b6000819050919050565b613ea681613e93565b8114613eb157600080fd5b50565b600081359050613ec381613e9d565b92915050565b600080fd5b600080fd5b7f4e487b7100000000000000000000000000000000000000000000000000000000600052604160045260246000fd5b613f0b82613ccf565b810181811067ffffffffffffffff82111715613f2a57613f29613ed3565b5b80604052505050565b6000613f3d613dcb565b9050613f498282613f02565b919050565b600067ffffffffffffffff821115613f6957613f68613ed3565b5b613f7282613ccf565b9050602081019050919050565b82818337600083830152505050565b6000613fa1613f9c84613f4e565b613f33565b905082815260208101848484011115613fbd57613fbc613ece565b5b613fc8848285613f7f565b509392505050565b600082601f830112613fe557613fe4613ec9565b5b8135613ff5848260208601613f8e565b91505092915050565b600080600080600060a0868803121561401a57614019613dd5565b5b600061402888828901613e7e565b955050602061403988828901613eb4565b945050604061404a88828901613df6565b935050606061405b88828901613df6565b925050608086013567ffffffffffffffff81111561407c5761407b613dda565b5b61408888828901613fd0565b9150509295509295909350565b6000806000606084860312156140ae576140ad613dd5565b5b60006140bc86828701613df6565b93505060206140cd86828701613e7e565b92505060406140de86828701613eb4565b9150509250925092565b6140f181613e93565b82525050565b600060208201905061410c60008301846140e8565b92915050565b600060ff82169050919050565b61412881614112565b82525050565b600063ffffffff82169050919050565b6141478161412e565b82525050565b608082016000820151614163600085018261411f565b506020820151614176602085018261411f565b506040820151614189604085018261411f565b50606082015161419c606085018261413e565b50505050565b60006080820190506141b7600083018461414d565b92915050565b60006141c882613d6f565b9050919050565b6141d8816141bd565b81146141e357600080fd5b50565b6000813590506141f5816141cf565b92915050565b60006020828403121561421157614210613dd5565b5b600061421f848285016141e6565b91505092915050565b6000806000806080858703121561424257614241613dd5565b5b600061425087828801613eb4565b945050602061426187828801613df6565b935050604061427287828801613df6565b925050606085013567ffffffffffffffff81111561429357614292613dda565b5b61429f87828801613fd0565b91505092959194509250565b6142b481614112565b81146142bf57600080fd5b50565b6000813590506142d1816142ab565b92915050565b6000602082840312156142ed576142ec613dd5565b5b60006142fb848285016142c2565b91505092915050565b7f4e487b7100000000000000000000000000000000000000000000000000000000600052602160045260246000fd5b6004811061434457614343614304565b5b50565b600081905061435582614333565b919050565b600061436582614347565b9050919050565b6143758161435a565b82525050565b600060e082019050614390600083018a613da1565b61439d60208301896140e8565b6143aa60408301886140e8565b6143b7606083018761436c565b6143c4608083018661436c565b6143d160a0830185613d45565b6143de60c0830184613d45565b98975050505050505050565b7f4e487b7100000000000000000000000000000000000000000000000000000000600052602260045260246000fd5b6000600282049050600182168061443157607f821691505b602082108103614444576144436143ea565b5b50919050565b7f4e487b7100000000000000000000000000000000000000000000000000000000600052601160045260246000fd5b600061448482613d3b565b915061448f83613d3b565b92508282019050808211156144a7576144a661444a565b5b92915050565b60006060820190506144c26000830186613da1565b6144cf602083018561436c565b6144dc60408301846140e8565b949350505050565b6000815190506144f381613e9d565b92915050565b60006020828403121561450f5761450e613dd5565b5b600061451d848285016144e4565b91505092915050565b7f696e76616c696420616374696f6e000000000000000000000000000000000000600082015250565b600061455c600e83613c94565b915061456782614526565b602082019050919050565b6000602082019050818103600083015261458b8161454f565b9050919050565b600061459d82613d3b565b91506145a883613d3b565b92508282026145b681613d3b565b915082820484148315176145cd576145cc61444a565b5b5092915050565b60006145df82613d3b565b91506145ea83613d3b565b92508282039050818111156146025761460161444a565b5b92915050565b60008160601b9050919050565b600061462082614608565b9050919050565b600061463282614615565b9050919050565b61464a61464582613d8f565b614627565b82525050565b60008160f81b9050919050565b600061466882614650565b9050919050565b61468061467b8261435a565b61465d565b82525050565b6000819050919050565b6146a161469c82613e93565b614686565b82525050565b60006146b38286614639565b6014820191506146c3828561466f565b6001820191506146d38284614690565b602082019150819050949350505050565b7f596f7520646964206e6f74206d6565742074686520726571756972656420536f60008201527f756c20666f72206c656176696e672074686520436f6c697365756d2e00000000602082015250565b6000614740603c83613c94565b915061474b826146e4565b604082019050919050565b6000602082019050818103600083015261476f81614733565b9050919050565b7f596f7520646964206e6f7420706c617920616c6c20796f75722063617264732060008201527f7965742e00000000000000000000000000000000000000000000000000000000602082015250565b60006147d2602483613c94565b91506147dd82614776565b604082019050919050565b60006020820190508181036000830152614801816147c5565b9050919050565b7f54686520436f6c697365756d206973206f7574206f66206d6f6e657920666f7260008201527f206e6f772e000000000000000000000000000000000000000000000000000000602082015250565b6000614864602583613c94565b915061486f82614808565b604082019050919050565b6000602082019050818103600083015261489381614857565b9050919050565b600081905092915050565b7f456e6a6f7920796f757220726577617264732100000000000000000000000000600082015250565b60006148db60138361489a565b91506148e6826148a5565b601382019050919050565b60006148fc826148ce565b9150819050919050565b7f7769746864726177206661696c65640000000000000000000000000000000000600082015250565b600061493c600f83613c94565b915061494782614906565b602082019050919050565b6000602082019050818103600083015261496b8161492f565b9050919050565b7f4f6e6c79206f776e65722063616e2063616c6c20746869732066756e6374696f60008201527f6e2e000000000000000000000000000000000000000000000000000000000000602082015250565b60006149ce602283613c94565b91506149d982614972565b604082019050919050565b600060208201905081810360008301526149fd816149c1565b9050919050565b7f6e6f7468696e6720746f20776974686472617700000000000000000000000000600082015250565b6000614a3a601383613c94565b9150614a4582614a04565b602082019050919050565b60006020820190508181036000830152614a6981614a2d565b9050919050565b50565b6000614a8060008361489a565b9150614a8b82614a70565b600082019050919050565b6000614aa182614a73565b9150819050919050565b7f4f70706f6e656e7420616c726561647920706c617965642e0000000000000000600082015250565b6000614ae1601883613c94565b9150614aec82614aab565b602082019050919050565b60006020820190508181036000830152614b1081614ad4565b9050919050565b6000614b228261412e565b915063ffffffff8203614b3857614b3761444a565b5b600182019050919050565b6000614b4e8261412e565b915060008203614b6157614b6061444a565b5b600182039050919050565b6000606082019050614b81600083018661436c565b614b8e602083018561436c565b614b9b6040830184613da1565b949350505050565b7f4e487b7100000000000000000000000000000000000000000000000000000000600052601260045260246000fd5b6000614bdd82613d3b565b9150614be883613d3b565b925082614bf857614bf7614ba3565b5b828204905092915050565b7f4f70706f6e656e7420616c72656164792072657665616c65642e000000000000600082015250565b6000614c39601a83613c94565b9150614c4482614c03565b602082019050919050565b60006020820190508181036000830152614c6881614c2c565b9050919050565b7f4e6f7420656e6f75676820746f206a6f696e207468652067616d652e00000000600082015250565b6000614ca5601c83613c94565b9150614cb082614c6f565b602082019050919050565b60006020820190508181036000830152614cd481614c98565b9050919050565b6000614ce68261412e565b9150614cf18361412e565b9250828201905063ffffffff811115614d0d57614d0c61444a565b5b92915050565b6000614d1e82614112565b9150614d2983614112565b9250828203905060ff811115614d4257614d4161444a565b5b92915050565b7f596f7520646f206e6f742062656c6f6e6720746f2074686973206d617463682e600082015250565b6000614d7e602083613c94565b9150614d8982614d48565b602082019050919050565b60006020820190508181036000830152614dad81614d71565b9050919050565b600081905092915050565b7f7673000000000000000000000000000000000000000000000000000000000000600082015250565b6000614df5600283614db4565b9150614e0082614dbf565b600282019050919050565b6000614e178285614639565b601482019150614e2682614de8565b9150614e328284614639565b6014820191508190509392505050565b7f54686973206d6174636820697320696e76616c69642e00000000000000000000600082015250565b6000614e78601683613c94565b9150614e8382614e42565b602082019050919050565b60006020820190508181036000830152614ea781614e6b565b9050919050565b7f57726f6e6720746563686e697175650000000000000000000000000000000000600082015250565b6000614ee4600f83613c94565b9150614eef82614eae565b602082019050919050565b60006020820190508181036000830152614f1381614ed7565b9050919050565b6000614f2582614112565b915060008203614f3857614f3761444a565b5b600182039050919050565b6000614f4e82613d3b565b915060008203614f6157614f6061444a565b5b600182039050919050565b614f7581614112565b82525050565b6000608082019050614f9060008301876140e8565b614f9d6020830186614f6c565b614faa60408301856140e8565b614fb760608301846140e8565b95945050505050565b7f696e76616c6964207369676e6174757265206c656e6774680000000000000000600082015250565b6000614ff6601883613c94565b915061500182614fc0565b602082019050919050565b6000602082019050818103600083015261502581614fe9565b905091905056fea26469706673582212206ae75097611cda6093edb6925b35233b63968a743bde4df99aff8c1e6e1c92d564736f6c63430008130033",
  "linkReferences": {},
  "deployedLinkReferences": {}
}